:020000040800F2
:1000000070250020AD010008C30A0008BF0A0008DF
:10001000C10A0008BF030008951400080000000092
:100020000000000000000000000000000D0D0008AE
:10003000E109000800000000390B00080F0D00085E
:10004000C7010008C7010008C7010008C701000870
:10005000C7010008C7010008C7010008C701000860
:10006000C7010008C7010008C7010008C701000850
:10007000C7010008C7010008C7010008C701000840
:10008000C7010008C7010008C7010008890400086B
:10009000C103000825040008C7010008C7010008C3
:1000A000C7010008C7010008C7010008C701000810
:1000B000C7010008C7010008C7010008C701000800
:1000C000C7010008C7010008C7010008C7010008F0
:1000D000C7010008A5120008E91200082D13000846
:1000E000C7010008C7010008C7010008C7010008D0
:1000F000C7010008C7010008C7010008C7010008C0
:10010000C7010008C7010008B10E0008C7010008B8
:100110001D12000861120008C7010008C70100088D
:10012000C7010008C7010008C7010008C70100088F
:10013000C7010008C7010008C7010008C70100087F
:10014000C7010008C7010008C7010008C70100086F
:10015000C7010008C7010008C7010008C70100085F
:10016000C7010008C7010008C7010008C70100084F
:10017000C7010008C7010008C7010008C70100083F
:10018000C7010008C7010008DFF80CD000F032F802
:1001900000480047091A0008702500204FF073003E
:1001A000A0F101000028FBD17047000006488047FD
:1001B00006480047FEE7FEE7FEE7FEE7FEE7FEE74C
:1001C000FEE7FEE7FEE7FEE7950D0008890100085F
:1001D00040EA01039B0703D009E008C9121F08C0C9
:1001E000042AFAD203E011F8013B00F8013B521E49
:1001F000F9D27047064C074D06E0E06840F0010375
:1002000094E8070098471034AC42F6D3FFF7C0FFDC
:10021000083600082836000870B58C1810F8015B05
:1002200015F0070301D110F8013B2A1106D110F88F
:10023000012B03E010F8016B01F8016B5B1EF9D193
:100240002B0705D40023521E0DD401F8013BFAE719
:1002500010F8013BCB1A921C03E013F8015B01F884
:10026000015B521EF9D5A142D8D3002070BD0029F0
:10027000816814BF41F0010121F0010181607047E4
:10028000084AD2F80413084B1940D0E9003C43EA6D
:100290000C03D0E902C04CEA000018430843C2F83E
:1002A0000403704700200140E030FCFF0029816812
:1002B00014BF41F4807121F480718160704700297E
:1002C000816814BF41F4007121F4007181607047AE
:1002D00010B4426891F804C022F4807222F0407297
:1002E0000B6842EA0C221A43426082680C4B4C793C
:1002F0001A40D1E903C343EA0C03D1F808C04CEA21
:10030000440C43EA0C031A438260C26A097D22F45A
:100310007002491EC9B242EA0151C16210BC704765
:10032000FDF7FFC030B4072509290CD9C468A1F135
:100330000A0C0CEB4C0C05FA0CF5AC4303FA0CF36D
:100340002343C36009E0046901EB410C05FA0CF595
:10035000AC4303FA0CF3234303614FF01F0C072A4D
:100360000CD2436B521E02EB82020CFA02FC23EA0F
:100370000C0391401943416330BC70470D2A0CD2E5
:10038000036BD21F02EB82020CFA02FC23EA0C037D
:1003900091401943016330BC7047C36A0D3A02EBC8
:1003A00082020CFA02FC23EA0C0391401943C16259
:1003B00030BC7047816841F0804181607047FEE742
:1003C00010B5154C86B00221204600F0BFF8002879
:1003D00004BF06B010BD0221204600F069F86A464D
:1003E0000021204600F038F99DF8080000281CBFC5
:1003F00006B010BD9DF8130008490978884224BF53
:1004000006B010BD064951F8201000291CBF6846EF
:10041000884706B010BD000000640040280000209E
:10042000E814002010B5154C86B01021204600F0CD
:100430008DF8002804BF06B010BD1021204600F042
:1004400037F86A460121204600F006F99DF80800B9
:1004500000281CBF06B010BD9DF81300084909789C
:10046000884224BF06B010BD064951F8201000296B
:100470001CBF6846884706B010BD000000640040FD
:1004800028000020E814002010B5084C0121204667
:1004900000F05CF8002808BF10BD0121204600F0E4
:1004A00007F8BDE8104001F05DB9000000640040AD
:1004B00010B4082304224FF0100CB1F5007F40D097
:1004C00021DC202902BF036110BC704710DC012928
:1004D00001BF1D49816010BC7047042902BFC36081
:1004E00010BC7047082908BFC0F80CC010BC70478A
:1004F000402902BFC0F810C010BC7047B1F5807F22
:100500001FD010BC70470024B1F5004F08D00BDCA1
:10051000B1F5806F15D0B1F5006F1CBF10BC7047EE
:100520008461426010BC7047B1F5803F02BF4360F8
:1005300010BC7047B1F5003F08BFC0F804C010BC44
:100540007047426010BC70470101010043690022FE
:100550000B427DD0B1F5807F5CD010DC082935D00E
:1005600006DC012920D0022924D0042928D06FE0FC
:10057000102931D0202935D0402939D068E0B1F593
:10058000004F5FD009DCB1F5007F49D0B1F5806F35
:100590004CD0B1F5006F4FD05AE0B1F5803F2DD06F
:1005A000B1F5003F30D053E080682A49002208426C
:1005B0004DD14DE0C068002210F0030F47D147E055
:1005C000C068002210F0080F41D141E0C06800224D
:1005D00010F0100F3BD13BE00069002210F0030F38
:1005E00035D135E00069002210F0080F2FD12FE03F
:1005F0000069002210F0100F29D129E04068002284
:1006000010F0080F23D123E04068002210F0100FF3
:100610001DD11DE08069002210F0010F17D117E0F5
:100620008069002210F0020F11D111E080690022D0
:1006300010F0040F0BD10BE08069002210F0700F56
:1006400005D105E04068002210F0040F00D001221F
:10065000104670470101010000EB0113D3F8B0C14F
:100660001CF0040C82F808C0D3F8B0C107BF4FEAF1
:100670005C5CC2F800C04FEADC0CC2F804C0D3F8DE
:10068000B0C10CF0020C82F809C0D3F8B4C10CF070
:100690000F0C82F80AC0D3F8B4C14FEA1C2C82F8C0
:1006A00013C0D3F8B8C182F80BC0D3F8B8C14FEA71
:1006B0001C2C82F80CC0D3F8B8C14FEA1C4C82F84D
:1006C0000DC0D3F8B8C14FEA1C6C82F80EC0D3F845
:1006D000BCC182F80FC0D3F8BCC14FEA1C2C82F811
:1006E00010C0D3F8BCC14FEA1C4C82F811C0D3F83B
:1006F000BC311B0E937421B1016941F020010161ED
:100700007047C16841F02001C160704710B40246D3
:100710000020936813F0806F3ED002EB0012D2F8F5
:10072000803103F00103C2F880310B7A002B42D0F4
:10073000D2F880C14C684CEA030391F809C04CEA36
:10074000C40C43EA0C03C2F880318B7A03F00F0328
:100750008B72D2F8843123F00F03C2F88431D2F8BF
:10076000843191F80AC043EA0C03C2F88431CB7A91
:10077000D1F80CC043EA0C23C2F88831CB7B09695D
:1007800043EA0121C2F88C11D2F8801141F0010135
:10079000C2F8801110BC7047906810F0006F18BF4D
:1007A0000120BAD1906810F0805F14BF02200420AD
:1007B000B3D110BC7047D2F8803191F809C043EA38
:1007C0000C03B1F800C043EA4C53BCE700290168B0
:1007D00014BF41F0010121F00101016070470000E8
:1007E0002DE9F003016821F00101016000210160A1
:1007F00041608160C160016121214161444A4549F4
:100800004FF03D08904202BFC1F80880BDE8F003F8
:100810007047414A4FF47464904202BF8C60BDE857
:10082000F00370473D4A4FF47415904202BF8D604B
:10083000BDE8F00370473A4A4FF07466904202BF39
:100840008E60BDE8F0037047364B374A984202BFCE
:10085000CA60BDE8F0037047DFF8D0C0344B604594
:1008600002BFCB60BDE8F0037047324FDFF8C8C06D
:10087000B84202BFC1F80CC0BDE8F0037047DFF812
:10088000BC904FF03D57484502BFCF60BDE8F00334
:100890007047DFF8AC902B49484502BFC1F8008093
:1008A000BDE8F0037047DFF8A080404502BF0C6050
:1008B000BDE8F0037047254CA04202BF0D60BDE8C3
:1008C000F0037047224CA04202BF0E60BDE8F00367
:1008D0007047204C2049A04202BF0A60BDE8F003E7
:1008E00070471E4A904202BF0B60BDE8F00370479C
:1008F0001B4A904202BFC1F800C0BDE8F003704738
:10090000184A904208BF0F60BDE8F003704700002E
:1009100010600240006002402860024040600240D7
:1009200058600240706002403D0000208860024034
:10093000400F0020A060024000003D20B86002404F
:10094000106402400864024028640240406402408F
:1009500058640240706402400C64024088640240A3
:10096000A0640240B864024010B402681B4BD1F886
:100970000CC01A400B6843EA0C03D1E905C44CEAE9
:10098000040C43EA0C03D1F81CC043EA0C03D1F871
:1009900020C043EA0C03D1F824C043EA0C03D1F889
:1009A00028C043EA0C03D1F834C043EA0C03D1F861
:1009B00038C043EA0C031A4302604269D1E90B3C98
:1009C00022F0070243EA0C031A4342610A694260BB
:1009D0004A6882608968C16010BC70473F801CF023
:1009E00070472DE9F0010022012603270B6806FA63
:1009F00002FC03EA0C03634538D10568530007FA8B
:100A000003F4A54305600D79D0F800809D4045EAC8
:100A1000080505600D79012D18BF022D17D18568D5
:100A2000A54385604D79D0F808809D4045EA0805CA
:100A30008560456825EA0C0CC0F804C0D0F804C0F5
:100A40008D799540ADB24CEA050CC0F804C0D0F8E1
:100A50000CC02CEA040CC0F80CC091F807C00CFACA
:100A600003F3D0F80CC043EA0C03C360521C102AF5
:100A7000BCD3BDE8F00170474B07DB0E9A40C908B4
:100A800000EB8100016A4FF00F0C0CFA03F399435D
:100A90000162016A1143016270474183704701831B
:100AA00070474FF6FF710160002101714171817142
:100AB000C1717047002A14BF018341837047FEE76C
:100AC000FEE7704710B4C27801784FF00F0C012494
:100AD0001AB3184A126801F1E02102F4E062C2F58B
:100AE000E062C2F30722C2F104032CFA02FC42784E
:100AF0009A40837803EA0C031A43120181F8002418
:100B0000007800F01F0104FA01F14009800000F1B3
:100B1000E020C0F8001110BC704701F01F0004FA7B
:100B200000F04909890001F1E021C1F8800110BC01
:100B3000704700000CED00E070470000044A0029F7
:100B4000116814BF084321EA0000106070470000DC
:100B500030380240044A0029116814BF084321EAD2
:100B6000000010607047000040380240044A00292D
:100B7000116814BF084321EA0000106070470000AC
:100B800060380240044A0029116814BF084321EA72
:100B9000000010607047000020380240044A00291D
:100BA000116814BF084321EA00001060704700007C
:100BB00044380240044A0029116814BF084321EA5E
:100BC000000010607047000024380240DFF88CC03D
:100BD00030B4DCF80010224D11F00C0106D06C107E
:100BE000042908BF046002D008291DD00560DCF884
:100BF00000100F221B4B02EA1111595C026822FA05
:100C000001F14160DCF80020072404EA92229A5C9A
:100C100021FA02F28260DCF8002004EA52329A5C87
:100C2000D140C16030BC70470F4A1168C1F3805396
:100C30001168002B01F03F0114BFB4FBF1F1B5FBCB
:100C4000F1F113681268C3F388135943C2F30142E8
:100C5000521C5200B1FBF2F10160C8E708380240B3
:100C60000024F4000000002004380240002901881C
:100C700014BF41F4005121F4005101807047002954
:100C8000018814BF41F0400121F04001018070470C
:100C90000246002012890A4218BF0120704780894D
:100CA00070478181704710B402880B88B1F802C088
:100CB000CC8843EA0C03B1F804C002F441524CEA78
:100CC000040C43EA0C03B1F808C043EA0C03B1F882
:100CD0000AC043EA0C03B1F80CC043EA0C03B1F8B4
:100CE0000EC043EA0C031A430280828B22F4006296
:100CF0008283098A018210BC70470029818814BF51
:100D000041F0040121F00401818070477047704771
:100D100030B41B4C20681B4D1B4910F00C0008D050
:100D20004FEA650C042808BFC1F800C002D00828AB
:100D30000BD00D602068154AC0F30310105C0A68E0
:100D400022FA00F0086030BC7047114A1068C0F306
:100D500080531068002B00F03F0014BFBCFBF0F084
:100D6000B5FBF0F013681268C3F388135843C2F35D
:100D70000142521C5200B0FBF2F00860DAE70000BA
:100D8000083802400024F400100000201400002065
:100D9000043802403C4882B0016841F470010160AF
:100DA0003A48016841F00101016039494FF0000CF7
:100DB000C1F800C0026822F4102222F080720260A2
:100DC000031D344A1A60026822F4802202600A1D60
:100DD000C2F800C0CDF800C0CDF804C0026842F4EB
:100DE00080320260026802F400320192009A521CC2
:100DF0000092019A1AB9009AB2F5A04FF2D1026896
:100E000012F4003F1ABF01220192CDF804C0224A19
:100E1000D2F800C04CF0805CC2F800C01F4AD2F883
:100E200000C04CF4404CC2F800C00A680A600A686E
:100E300042F400420A600A6842F4A0520A60019A31
:100E4000012A0CBF164A174A1A60026842F08072E3
:100E50000260026812F0007FFBD0134A40F2057076
:100E60001060086820F003000860086840F0020085
:100E70000860086800F00C000828FAD10B49000649
:100E8000086002B07047000088ED00E000380240C2
:100E90000838024010300024403802400070004002
:100EA0000854400710540007003C024008ED00E0E1
:100EB00010B50E4C0121204600F01EF9002808BF95
:100EC00010BD0121204600F01EF80948418840F27B
:100ED000E732914205D3002141808188491C8180FD
:100EE00010BD4188491C418010BD0000000C00402D
:100EF000D00600200029018814BF41F0800121F0B4
:100F0000800101807047C94301827047C943018253
:100F100070470029018814BF41F0010121F001014F
:100F2000018070470029B0F8441014BF41F400411B
:100F3000C1F30E01A0F84410704710B5A0F1804134
:100F4000B1F5803132D0B0F1804F43D011F57C4102
:100F500036D0B1F5806147D0B1F580614ED0B1F5A2
:100F6000806155D0B1F580615CD0B1F5704163D03E
:100F7000B1F570516AD0B1F5806172D0B1F5806180
:100F80007AD011F598317DD0B1F580617BD0B1F583
:100F9000806118BF10BD01210802FFF7F3FDBDE815
:100FA000104000214FF48070FFF7ECBD012108468E
:100FB000FFF700FE0021BDE810400120FFF7FABD59
:100FC00001210220FFF7DEFD0021BDE810400220D4
:100FD000FFF7D8BD01210846FFF7D4FD0021BDE889
:100FE00010400120FFF7CEBD01210420FFF7CAFD0C
:100FF0000021BDE810400420FFF7C4BD01210820F6
:10100000FFF7C0FD0021BDE810400820FFF7BABD82
:1010100001211020FFF7B6FD0021BDE8104010208F
:10102000FFF7B0BD01212020FFF7ACFD0021BDE896
:1010300010402020FFF7A6BD01210220FFF7BAFDD6
:101040000021BDE810400220FFF7B4BD01210804D3
:10105000FFF7B0FDBDE8104000214FF48030FFF7EE
:10106000A9BD01214804FFF7A5FDBDE810400021FE
:101070004FF40030FFF79EBD01218804FFF79AFD71
:10108000002101E006E00FE0BDE810404FF48020B1
:10109000FFF790BD01214020FFF774FD0021BDE85E
:1010A00010404020FFF76EBD01218020FFF76AFD50
:1010B0000021BDE810408020FFF764BD30B40589F1
:1010C000B0F818C0048C25F0070529432CF0030C58
:1010D0002CF4407C40F201154CEA050C4FF6FF75EC
:1010E00005EA031324F022041A4322430181A0F8E5
:1010F00018C0028430BC7047038A002280890B42EA
:1011000000EA01001CBF0028012210467047002A97
:10111000828914BF114322EA01018181704710B412
:10112000028C22F001020284028C8388B0F818C07D
:101130000C882CF0730C44EA0C0C8C8922F002020F
:1011400022434C882243A0F18044B4F580341CBF74
:10115000A0F18044B4F582340DD1CC8922F008028C
:1011600022438C8822F0040222430C8A23F4407329
:1011700023434C8A23438380A0F818C089684163C5
:10118000028410BC7047028B22F0080211430183D5
:1011900070474163704741627047000010B4028895
:1011A0001C4BDFF874C0984218BF604511D0B0F1F5
:1011B000804F1CBFA0F18044B4F5806409D0A0F139
:1011C0008044B4F500641CBFA0F18044B4F54064D1
:1011D00003D14C8822F070022243A0F18044B4F580
:1011E00080541CBFA0F18044B4F5A05403D00C89F6
:1011F00022F44072224302804A68C2620A88028551
:10120000984212BF6045897A01860121818210BC13
:1012100070470000000001400004014010B50D4C73
:1012200040F22551204600F0B3F8002808BF10BD59
:101230000948C07830B9204600F028F90749C0B203
:10124000C96888472046BDE8104040F2255100F0AB
:101250008FB80000004C004065060020281D0020CB
:1012600010B50D4C40F22551204600F091F80028B1
:1012700008BF10BD0948007930B9204600F006F9D2
:101280000749C0B2096988472046BDE8104040F2CE
:10129000255100F06DB800000050004065060020A8
:1012A000281D002010B50D4C40F22551204600F0BD
:1012B0006FF8002808BF10BD0948007830B92046F3
:1012C00000F0E4F80749C0B2096888472046BDE845
:1012D000104040F2255100F04BB8000000100140D2
:1012E00065060020281D002010B50D4C40F2255148
:1012F000204600F04DF8002808BF10BD094840788E
:1013000030B9204600F0C2F80749C0B249688847A2
:101310002046BDE8104040F2255100F029B80000F9
:101320000044004065060020281D002010B50D4C2B
:1013300040F22551204600F02BF8002808BF10BDD0
:101340000948807830B9204600F0A0F80749C0B2BB
:10135000896888472046BDE8104040F2255100F0DA
:1013600007B800000048004065060020281D002046
:10137000090A012202FA01F1C943018070470029DC
:10138000818914BF41F4005121F4005181817047DB
:1013900010B401F01F020124C1F3421304FA02F257
:1013A0004FF0000C012B04BF83891A4004D0022B9C
:1013B0000CBF038A838A1A40090A008804FA01F1E3
:1013C0000840002A1CBF00284FF0010C604610BCEA
:1013D0007047000030B50446008A85B00D46C988C4
:1013E00020F4405008432082A089A9882A8920F44B
:1013F000037011436A8920F4A05010430843A08170
:10140000A08AA98920F440700843A0826846FFF7AB
:10141000DDFBA4F18040B0F588301BBFA4F1804013
:10142000B0F58A3003980298A18911F4004F00EBBF
:10143000C00101EB0010296814BF49008900B0FB0E
:10144000F1F0114A6FF0180CA2FB003149090901B3
:101450000B0903FB0CF300EB8300A38913F4004F8B
:101460004FF0320314BF03EBC00003EB0010A2FBEC
:1014700000204FEA501014BF00F0070000F00F00EA
:101480000843208105B030BD1F85EB518088C0F333
:1014900008007047FEE702E008C8121F08C1002AD2
:1014A000FAD170477047002001E001C1121F002AE5
:1014B000FBD1704770B51B4D297871B1411E8DB2BB
:1014C00038BF70BD0024FEF769FE601CC4B2642CF6
:1014D000F9D3691E8DB2F5D270BD012600242E709D
:1014E000002818BF4FF0E0221AD0B0F57A7F8CBFE9
:1014F0004FF47A7C844642F228310CFB01F15161B1
:1015000094611661116911F0010F02D011F4803F4E
:10151000F8D014619461A0EB0C000004000CE4D13D
:101520002C7070BDD00600202DE9F04101219CB047
:101530000802FFF733FB01210420FFF7FFFA012126
:101540008805FFF7FBFA03208DF86C0000241A9041
:101550008DF86F401AA92E48FFF743FA1694189495
:10156000179416A81994FEF78BFE0126294F8DF8C3
:101570004560109402258DF84460139412941494DD
:101580008DF8545010A93846FEF7A2FE0723012219
:101590000A213846FEF7C6FE072302220B213846F1
:1015A000FEF7C0FEDFF870804046FFF719F91B48D0
:1015B0000495CDE900401A48CDE902046802CDE95E
:1015C00005404000079080000890401109904002BB
:1015D000CDE90A04CDE90C64694640460E94FFF754
:1015E000C3F901214046FFF7F1F801213846FEF723
:1015F00066FE01213846FEF759FE01213846FEF706
:1016000036FE3846FEF7D6FE1CB0BDE8F08100007D
:101610000008024000200140106402404C200140BC
:101620002400002070B50B4D0024012155F8240042
:1016300000F086F9601CC4B2042CF6D30424022105
:1016400055F8240000F07CF9601CC4B2082CF6D3D5
:1016500070BD00003400002070B53C498CB00024FF
:101660000C804EF6E6604880022042F6631301EBE0
:10167000400242F2107C32F8022C02FB0CF2B2FB68
:10168000F3F221F81020401CC0B20D28EFD3012145
:101690000220FFF753FA02208DF81C0001028DF89A
:1016A0001D002B4D06918DF81E408DF81F4006A998
:1016B0002846FFF796F9032209212846FFF7DCF9AF
:1016C00001218804FFF76AFA2248ADF82240ADF8FC
:1016D000284000682049214DB0FBF1F0401EADF8D4
:1016E000200068891E4E099008A93046FFF756FD74
:1016F0006020ADF800000120ADF80200ADF80C400C
:10170000ADF810400420ADF80E40ADF81240ADF831
:101710000400A878029069463046FFF700FD0121D9
:101720003046FFF7E7FB08213046FFF72CFD01218B
:101730003046FFF7F7FB01213046FFF7EAFB0021B7
:101740003046FFF726FD0CB070BD00003C1D0020A8
:10175000000402401000002040420F0094060020C8
:101760000048014030B5244C8DB020886188884203
:101770003FD0224D296811F0806F3AD0616800EBAC
:10178000400001EB80000168426880680A91CDE961
:101790000B209DF82A20BDF82800009000208DF82D
:1017A00009008DF808008DF80A200DF12B010DF1CC
:1017B0000B00FEF70DFD9DE80F100DF1140E8EE8E5
:1017C0000F1005A90E48FEF7A1FF042808D02088B5
:1017D0004FF49671401CB0FBF1F201FB1200208027
:1017E000286810F0806F18BFFFF7BCFF01200DB014
:1017F00030BD0DB0002030BD2C000020086400403A
:10180000006400402DE9F04385B001210220FFF77C
:10181000C5F901210420FFF791F9DFF814910322A3
:1018200006214846FFF728F9032207214846FFF71B
:1018300023F901210420FFF78DF901210220FFF790
:101840007DF9DFF8F080022206214046FFF714F907
:10185000022207214046FFF70FF96846FFF721F9FA
:1018600002278DF8047000248DF80640C0268DF8FC
:101870000740032500968DF8055069464846FFF756
:10188000B0F86846FFF70DF98DF804708DF8064042
:101890008DF8074000968DF8055069464046FFF7E1
:1018A000A0F8254E01213046FFF730FB3046FFF708
:1018B00044FBADF808404FF6FF750395ADF81040B6
:1018C000ADF80A4002A93046FFF768FC1B4F012122
:1018D0003846FFF71BFB3846FFF72FFBADF80840F3
:1018E0000395ADF81040ADF80A4002A93846FFF75D
:1018F00055FC00231A4603213046FFF7DFFB002189
:101900003046FFF748FC01213046FFF702FB002379
:101910001A4603213846FFF7D1FB00213846FFF76E
:101920003AFC01213846FFF7F4FA05B0BDE8F08330
:10193000000802400004024000040140000800408A
:1019400000B583B000228DF8042082888DF807103E
:10195000009200686946FFF744F803B000BD00B587
:1019600083B001238DF804308DF8053083888DF81D
:10197000061000938DF8072000686946FFF731F8DC
:1019800003B000BD10B501210846FFF7D7F80121CB
:101990000220FFF7D3F801210420FFF7CFF801213F
:1019A0000820FFF7CBF801211020FFF7C7F801212D
:1019B0002020FFF7C3F801214020FFF7BFF80121E5
:1019C0008020FFF7BBF801210802FFF7B7F80121DB
:1019D0004802FFF7B3F80121BDE810408802FFF785
:1019E000ADB80A4681880068FFF764B810B50022D8
:1019F00011460448FFF7B3FFBDE81040002101483D
:101A0000FFF7EFBFE0350008FFF7C4F9FFF780F9F3
:101A1000FFF7B8FF01F0E8FCFFF786FD1F234FF644
:101A2000FF720021022000F0B9F9FFF7DFFFFFF796
:101A300013FEFFF7F7FDFFF7E5FE00F00BF84FF49C
:101A4000E131002001F006FD7821552000F024FA54
:101A5000FEE7000070B501218AB00846FFF79EF846
:101A600001210846FFF76AF802208DF824000320C0
:101A70002A4E8DF82500002505EB450006EBC00435
:101A8000207B50B12089089008A96068FEF7A9FF63
:101A9000618901226068FEF7EFFF681C10F0FF0506
:101AA000EAD04FF480700024ADF81C00ADF8164069
:101AB000A720ADF8140044F62060194D06908DF86B
:101AC0001E4005A92846FFF769FB6021ADF800100C
:101AD0000120ADF802004FF47A70ADF80C40ADF87B
:101AE00010400290ADF80E40ADF81240ADF8044041
:101AF00069462846FFF713FB01212846FFF743FB01
:101B000001212846FFF7F6F901212846FFF701FADF
:101B100001212846FFF706FA0AB070BDB80600207A
:101B20000000014010B5012001F002FC0A20FFF77F
:101B3000C1FC112001F0FCFB7820FFF7BBFCB120B9
:101B400001F0F6FB012001F021FC2C2001F01EFC2D
:101B50002D2001F01BFCB22001F0EAFB012001F076
:101B600015FC2C2001F012FC2D2001F00FFCB320FD
:101B700001F0DEFB012001F009FC2C2001F006FC45
:101B80002D2001F003FC012001F000FC2C2001F0CD
:101B9000FDFB2D2001F0FAFBB42001F0C9FB07206A
:101BA00001F0F4FBC02001F0C3FBA22001F0EEFB2A
:101BB000022001F0EBFB842001F0E8FBC12001F0E2
:101BC000B7FBC52001F0E2FBC22001F0B1FB0A2007
:101BD00001F0DCFB002001F0D9FBC32001F0A8FBE1
:101BE0008A2001F0D3FB2A2001F0D0FBC42001F0B1
:101BF0009FFB8A2001F0CAFBEE2001F0C7FBC52045
:101C000001F096FB0E2001F0C1FB362001F090FBA5
:101C1000C82001F0BBFBE02001F08AFB022001F0AC
:101C2000B5FB1C2001F0B2FB072001F0AFFB122036
:101C300001F0ACFB372001F0A9FB322001F0A6FB3C
:101C4000292001F0A3FB2D2001F0A0FB292001F0A9
:101C50009DFB252001F09AFB2B2001F097FB3920FA
:101C600001F094FB002001F091FB012001F08EFBBC
:101C7000032001F08BFB102001F088FBE12001F034
:101C800057FB032001F082FB1D2001F07FFB0720A2
:101C900001F07CFB062001F079FB2E2001F076FBA1
:101CA0002C2001F073FB292001F070FB2D2001F0A6
:101CB0006DFB2E2001F06AFB2E2001F067FB372020
:101CC00001F064FB3F2001F061FB002001F05EFBAE
:101CD000002001F05BFB022001F058FB102001F016
:101CE00055FB2A2001F024FB002001F04FFB0020CF
:101CF00001F04CFB002001F049FB7F2001F046FB86
:101D00002B2001F015FB002001F040FB002001F02A
:101D10003DFB002001F03AFB9F2001F037FB3A2009
:101D200001F006FB052001F031FB292001F000FB4A
:101D3000BDE810400A20FFF7BDBB70B505462A205C
:101D400001F0F6FA002001F021FB002001F01EFB5B
:101D5000002001F01BFB7F2001F018FB2B2001F07D
:101D6000E7FA002001F012FB002001F00FFB002039
:101D700001F00CFB9F2001F009FB2C2001F0D8FAA8
:101D800000242E0A304601F001FBE8B201F0FEFA11
:101D9000601C84B2B4F5A04FF4D370BD2DE9F05FA0
:101DA000394D4FF000091F4685F8049014468846C7
:101DB000064685F8059001F031FA85F80490DFF8C1
:101DC000CC904FF480414846FEF767FE6420FFF751
:101DD00071FB4FF480414846FEF761FE6420FFF737
:101DE00069FBFFF79FFE2C2001F0A2FAA5F80880FE
:101DF0006C81AF814046FFF7A0FF2E7016F0010FF7
:101E00004FF0A0014FF0800005D0A970E8701420B9
:101E1000A871082004E0E970A8701020A8710A20B9
:101E2000E871DFF86CB0002020210BF5C87E00EBD4
:101E3000C00202EB0012174B0BEBC20A0EEB0219A9
:101E40004FF0000C03EB02120CEB8C060AEB46077A
:101E500009EB8605002302EB8606F95425F81340AA
:101E600026F813805B1CDBB20A2BF6D90CF10103B8
:101E700003F0FF0CBCF1140FE6D9401CC0B20228DD
:101E8000D5D3BDE8F09F00005400002000040240BC
:101E900058150020081A00202DE9F04F9DB00D467E
:101EA00004460027002604EB0708A819C1B208F071
:101EB000FF00002201F05CF9701CC6B2272EF4D39B
:101EC000781CC7B22F2FEDD30F266F1CA019F9B2C3
:101ED000C0B2102201F04CF9701CC6B22D2EF5D301
:101EE0000E26E81C05F102081690A71908F0FF015C
:101EF000F8B2102201F03CF916981022C1B2F8B2E3
:101F000001F036F9701CC6B22C2EEED3281D1590A8
:101F1000A81D0D260E90681D13901598A719C1B223
:101F2000F8B2102201F024F913981022C1B2F8B2CD
:101F300001F01EF90E981022C1B2F8B201F018F9A2
:101F4000701CC6B22B2EE8D3E81D1290401C0C2644
:101F50000190401C08901298A719C1B2F8B2102243
:101F600001F006F901981022C1B2F8B201F000F9AF
:101F700008981022C1B2F8B201F0FAF8701CC6B28B
:101F80002A2EE8D305F10B000B260690401E029086
:101F9000C1B2A719F8B2102201F0EAF8069810228F
:101FA000C1B2F8B201F0E4F8701CC6B2292E38BFF5
:101FB0000298EDD305F10F00471E1090801E4FF0E0
:101FC0000A08461E009004EB0809F1B209F0FF0070
:101FD000102201F0CDF800981022C1B209F0FF00E4
:101FE00001F0C6F8F9B209F0FF00102201F0C0F8C4
:101FF00010981022C1B209F0FF0001F0B9F808F101
:10200000010000F0FF08B8F1280FDCD305F1100043
:102010000F90401C4FF0090805F1120B03900F9828
:1020200004EB0809C1B209F0FF00102201F0A0F88A
:1020300003981022C1B209F0FF0001F099F80BF0EB
:10204000FF0109F0FF00102201F092F808F10100F1
:1020500000F0FF08B8F1270FE1D305F113004FF0AE
:10206000080805F1140A0990099804EB0809C1B29F
:1020700009F0FF00102201F07BF80AF0FF0109F0DF
:10208000FF00102201F074F808F1010000F0FF08D1
:10209000B8F1260FE8D30720049005F116000A9046
:1020A000401E05F1180905F117080590C1B2049802
:1020B000102220440790C0B201F05AF80A9810226A
:1020C000C1B20798C0B201F053F8079808F0FF01B9
:1020D000C0B2102201F04CF8079809F0FF01C0B21D
:1020E000102201F045F80498401CC0B20490252845
:1020F00038BF0598DAD30E984AF65552C1B204F1AA
:1021000010000490C0B201F033F8112007900E982F
:102110004FF6FF72C1B207982044C0B201F028F810
:102120000798401CC0B207902428F0D30F200790D6
:1021300012984FF6FF72C1B207982044C0B201F066
:1021400017F80798401CC0B207902528F0D30198D3
:1021500045F2AA22C1B204F10E000C90C0B201F007
:1021600007F80F20079001984FF6FF72C1B2079849
:102170002044C0B200F0FCFF0798401CC0B207909A
:102180002528F0D301984AF65552C1B204F1250032
:102190001A90C0B200F0ECFF0E20019008984FF6A4
:1021A000FF72C1B201982044C0B200F0E1FF019873
:1021B000401CC0B201902628F0D30E200190029856
:1021C0004FF6FF72C1B201982044C0B200F0D0FFB8
:1021D0000198401CC0B201901428F0D302984AF62E
:1021E0005552C1B204F114000190C0B200F0C0FF1A
:1021F00002984AF65552C1B204F11C000890C0B2D0
:1022000000F0B6FF1F20079002984FF6FF72C1B290
:1022100007982044C0B200F0ABFF0798401CC0B242
:1022200007902628F0D30E20029006984FF6FF72F2
:10223000C1B202982044C0B200F09AFF0298401C3C
:10224000C0B202901428F0D306984AF65552C1B293
:102250000898C0B200F08CFF069845F2AA22C1B2DD
:1022600004F11D000790C0B200F082FF2020029010
:1022700006984FF6FF72C1B202982044C0B200F037
:1022800077FF0298401CC0B202902628F0D304F1D8
:102290000D001190F1B2C0B24AF6555200F068FF3D
:1022A0000E2002902044F1B2C0B24FF6FF7200F04F
:1022B0005FFF0298401CC0B202901328F2D304F1D1
:1022C00013000290F1B2C0B245F2AA2200F050FF12
:1022D00004F115000B90F1B2C0B24FF6FF7200F09E
:1022E00047FF1E2006902044F1B2C0B24FF6FF72A5
:1022F00000F03EFF0698401CC0B206902628F2D39C
:102300000D2600984FF6FF72C1B2A019C0B200F0BE
:102310002FFF701CC6B2132EF3D300984AF6555205
:10232000C1B20298C0B200F023FF00984FF6FF72CE
:10233000C1B20898C0B200F01BFF00984FF6FF72C0
:10234000C1B20798C0B200F013FF202600984FF6E4
:10235000FF72C1B2A019C0B200F00AFF701CC6B271
:10236000262EF3D30D26A019F9B2C0B24FF6FF7294
:1023700000F0FEFE701CC6B2132EF4D30298F9B220
:10238000C0B245F2AA2200F0F3FE0198F9B2C0B241
:1023900045F2AA2200F0ECFE0898F9B2C0B24AF663
:1023A000555200F0E5FE04F11F000890F9B2C0B2EA
:1023B0004AF6555200F0DCFE2026A019F9B2C0B250
:1023C0004FF6FF7200F0D4FE701CC6B2262EF4D376
:1023D0000C20069010984FF6FF72C1B2069826188E
:1023E000F0B200F0C5FE0F984FF6FF72C1B2F0B226
:1023F00000F0BEFE03984FF6FF72C1B2F0B200F0DB
:10240000B7FE0698401CC0B206901228E2D30B20FB
:10241000069026180BF0FF01F0B24FF6FF7200F0A5
:10242000A7FE09984FF6FF72C1B2F0B200F0A0FE0D
:102430000AF0FF01F0B24FF6FF7200F099FE069825
:10244000401CC0B206901128E3D30A2006900598DC
:102450004FF6FF72C1B206982618F0B200F088FE5F
:102460000A984FF6FF72C1B2F0B200F081FE0698F2
:10247000401CC0B206901028E9D30A26A01908F023
:10248000FF01C0B24FF6FF7200F072FE701CC6B2C0
:102490000F2EF3D30926A01909F0FF01C0B24FF6A1
:1024A000FF7200F065FE701CC6B20F2EF3D3092038
:1024B000069005F11900461C0D900D984FF6FF721D
:1024C000C1B2069820440790C0B200F051FE0798B0
:1024D000F1B2C0B24FF6FF7200F04AFE0698401CFF
:1024E000C0B206900E28E8D31520069010984FF63B
:1024F000FF72C1B206982044C0B200F039FE0698BF
:10250000401CC0B206902628F0D3142006900F98E5
:102510004FF6FF72C1B206982044C0B200F028FE08
:102520000698401CC0B206902628F0D314200690CE
:1025300003984FF6FF72C1B206982044C0B200F073
:1025400017FE0698401CC0B206902528F0D315202F
:10255000069020440BF0FF01C0B24FF6FF7200F06E
:1025600007FE0698401CC0B206902428F1D315201F
:10257000069009984FF6FF72C1B206982044C0B287
:1025800000F0F6FD0698401CC0B206901D28F0D35E
:1025900015200690204407900AF0FF01C0B24FF6C4
:1025A000FF7200F0E5FD05984FF6FF72C1B2079883
:1025B000401CC0B200F0DCFD0A984FF6FF72C1B2B9
:1025C0000798801CC0B200F0D3FD079808F0FF0107
:1025D000C01CC0B24FF6FF7200F0CAFD0698401C46
:1025E000C0B206901E28D5D319200690204409F0C9
:1025F000FF01C0B24FF6FF7200F0BAFD0698401C12
:10260000C0B206902128F1D31A2006900D984FF6FB
:10261000FF72C1B206982044C0B200F0A9FD06982E
:10262000401CC0B206902328F0D31B200690204403
:10263000F1B2C0B24FF6FF7200F09AFD0698401C4E
:10264000C0B206902328F2D3039845F2AA22C1B261
:1026500004F10B000790C0B200F08AFD03984AF61F
:102660005552C1B20B98C0B200F082FD04F11100C6
:102670000F900BF0FF01C0B245F2AA2200F078FDE6
:1026800004F1240018900BF0FF01C0B24AF6555235
:1026900000F06EFD1D20039009984AF65552C1B214
:1026A00003982044C0B200F063FD0398401CC0B200
:1026B00003902228F0D3099845F2AA22C1B204F16E
:1026C00022001B90C0B200F053FD04F10A001490E8
:1026D0000AF0FF01C0B24AF6555200F049FD04F17C
:1026E000120003900AF0FF01C0B24FF6FF7200F033
:1026F0003FFD05984AF65552C1B20498C0B200F0A9
:1027000037FD05984FF6FF72C1B20198C0B200F0D4
:102710002FFD0A984FF6FF72C1B20398C0B200F0C5
:1027200027FD0A984AF65552C1B20398C0B200F08C
:102730001FFD04F10900179008F0FF01C0B245F237
:10274000AA2200F015FD04F12100199009F0FF0103
:10275000C0B24AF6555200F00BFD0D9845F2AA2280
:10276000C1B20C98C0B200F003FD04F1080006905D
:10277000F1B2C0B24AF6555200F0FAFC04F123005F
:102780001C90F1B2C0B245F2AA2200F0F1FC1698FA
:102790001F22C1B204F10F000590C0B200F0E8FCA6
:1027A00015981F22C1B20F98C0B200F0E1FC139837
:1027B0001F22C1B20498C0B200F0DAFC13981F22A5
:1027C000C1B21C98C0B200F0D3FC0E981F22C1B257
:1027D00004F126001390C0B200F0CAFC0E981F222C
:1027E000C1B204F13100C0B200F0C2FC12981F2245
:1027F000C1B204F127000E90C0B200F0B9FC0798F6
:10280000F9B2C0B21F2200F0B3FC00981F22C1B27F
:102810000198C0B200F0ACFC0E98F9B2C0B21F2211
:1028200000F0A6FC10981F22C1B20E98C0B200F0B2
:102830009FFC01980BF0FF01C0B21F2200F098FC32
:102840001A980BF0FF01C0B21F2200F091FC09980A
:102850001F22C1B21398C0B200F08AFC1B980AF084
:10286000FF01C0B21F2200F083FC18980AF0FF019C
:10287000C0B21F2200F07CFC0A981F22C1B2199836
:10288000C0B200F075FC069808F0FF01C0B21F222C
:1028900000F06EFC019808F0FF01C0B21F2200F0AA
:1028A00067FC0B9808F0FF01C0B21F2200F060FC2B
:1028B000199808F0FF01C0B21F2200F059FC0698D9
:1028C00009F0FF01C0B21F2200F052FC0F9809F07E
:1028D000FF01C0B21F2200F04BFC04F116000A9069
:1028E00009F0FF01C0B21F2200F042FC189809F065
:1028F000FF01C0B21F2200F03BFC0D981F22C1B2A5
:10290000E01D0E90C0B200F033FC0D981F22C1B242
:1029100004F118000990C0B200F02AFC0E98F1B240
:10292000C0B21F2200F024FC0598F1B2C0B21F22F1
:1029300000F01EFC0398F1B2C0B21F2200F018FC98
:102940000298F1B2C0B21F2200F012FC0A98F1B254
:10295000C0B21F2200F00CFC04F117001090F1B27D
:10296000C0B21F2200F004FC0998F1B2C0B21F22CD
:1029700000F0FEFB05F11C00C1B20090A01D1590F7
:10298000C0B24FF6FF7200F0F3FB00984FF6FF72F3
:10299000C1B21498C0B200F0EBFB00984FF6FF7282
:1029A000C1B20798C0B200F0E3FB00984FF6FF7287
:1029B000C1B21198C0B200F0DBFB00984FF6FF7275
:1029C000C1B20F98C0B200F0D3FB00984FF6FF726F
:1029D000C1B20198C0B200F0CBFB00984FF6FF7275
:1029E000C1B21098C0B200F0C3FB00984FF6FF725E
:1029F000C1B20998C0B200F0BBFB1B2600984FF68D
:102A0000FF72C1B2A019C0B200F0B2FB701CC6B216
:102A1000242EF3D3601D05F11D0A12900AF0FF0168
:102A2000C0B24FF6FF7200F0A3FB15980AF0FF0149
:102A3000C0B24FF6FF7200F09BFB17980AF0FF013F
:102A4000C0B24FF6FF7200F093FB04F10C000D9042
:102A50000AF0FF01C0B24FF6FF7200F089FB119837
:102A60000AF0FF01C0B24FF6FF7200F081FB04983C
:102A70000AF0FF01C0B24FF6FF7200F079FB0F9829
:102A80000AF0FF01C0B24FF6FF7200F071FB02982E
:102A90000AF0FF01C0B24FF6FF7200F069FB019827
:102AA0000AF0FF01C0B24FF6FF7200F061FB0A9816
:102AB0000AF0FF01C0B24FF6FF7200F059FB109808
:102AC0000AF0FF01C0B24FF6FF7200F051FB099807
:102AD0000AF0FF01C0B24FF6FF7200F049FB1A2660
:102AE000A0190AF0FF01C0B24FF6FF7200F040FBE0
:102AF000701CC6B21D2EF3D31D26A0190AF0FF01CB
:102B0000C0B24FF6FF7200F033FB701CC6B2232E2A
:102B1000F3D3129805F11E0909F0FF01C0B24FF678
:102B2000FF7200F025FB159809F0FF01C0B24FF6C7
:102B3000FF7200F01DFB069809F0FF01C0B24FF6CE
:102B4000FF7200F015FB179809F0FF01C0B24FF6B5
:102B5000FF7200F00DFB0D9809F0FF01C0B24FF6B7
:102B6000FF7200F005FB119809F0FF01C0B24FF6AB
:102B7000FF7200F0FDFA059809F0FF01C0B24FF6B0
:102B8000FF7200F0F5FA049809F0FF01C0B24FF6A9
:102B9000FF7200F0EDFA029809F0FF01C0B24FF6A3
:102BA000FF7200F0E5FA019809F0FF01C0B24FF69C
:102BB000FF7200F0DDFA0A9809F0FF01C0B24FF68B
:102BC000FF7200F0D5FA109809F0FF01C0B24FF67D
:102BD000FF7200F0CDFA04F11A00139009F0FF0122
:102BE000C0B24FF6FF7200F0C3FA04F11B00179059
:102BF00009F0FF01C0B24FF6FF7200F0B9FA04F11C
:102C0000200709F0FF01F8B24FF6FF7200F0B0FAAA
:102C1000052605F11F0BA0190BF0FF01C0B24FF6FE
:102C2000FF7200F0A5FA701CC6B20A2EF3D30B2671
:102C3000A0190BF0FF01C0B24FF6FF7200F098FA36
:102C4000701CC6B2102EF3D302980BF0FF01C0B275
:102C50004FF6FF7200F08CFA01980BF0FF01C0B242
:102C60004FF6FF7200F084FA0A980BF0FF01C0B231
:102C70004FF6FF7200F07CFA10980BF0FF01C0B223
:102C80004FF6FF7200F074FA04F119000F900BF088
:102C9000FF01C0B24FF6FF7200F06AFA13980BF012
:102CA000FF01C0B24FF6FF7200F062FA17980BF006
:102CB000FF01C0B24FF6FF7200F05AFA08980BF00D
:102CC000FF01C0B24FF6FF7200F052FA0BF0FF01A5
:102CD000F8B24FF6FF7200F04BFA042605F1200817
:102CE000A01908F0FF01C0B24FF6FF7200F040FAE1
:102CF000701CC6B20A2EF3D3079808F0FF01C0B2C9
:102D00004FF6FF7200F034FA0D9808F0FF01C0B2E0
:102D10004FF6FF7200F02CFA0C9808F0FF01C0B2D9
:102D20004FF6FF7200F024FA059808F0FF01C0B2D8
:102D30004FF6FF7200F01CFA039808F0FF01C0B2D2
:102D40004FF6FF7200F014FA029808F0FF01C0B2CB
:102D50004FF6FF7200F00CFA0B9808F0FF01C0B2BA
:102D60004FF6FF7200F004FA0A9808F0FF01C0B2B3
:102D70004FF6FF7200F0FCF9139808F0FF01C0B2A3
:102D80004FF6FF7200F0F4F9179808F0FF01C0B297
:102D90004FF6FF7200F0ECF9089808F0FF01C0B29E
:102DA0004FF6FF7200F0E4F908F0FF01F8B24FF6B9
:102DB000FF7200F0DDF9201D05F121071690F9B230
:102DC000C0B24FF6FF7200F0D3F91298F9B2C0B258
:102DD0004FF6FF7200F0CCF90E98F9B2C0B24FF680
:102DE000FF7200F0C5F90698F9B2C0B24FF6FF7253
:102DF00000F0BEF90798F9B2C0B24FF6FF7200F0CA
:102E0000B7F90D98F9B2C0B24FF6FF7200F0B0F901
:102E10000C98F9B2C0B24FF6FF7200F0A9F905980C
:102E2000F9B2C0B24FF6FF7200F0A2F90398F9B2FE
:102E3000C0B24FF6FF7200F09BF90298F9B2C0B22F
:102E40004FF6FF7200F094F90B98F9B2C0B24FF64A
:102E5000FF7200F08DF90A98F9B2C0B24FF6FF7216
:102E600000F086F90F98F9B2C0B24FF6FF7200F089
:102E70007FF91398F9B2C0B24FF6FF7200F078F9FB
:102E80001798F9B2C0B24FF6FF7200F071F904F171
:102E90001E000A90F9B2C0B24FF6FF7200F068F956
:102EA0000898F9B2C0B24FF6FF7200F061F9E01C69
:102EB0007E1C1790F1B2C0B24FF6FF7200F058F9C5
:102EC0001698F1B2C0B24FF6FF7200F051F91298A5
:102ED000F1B2C0B24FF6FF7200F04AF90E98F1B2AB
:102EE000C0B24FF6FF7200F043F90698F1B2C0B2DB
:102EF0004FF6FF7200F03CF91498F1B2C0B24FF6F1
:102F0000FF7200F035F90798F1B2C0B24FF6FF72C8
:102F100000F02EF90C98F1B2C0B24FF6FF7200F03B
:102F200027F90598F1B2C0B24FF6FF7200F020F910
:102F30000398F1B2C0B24FF6FF7200F019F902988F
:102F4000F1B2C0B24FF6FF7200F012F90198F1B27F
:102F5000C0B24FF6FF7200F00BF90B98F1B2C0B29D
:102F60004FF6FF7200F004F90998F1B2C0B24FF6C3
:102F7000FF7200F0FDF80F98F1B2C0B24FF6FF7289
:102F800000F0F6F81398F1B2C0B24FF6FF7200F0FD
:102F9000EFF80A98F1B2C0B24FF6FF7200F0E8F80D
:102FA0000898F1B2C0B24FF6FF7200F0E1F817983E
:102FB000741CE1B2C0B24FF6FF7200F0D9F8169857
:102FC000E1B2C0B24FF6FF7200F0D2F80E98E1B253
:102FD000C0B24FF6FF7200F0CBF80298E1B2C0B277
:102FE0004FF6FF7200F0C4F80198E1B2C0B24FF69C
:102FF000FF7200F0BDF80998E1B2C0B24FF6FF725F
:1030000000F0B6F800984AF65552C1B21298C0B214
:1030100000F0AEF800984AF65552C1B20D98C0B211
:1030200000F0A6F800984AF65552C1B20498C0B212
:1030300000F09EF806980AF0FF01C0B24AF6555219
:1030400000F096F8089809F0FF01C0B24AF6555210
:1030500000F08EF816980BF0FF01C0B24AF65552F8
:1030600000F086F8109808F0FF01C0B24AF65552F9
:1030700000F07EF81498E1B2C0B24AF6555200F062
:1030800077F80798E1B2C0B24AF6555200F070F8EE
:103090000C98E1B2C0B24AF6555200F069F80598B2
:1030A000E1B2C0B24AF6555200F062F80398E1B2BC
:1030B000C0B24AF6555200F05BF80F98E1B2C0B2C8
:1030C0004AF6555200F054F80A98E1B2C0B24AF6F6
:1030D000555200F04DF80898E1B2C0B24AF6555288
:1030E00000F046F8009845F2AA22C1B20E98C0B28C
:1030F00000F03EF80F9809F0FF01C0B245F2AA2295
:1031000000F036F8119808F0FF01C0B245F2AA228B
:1031100000F02EF80F9808F0FF01C0B245F2AA2285
:1031200000F026F80998F9B2C0B245F2AA2200F0E0
:103130001FF81598E1B2C0B245F2AA2200F018F8C3
:103140000D98F1B2C0B245F2AA2200F011F804982D
:10315000F1B2C0B245F2AA2200F00AF804981DB0FC
:10316000E1B2BDE8F04FC0B245F2AA22AFF3008051
:103170008446154810B5007814460B46002808BF51
:10318000604616D0012804D0022807D003280CD0AE
:1031900011E0C1F17F00C0B261460AE0C1F19F00B9
:1031A000C1B2CCF17F00C0B203E0CCF19F00C1B24C
:1031B000184600F00BF8200A00F0E8F8E0B2BDE88D
:1031C000104000F0E3B800005400002070B5054640
:1031D0000C462A2000F0ACF8002000F0D7F8284672
:1031E00000F0D4F8002000F0D1F8681CC0B200F064
:1031F000CDF82B2000F09CF8002000F0C7F8204606
:1032000000F0C4F8002000F0C1F8601CC0B200F06B
:10321000BDF8BDE870402C2000F08AB82DE9F041DF
:1032200088B001210220FDF789FC01210420FDF76F
:1032300085FC01218803FDF78DFC01218803FDF742
:1032400095FCDFF8E08005220D214046FDF714FCD7
:1032500005220F214046FDF70FFC00248DF80640A3
:1032600001254FF480408DF8045000908DF8074000
:103270008DF8055069464046FDF7B3FB8DF80640D2
:103280008DF804506F028DF8074000978DF80550B7
:1032900069462548FDF7A5FB8DF8064002264FF448
:1032A00020408DF8046000908DF807408DF805608F
:1032B00069464046FDF795FB8DF8064028038DF8DA
:1032C000045000908DF807408DF80560694640462F
:1032D000FDF787FBADF808404FF48270ADF80A00A7
:1032E0000820ADF81400ADF80C40ADF816400F4CB6
:1032F000ADF81050ADF80E60ADF8127002A920467E
:10330000FDF7D1FC01212046FDF7B9FC0021204644
:10331000FDF7ACFC00212046FDF7EFFC08B0BDE84E
:10332000F081000000040240000802400038004024
:1033300070B5134D06464FF480512846FDF7ADFB9E
:1033400069151048FDF7A9FB0F4C02212046FDF737
:103350009FFC0028F9D031462046FDF7A2FC012150
:103360002046FDF795FC0028F9D02046FDF797FC94
:103370002846BDE870404FF48051FDF790BB000037
:1033800000040240000802400038004070B5134DB0
:1033900006464FF480512846FDF77FFB691510481B
:1033A000FDF77DFB0F4C02212046FDF771FC002844
:1033B000F9D031462046FDF774FC01212046FDF787
:1033C00067FC0028F9D02046FDF769FC2846BDE8D7
:1033D00070404FF48051FDF762BB000000040240D2
:1033E000000802400038004010B584B001210820D8
:1033F000FDF7B0FB4FF47A7002905320134CADF8F8
:10340000040001A92046FDF7C9FE01212046FDF771
:103410007DFD012211462046FDF779FE012120465F
:10342000FDF777FD00248DF801408DF80240012062
:103430008DF8030032208DF800006846FDF742FB4E
:1034400003488480448004B010BD0000000C00409C
:10345000D006002070B50E4604463948394986B07A
:1034600050F8240051F8241008430121FDF766FBB1
:10347000354D3648002C44D0012C51D050F8240052
:103480000121FDF767FB324D07220A212846FDF78F
:10349000F3FA07220B212846FDF7EEFA02208DF8F9
:1034A00014002C482C49002530F8140031F8141071
:1034B0000843049003208DF815008DF81650012064
:1034C0008DF81700254804A950F82400FDF789FA63
:1034D000ADF80450ADF80650ADF80850ADF80C50FA
:1034E0001F4D0C200096ADF80A0055F824006946DF
:1034F000FDF770FF55F824000121FDF740FF06B0ED
:1035000070BD00680121FDF749FB0722092128460B
:10351000FDF7B2FA07220A212846FDF7ADFABDE70A
:1035200040680121FDF716FB072202212846FDF71E
:10353000A3FA072203212846FDF79EFAAEE7000012
:10354000783500088C35000800000240643500081A
:1035500000040240A0350008AA35000880060020BB
:103560006C060020100000000000020000000400B3
:103570000000000000000000010000000100000049
:103580000200000000000000000000000100000038
:103590000100000002000000000000000000000028
:1035A00000020400000400000000000408000008FD
:1035B0000000000025002600270000000000000099
:1035C0000000024010000000000002402000000047
:1035D00000000240400000000000024080000000A7
:1035E0000008024010000000000802400004000033
:1035F000000802400008000000080240001000001F
:10360000000C0240040000002836000800000020E2
:10361000D80600001802000844390008D806002027
:10362000981E0000A6140008412D01020304041591
:1036300006070809847A030A7914B113D8061420FE
:10364000E8351B08F0041AF8041112361B08C008EC
:103650001AC8041AD0042AD814021E011008183CF3
:103660003C3C181818190341E5666666243D6C6CED
:10367000FE6C04392E580B187CC6C2C07C0686C668
:103680007C31216009C2C60C183060C686500B38E8
:103690006C6C3876DCCCCCCC76D530303060192CE4
:1036A000390163180C19093901931830AE663CFFD3
:1036B0003C66A37B187E6D89149931110A11FED8DE
:1036C00079322B0206A063C080580B7CC6C6CED6CA
:1036D000D6E6C6C67C281B38784C19016A7E20497C
:1036E0002F5AC65419106E063C060606301F0C1CD5
:1036F0003C6CCCFEB15A1E7B8EC0C0C0FC0E201BA1
:103700003860101AC60159101AFE4049F479802A0F
:10371000C6046920290C1A7E60BB0C78BA99F1594D
:103720001069EF399FA530180C0619AB59AE313925
:103730001C292479601A0CDE895119115EDEDEDE47
:10374000DCC0802F10386CC6C6FE91611EFC666618
:10375000667C046366FC1C3C66C2E265C0C2663CD3
:103760002BF86C1D5D66666CF87C5809666268789B
:10377000686062668259109C6060F04066DEC6C672
:10378000663A296A396F59701A3C9D390159602B84
:103790001E0C0165CCCCCC781FE6666C6C78787515
:1037A00062E61AF05B190179709EC6EEFEFED650F5
:1037B0008FC6E6F6FEDECE1029DF29019B6C38E0CD
:1037C000294259A04A7C1F7ED6DE7C0C0E2029E4BB
:1037D00059701920600860380C06C6C67CBC7E7E15
:1037E0005AB0493F19015920590E9C6C3810106E7F
:1037F000D6D6FE6C6C101E6C6C38386C9661196AEB
:103800009B663C50580AFEC6860C183060C2C6E063
:103810005B3C3001592011580A80C0E070381C0E02
:103820000602205A0C0139201A10EF011922FF0458
:10383000123030186008780C7CCCCCCC762EE0604E
:1038400060786C9592DC6E7CC6C0C0C0E01A1C6AC1
:103850001A6C2F693039208AFE201F386C6460F0A2
:10386000600192F02A762F4ECC7C0CCC78602B6CC9
:10387000766062E61318181A38FE5B1818E0130613
:10388000063B0E06012B66661319301C666C789396
:103890005930492D8930312CECFED601912ADC5F5C
:1038A0009B6666A0290159A079207A7CA369A05B58
:1038B0000C1E20BB7662C06E7CC660380C401E10A9
:1038C0003030FC300193361C393F93CC76395F930E
:1038D0003C18197D8DD6D6FE6C10AF6C3838386C1C
:1038E000C6201901657E060CF86008FECC18306011
:1038F000C6FE1A0EEB2A70F0620E290B39055960CC
:10390000291C29245B1870CDC2DCCAFF0141720159
:1039100014100140124412401A48041A4C041A5060
:1039200004114A02042A04088172646939A1320C24
:1039300013561D622019343B010826131F111B0862
:04394000930481006B
:040000050800018965
:00000001FF
