:020000040800F2
:1000000050900020AD010008050700080107000816
:10001000030700084B020008790D000800000000EB
:10002000000000000000000000000000810800083F
:1000300035060008000000007D070008830800085E
:10004000C7010008C7010008C7010008C701000870
:10005000C7010008C7010008C7010008C701000860
:10006000C7010008C7010008C7010008C701000850
:10007000C7010008C7010008C7010008C701000840
:10008000C7010008C7010008C7010008F102000805
:100090004D020008C7010008C7010008C701000899
:1000A000C7010008C7010008C7010008C701000810
:1000B000C7010008C7010008C7010008C701000800
:1000C000C7010008C7010008C7010008C7010008F0
:1000D000C7010008550C0008990C0008DD0C000849
:1000E000C7010008C7010008C7010008C7010008D0
:1000F000C7010008C7010008C7010008C7010008C0
:10010000C7010008C7010008250A0008C701000848
:10011000CD0B0008110C0008C7010008C70100083A
:10012000C7010008C7010008C7010008C70100088F
:10013000C7010008C7010008C7010008C70100087F
:10014000C7010008C7010008C7010008C70100086F
:10015000C7010008C7010008C7010008C70100085F
:10016000C7010008C7010008C7010008C70100084F
:10017000C7010008C7010008C7010008C70100083F
:10018000C7010008C7010008DFF80CD000F020F814
:10019000004800471D110008509000204FF07300E8
:1001A000A0F101000028FBD17047000006488047FD
:1001B00006480047FEE7FEE7FEE7FEE7FEE7FEE74C
:1001C000FEE7FEE7FEE7FEE70909000889010008EF
:1001D000064C074D06E0E06840F0010394E8070094
:1001E00098471034AC42F6D3FFF7D2FFC42A000878
:1001F000E42A000870B58C1810F8015B15F00703AD
:1002000001D110F8013B2A1106D110F8012B03E0AF
:1002100010F8016B01F8016B5B1EF9D12B0705D4B7
:100220000023521E0DD401F8013BFAE710F8013B00
:10023000CB1A921C03E013F8015B01F8015B521E1C
:10024000F9D5A142D8D3002070BDFEE710B5244CEB
:1002500086B00221204600F0ADF8002804BF06B0A9
:1002600010BD0221204600F057F801AA00212046C7
:1002700000F026F99DF80C0000281CBF06B010BD48
:100280009DF81700174C2178884238BF1C280CD2E3
:10029000154951F820C0BCF1000F06D005980DF1AA
:1002A000040E00909EE80F00E04710490198086096
:1002B0009DF80E2000200A71002A88BF01AA0AD9E1
:1002C000131801EB000CDB7A8CF80530401C0B791D
:1002D000C0B28342F4D86068401C606006B010BDB4
:1002E0000064004014000020C4830020B483002078
:1002F00010B5084C0121204600F05CF8002808BF2A
:1003000010BD0121204600F007F8BDE8104000F0C4
:1003100029BE00000064004010B4082304224FF0FE
:10032000100CB1F5007F40D021DC202902BF036111
:1003300010BC704710DC012901BF1D49816010BC51
:100340007047042902BFC36010BC7047082908BF6A
:10035000C0F80CC010BC7047402902BFC0F810C0E4
:1003600010BC7047B1F5807F1FD010BC70470024CF
:10037000B1F5004F08D00BDCB1F5806F15D0B1F5A9
:10038000006F1CBF10BC70478461426010BC704796
:10039000B1F5803F02BF436010BC7047B1F5003F2C
:1003A00008BFC0F804C010BC7047426010BC704762
:1003B00001010100436900220B427DD0B1F5807F2D
:1003C0005CD010DC082935D006DC012920D00229B8
:1003D00024D0042928D06FE0102931D0202935D02D
:1003E000402939D068E0B1F5004F5FD009DCB1F5A4
:1003F000007F49D0B1F5806F4CD0B1F5006F4FD080
:100400005AE0B1F5803F2DD0B1F5003F30D053E038
:1004100080682A49002208424DD14DE0C068002280
:1004200010F0030F47D147E0C068002210F0080F1A
:1004300041D141E0C068002210F0100F3BD13BE0F9
:100440000069002210F0030F35D135E00069002269
:1004500010F0080F2FD12FE00069002210F0100FCC
:1004600029D129E04068002210F0080F23D123E0B1
:100470004068002210F0100F1DD11DE0806900229D
:1004800010F0010F17D117E08069002210F0020F61
:1004900011D111E08069002210F0040F0BD10BE0A4
:1004A0008069002210F0700F05D105E0406800223D
:1004B00010F0040F00D00122104670470101010026
:1004C00000EB0113D3F8B0C11CF0040C82F808C093
:1004D000D3F8B0C107BF4FEA5C5CC2F800C04FEA76
:1004E000DC0CC2F804C0D3F8B0C10CF0020C82F8E6
:1004F00009C0D3F8B4C10CF00F0C82F80AC0D3F8CD
:10050000B4C14FEA1C2C82F813C0D3F8B8C182F8EA
:100510000BC0D3F8B8C14FEA1C2C82F80CC0D3F83A
:10052000B8C14FEA1C4C82F80DC0D3F8B8C14FEAED
:100530001C6C82F80EC0D3F8BCC182F80FC0D3F88F
:10054000BCC14FEA1C2C82F810C0D3F8BCC14FEAE2
:100550001C4C82F811C0D3F8BC311B0E937421B12E
:10056000016941F0200101617047C16841F020013B
:10057000C160704710B402460020936813F0806F8A
:100580003ED002EB0012D2F8803103F00103C2F832
:1005900080310B7A002B42D0D2F880C14C684CEAF3
:1005A000030391F809C04CEAC40C43EA0C03C2F8F7
:1005B00080318B7A03F00F038B72D2F8843123F0F1
:1005C0000F03C2F88431D2F8843191F80AC043EAAB
:1005D0000C03C2F88431CB7AD1F80CC043EA0C2367
:1005E000C2F88831CB7B096943EA0121C2F88C113A
:1005F000D2F8801141F00101C2F8801110BC70479F
:10060000906810F0006F18BF0120BAD1906810F008
:10061000805F14BF02200420B3D110BC7047D2F811
:10062000803191F809C043EA0C03B1F800C043EAF5
:100630004C53BCE770472DE9F00100220126032747
:100640000B6806FA02FC03EA0C03634538D105681F
:10065000530007FA03F4A54305600D79D0F8008034
:100660009D4045EA080505600D79012D18BF022D52
:1006700017D18568A54385604D79D0F808809D40E5
:1006800045EA08058560456825EA0C0CC0F804C0F9
:10069000D0F804C08D799540ADB24CEA050CC0F895
:1006A00004C0D0F80CC02CEA040CC0F80CC091F8BF
:1006B00007C00CFA03F3D0F80CC043EA0C03C36084
:1006C000521C102ABCD3BDE8F00170474B07DB0E6B
:1006D0009A40C90800EB8100016A4FF00F0C0CFA38
:1006E00003F399430162016A114301627047418338
:1006F000704701837047002A14BF0183418370470C
:10070000FEE7FEE77047000010B4C27801784FF0B2
:100710000F0C01241AB3184A126801F1E02102F407
:10072000E062C2F5E062C2F30722C2F104032CFAD0
:1007300002FC42789A40837803EA0C031A431201C0
:1007400081F80024007800F01F0104FA01F140094B
:10075000800000F1E020C0F8001110BC704701F0EB
:100760001F0004FA00F04909890001F1E021C1F8F5
:10077000800110BC704700000CED00E070470000E5
:10078000044A0029116814BF084321EA00001060E0
:100790007047000030380240044A0029116814BF35
:1007A000084321EA00001060704700004038024012
:1007B000044A0029116814BF084321EA00001060B0
:1007C0007047000060380240044A0029116814BFD5
:1007D000084321EA000010607047000044380240DE
:1007E0000029018814BF41F4005121F40051018017
:1007F00070470029018814BF41F0400121F04001F9
:10080000018070470246002012890A4218BF012069
:100810007047808970478181704710B402880B88C7
:10082000B1F802C0CC8843EA0C03B1F804C002F46A
:1008300041524CEA040C43EA0C03B1F808C043EA05
:100840000C03B1F80AC043EA0C03B1F80CC043EA48
:100850000C03B1F80EC043EA0C031A430280828BEA
:1008600022F400628283098A018210BC7047002949
:10087000818814BF41F0040121F004018180704798
:100880007047704730B41B4C20681B4D1B4910F05B
:100890000C0008D04FEA650C042808BFC1F800C05E
:1008A00002D008280BD00D602068154AC0F3031051
:1008B000105C0A6822FA00F0086030BC7047114AE8
:1008C0001068C0F380531068002B00F03F0014BF85
:1008D000BCFBF0F0B5FBF0F013681268C3F38813AB
:1008E0005843C2F30142521C5200B0FBF2F00860C0
:1008F000DAE70000083802400024F400000000207D
:1009000004000020043802403C4882B0016841F4F1
:10091000700101603A48016841F001010160394904
:100920004FF0000CC1F800C0026822F4102222F03F
:1009300080720260031D344A1A60026822F4802229
:1009400002600A1DC2F800C0CDF800C0CDF804C096
:10095000026842F480320260026802F400320192BE
:10096000009A521C0092019A1AB9009AB2F5A04F4F
:10097000F2D1026812F4003F1ABF01220192CDF8B1
:1009800004C0224AD2F800C04CF0805CC2F800C01B
:100990001F4AD2F800C04CF4404CC2F800C00A68AC
:1009A0000A600A6842F400420A600A6842F4A052EF
:1009B0000A60019A012A0CBF164A174A1A60026897
:1009C00042F080720260026812F0007FFBD0134A8E
:1009D00040F205701060086820F0030008600868A5
:1009E00040F002000860086800F00C000828FAD106
:1009F0000B490006086002B07047000088ED00E077
:100A000000380240083802401030002440380240CC
:100A1000007000400854400710540007003C02409A
:100A200008ED00E010B50E4C0121204600F03FF823
:100A3000002808BF10BD0121204600F01EF809481B
:100A4000418840F2E732914205D3002141808188FC
:100A5000491C818010BD4188491C418010BD0000A7
:100A6000000C0040AC0600200029018814BF41F0B2
:100A7000800121F0800101807047C94301827047E5
:100A8000C943018270470029018814BF41F0010168
:100A900021F00101018070470029B0F8441014BF13
:100AA00041F40041C1F30E01A0F844107047038ADD
:100AB000002280890B4200EA01001CBF00280122AD
:100AC00010467047002A828914BF114322EA0101AF
:100AD0008181704710B4028C22F001020284028CE2
:100AE0008388B0F818C00C882CF0730C44EA0C0C06
:100AF0008C8922F0020222434C882243A0F18044D8
:100B0000B4F580341CBFA0F18044B4F582340DD11B
:100B1000CC8922F0080222438C8822F0040222436E
:100B20000C8A23F4407323434C8A23438380A0F828
:100B300018C089684163028410BC7047028B22F0A0
:100B400008021143018370474163704710B4028863
:100B50001C4BDFF874C0984218BF604511D0B0F14B
:100B6000804F1CBFA0F18044B4F5806409D0A0F18F
:100B70008044B4F500641CBFA0F18044B4F5406427
:100B800003D14C8822F070022243A0F18044B4F5D6
:100B900080541CBFA0F18044B4F5A05403D00C894C
:100BA00022F44072224302804A68C2620A880285A7
:100BB000984212BF6045897A01860121818210BC6A
:100BC00070470000000001400004014010B50D4CCA
:100BD00040F22551204600F0AAF8002808BF10BDB9
:100BE0000948C07830B9204600F0C2F80749C0B2C1
:100BF000C96888472046BDE8104040F2255100F002
:100C00008FB80000004C004059060020048C0020E2
:100C100010B50D4C40F22551204600F088F8002810
:100C200008BF10BD0948007930B9204600F0A0F88F
:100C30000749C0B2096988472046BDE8104040F224
:100C4000255100F06DB8000000500040590600200A
:100C5000048C002010B50D4C40F22551204600F0C8
:100C600066F8002808BF10BD0948007830B9204652
:100C700000F07EF80749C0B2096888472046BDE801
:100C8000104040F2255100F04BB800000010014028
:100C900059060020048C002010B50D4C40F225515F
:100CA000204600F044F8002808BF10BD09484078ED
:100CB00030B9204600F05CF80749C0B2496888475F
:100CC0002046BDE8104040F2255100F029B8000050
:100CD0000044004059060020048C002010B50D4C43
:100CE00040F22551204600F022F8002808BF10BD30
:100CF0000948807830B9204600F03AF80749C0B278
:100D0000896888472046BDE8104040F2255100F030
:100D100007B800000048004059060020048C00205D
:100D2000090A012202FA01F1C9430180704710B497
:100D300001F01F020124C1F3421304FA02F24FF042
:100D4000000C012B04BF83891A4004D0022B0CBF76
:100D5000038A838A1A40090A008804FA01F10840CC
:100D6000002A1CBF00284FF0010C604610BC7047E1
:100D70008088C0F308007047FEE702E008C8121F31
:100D800008C1002AFAD170477047002001E001C174
:100D9000121F002AFBD1704770B51B4D297871B125
:100DA000411E8DB238BF70BD0024FFF7F7F9601CFB
:100DB000C4B2642CF9D3691E8DB2F5D270BD012680
:100DC00000242E70002818BF4FF0E0221AD0B0F592
:100DD0007A7F8CBF4FF47A7C844642F228310CFB38
:100DE00001F1516194611661116911F0010F02D096
:100DF00011F4803FF8D014619461A0EB0C00000462
:100E0000000CE4D12C7070BDAC060020F0B50024BD
:100E1000104E83B0012500950195002356F824005B
:100E20000222194600F004F9601CC4B2042CF2D36B
:100E300004240227CDE90075002356F8240002227D
:100E4000194600F0F5F8601CC4B2082CF2D303B0C8
:100E5000F0BD00002800002070B53C498CB0002493
:100E60000C804EF6E6604880022042F6631301EBE8
:100E7000400242F2107C32F8022C02FB0CF2B2FB70
:100E8000F3F221F81020401CC0B20D28EFD301214D
:100E90000220FFF775FC02208DF81C0001028DF87E
:100EA0001D002B4D06918DF81E408DF81F4006A9A0
:100EB0002846FFF7C0FB032209212846FFF706FC5E
:100EC00001218804FFF780FC2248ADF82240ADF8EC
:100ED000284000682049214DB0FBF1F0401EADF8DC
:100EE000200068891E4E099008A93046FFF72EFEA3
:100EF0006020ADF800000120ADF80200ADF80C4014
:100F0000ADF810400420ADF80E40ADF81240ADF839
:100F10000400A878029069463046FFF7DBFD012106
:100F20003046FFF7A1FD08213046FFF707FE0121FB
:100F30003046FFF7B1FD01213046FFF7A4FD002147
:100F40003046FFF701FE0CB070BD0000188C002089
:100F5000000402400000002040420F0088060020EC
:100F60000048014030B52F4C8FB0208861888842FE
:100F70000DD02D4D29682A68C1F38061C2F3C0628B
:100F800011442A68C2F300721144032902D00FB041
:100F9000002030BDA1680DF1180C01EB00100FC846
:100FA0008CE80F000698009000209DF81C108DF82A
:100FB00009008DF808000190481E8DF80A10C0B293
:100FC00024BF06A96A4608D30B1802EB000C5B7914
:100FD000401E8CF80B30C0B2F6D29DE80F100DF118
:100FE000280E8EE80F100AA91048FFF7C3FA04284C
:100FF00007D02088A188401CB0FBF1F201FB120051
:10100000208028682968C0F38060C1F3C06108446B
:101010002968C1F30071C84218BFFFF7A3FF012080
:101020000FB030BD1C000020086400400064004088
:101030002DE9F04182B00446DDE908509846164695
:101040000F4600281CBF204600F011F8A0888DF83C
:1010500005608DF804708DF8068000908DF80750BB
:1010600069462068FFF7E7FA02B0BDE8F081006842
:101070008105890D18BF70478012A0F58010803857
:101080000B2828BF7047DFE800F0060A0E12161A78
:101090001E2E22262A0001210846FFF771BB0121DE
:1010A0000220FFF76DBB01210420FFF769BB01217E
:1010B0000820FFF765BB01211020FFF761BB01216C
:1010C0002020FFF75DBB01214020FFF759BB012124
:1010D0000802FFF755BB01214802FFF751BB012170
:1010E0008802FFF74DBB70470A4681880068FFF70A
:1010F00002BB000000B583B00020009003460190C1
:10110000022201210448FFF793FF03B000210248A7
:101110005DF804EBFFF7E8BF9C2A0008FFF7F4FB3B
:10112000FFF7B0FB01F074FCFFF7E4FF1F234FF65D
:10113000FF720021022000F045F9FFF78DFEFFF756
:1011400065FE7821552000F0BBF9FEE710B50120BF
:1011500001F002FC0A20FFF71FFE112001F0FCFB4A
:101160007820FFF719FEB12001F0F6FB012001F015
:1011700021FC2C2001F01EFC2D2001F01BFCB220D4
:1011800001F0EAFB012001F015FC2C2001F012FC1B
:101190002D2001F00FFCB32001F0DEFB012001F057
:1011A00009FC2C2001F006FC2D2001F003FC01209D
:1011B00001F000FC2C2001F0FDFB2D2001F0FAFBDA
:1011C000B42001F0C9FB072001F0F4FBC02001F0BE
:1011D000C3FBA22001F0EEFB022001F0EBFB842018
:1011E00001F0E8FBC12001F0B7FBC52001F0E2FBF4
:1011F000C22001F0B1FB0A2001F0DCFB002001F06D
:10120000D9FBC32001F0A8FB8A2001F0D3FB2A20E0
:1012100001F0D0FBC42001F09FFB8A2001F0CAFB43
:10122000EE2001F0C7FBC52001F096FB0E2001F077
:10123000C1FB362001F090FBC82001F0BBFBE02091
:1012400001F08AFB022001F0B5FB1C2001F0B2FB8B
:10125000072001F0AFFB122001F0ACFB372001F0BA
:10126000A9FB322001F0A6FB292001F0A3FB2D20D1
:1012700001F0A0FB292001F09DFB252001F09AFB45
:101280002B2001F097FB392001F094FB002001F0A6
:1012900091FB012001F08EFB032001F08BFB10205D
:1012A00001F088FBE12001F057FB032001F082FBF5
:1012B0001D2001F07FFB072001F07CFB062001F0E0
:1012C00079FB2E2001F076FB2C2001F073FB292006
:1012D00001F070FB2D2001F06DFB2E2001F06AFB68
:1012E0002E2001F067FB372001F064FB3F2001F066
:1012F00061FB002001F05EFB002001F05BFB02209F
:1013000001F058FB102001F055FB2A2001F024FBCE
:10131000002001F04FFB002001F04CFB002001F009
:1013200049FB7F2001F046FB2B2001F015FB00203C
:1013300001F040FB002001F03DFB002001F03AFBF2
:101340009F2001F037FB3A2001F006FB052001F059
:1013500031FB292001F000FBBDE810400A20FFF717
:101360001BBD70B505462A2001F0F6FA002001F0F9
:1013700021FB002001F01EFB002001F01BFB7F2061
:1013800001F018FB2B2001F0E7FA002001F012FB1E
:10139000002001F00FFB002001F00CFB9F2001F06A
:1013A00009FB2C2001F0D8FA00242E0A304601F067
:1013B00001FBE8B201F0FEFA601C84B2B4F5A04F64
:1013C000F4D370BD2DE9F05F394D4FF000091F4691
:1013D00085F8049014468846064685F8059001F085
:1013E00031FA85F80490DFF8CC904FF480414846FC
:1013F000FFF77DF96420FFF7CFFC4FF480414846AA
:10140000FFF777F96420FFF7C7FCFFF79FFE2C205A
:1014100001F0A2FAA5F808806C81AF814046FFF781
:10142000A0FF2E7016F0010F4FF0A0014FF08000CA
:1014300005D0A970E8701420A871082004E0E970B4
:10144000A8701020A8710A20E871DFF86CB00020A5
:1014500020210BF5C87E00EBC00202EB0012174BF7
:101460000BEBC20A0EEB02194FF0000C03EB021259
:101470000CEB8C060AEB460709EB8605002302EB12
:101480008606F95425F8134026F813805B1CDBB25E
:101490000A2BF6D90CF1010303F0FF0CBCF1140F79
:1014A000E6D9401CC0B20228D5D3BDE8F09F0000A9
:1014B000480000200004024034840020E48800201A
:1014C0002DE9F04F9DB00D4604460027002604EBA1
:1014D0000708A819C1B208F0FF00002201F05CF96A
:1014E000701CC6B2272EF4D3781CC7B22F2FEDD3B1
:1014F0000F266F1CA019F9B2C0B2102201F04CF9EE
:10150000701CC6B22D2EF5D30E26E81C05F102087C
:101510001690A71908F0FF01F8B2102201F03CF96B
:1015200016981022C1B2F8B201F036F9701CC6B29A
:101530002C2EEED3281D1590A81D0D260E90681D8B
:1015400013901598A719C1B2F8B2102201F024F92E
:1015500013981022C1B2F8B201F01EF90E981022B1
:10156000C1B2F8B201F018F9701CC6B22B2EE8D344
:10157000E81D1290401C0C260190401C0890129807
:10158000A719C1B2F8B2102201F006F90198102291
:10159000C1B2F8B201F000F908981022C1B2F8B255
:1015A00001F0FAF8701CC6B22A2EE8D305F10B0040
:1015B0000B260690401E0290C1B2A719F8B2102265
:1015C00001F0EAF806981022C1B2F8B201F0E4F88E
:1015D000701CC6B2292E38BF0298EDD305F10F005A
:1015E000471E1090801E4FF00A08461E009004EB24
:1015F0000809F1B209F0FF00102201F0CDF80098BF
:101600001022C1B209F0FF0001F0C6F8F9B209F0EA
:10161000FF00102201F0C0F810981022C1B209F0AA
:10162000FF0001F0B9F808F1010000F0FF08B8F17F
:10163000280FDCD305F110000F90401C4FF0090873
:1016400005F1120B03900F9804EB0809C1B209F0E1
:10165000FF00102201F0A0F803981022C1B209F097
:10166000FF0001F099F80BF0FF0109F0FF001022D4
:1016700001F092F808F1010000F0FF08B8F1270F1F
:10168000E1D305F113004FF0080805F1140A0990A1
:10169000099804EB0809C1B209F0FF00102201F01B
:1016A0007BF80AF0FF0109F0FF00102201F074F846
:1016B00008F1010000F0FF08B8F1260FE8D3072079
:1016C000049005F116000A90401E05F1180905F175
:1016D00017080590C1B20498102220440790C0B2A8
:1016E00001F05AF80A981022C1B20798C0B201F06E
:1016F00053F8079808F0FF01C0B2102201F04CF82F
:10170000079809F0FF01C0B2102201F045F80498D3
:10171000401CC0B20490252838BF0598DAD30E9833
:101720004AF65552C1B204F110000490C0B201F063
:1017300033F8112007900E984FF6FF72C1B2079848
:101740002044C0B201F028F80798401CC0B20790AE
:101750002428F0D30F20079012984FF6FF72C1B2E1
:1017600007982044C0B201F017F80798401CC0B297
:1017700007902528F0D3019845F2AA22C1B204F1BE
:101780000E000C90C0B201F007F80F2007900198EE
:101790004FF6FF72C1B207982044C0B200F0FCFFC0
:1017A0000798401CC0B207902528F0D301984AF64C
:1017B0005552C1B204F125001A90C0B200F0ECFFFE
:1017C0000E20019008984FF6FF72C1B20198204494
:1017D000C0B200F0E1FF0198401CC0B20190262881
:1017E000F0D30E20019002984FF6FF72C1B201981B
:1017F0002044C0B200F0D0FF0198401CC0B201905C
:101800001428F0D302984AF65552C1B204F11400DC
:101810000190C0B200F0C0FF02984AF65552C1B222
:1018200004F11C000890C0B200F0B6FF1F20079022
:1018300002984FF6FF72C1B207982044C0B200F080
:10184000ABFF0798401CC0B207902628F0D30E20AB
:10185000029006984FF6FF72C1B202982044C0B2BF
:1018600000F09AFF0298401CC0B202901428F0D3F6
:1018700006984AF65552C1B20898C0B200F08CFFE3
:10188000069845F2AA22C1B204F11D000790C0B229
:1018900000F082FF2020029006984FF6FF72C1B23E
:1018A00002982044C0B200F077FF0298401CC0B2FA
:1018B00002902628F0D304F10D001190F1B2C0B2CD
:1018C0004AF6555200F068FF0E2002902044F1B213
:1018D000C0B24FF6FF7200F05FFF0298401CC0B22A
:1018E00002901328F2D304F113000290F1B2C0B2B7
:1018F00045F2AA2200F050FF04F115000B90F1B25E
:10190000C0B24FF6FF7200F047FF1E200690204441
:10191000F1B2C0B24FF6FF7200F03EFF0698401CD5
:10192000C0B206902628F2D30D2600984FF6FF721B
:10193000C1B2A019C0B200F02FFF701CC6B2132EA6
:10194000F3D300984AF65552C1B20298C0B200F0E3
:1019500023FF00984FF6FF72C1B20898C0B200F0A2
:101960001BFF00984FF6FF72C1B20798C0B200F09B
:1019700013FF202600984FF6FF72C1B2A019C0B223
:1019800000F00AFF701CC6B2262EF3D30D26A01954
:10199000F9B2C0B24FF6FF7200F0FEFE701CC6B284
:1019A000132EF4D30298F9B2C0B245F2AA2200F085
:1019B000F3FE0198F9B2C0B245F2AA2200F0ECFEA3
:1019C0000898F9B2C0B24AF6555200F0E5FE04F1AB
:1019D0001F000890F9B2C0B24AF6555200F0DCFE82
:1019E0002026A019F9B2C0B24FF6FF7200F0D4FE63
:1019F000701CC6B2262EF4D30C20069010984FF619
:101A0000FF72C1B206982618F0B200F0C5FE0F981A
:101A10004FF6FF72C1B2F0B200F0BEFE03984FF66F
:101A2000FF72C1B2F0B200F0B7FE0698401CC0B21F
:101A300006901228E2D30B20069026180BF0FF0127
:101A4000F0B24FF6FF7200F0A7FE09984FF6FF7252
:101A5000C1B2F0B200F0A0FE0AF0FF01F0B24FF602
:101A6000FF7200F099FE0698401CC0B20690112843
:101A7000E3D30A20069005984FF6FF72C1B206988C
:101A80002618F0B200F088FE0A984FF6FF72C1B235
:101A9000F0B200F081FE0698401CC0B206901028FB
:101AA000E9D30A26A01908F0FF01C0B24FF6FF7271
:101AB00000F072FE701CC6B20F2EF3D30926A019D7
:101AC00009F0FF01C0B24FF6FF7200F065FE701C16
:101AD000C6B20F2EF3D30920069005F11900461C5B
:101AE0000D900D984FF6FF72C1B2069820440790F2
:101AF000C0B200F051FE0798F1B2C0B24FF6FF72CB
:101B000000F04AFE0698401CC0B206900E28E8D3AA
:101B10001520069010984FF6FF72C1B20698204427
:101B2000C0B200F039FE0698401CC0B206902628CC
:101B3000F0D3142006900F984FF6FF72C1B20698AA
:101B40002044C0B200F028FE0698401CC0B20690A7
:101B50002628F0D31420069003984FF6FF72C1B2E6
:101B600006982044C0B200F017FE0698401CC0B290
:101B700006902528F0D31520069020440BF0FF0195
:101B8000C0B24FF6FF7200F007FE0698401CC0B2CC
:101B900006902428F1D31520069009984FF6FF727D
:101BA000C1B206982044C0B200F0F6FD0698401C71
:101BB000C0B206901D28F0D315200690204407904F
:101BC0000AF0FF01C0B24FF6FF7200F0E5FD059884
:101BD0004FF6FF72C1B20798401CC0B200F0DCFDA6
:101BE0000A984FF6FF72C1B20798801CC0B200F08D
:101BF000D3FD079808F0FF01C01CC0B24FF6FF727A
:101C000000F0CAFD0698401CC0B206901E28D5D32D
:101C100019200690204409F0FF01C0B24FF6FF7270
:101C200000F0BAFD0698401CC0B206902128F1D3FE
:101C30001A2006900D984FF6FF72C1B20698204404
:101C4000C0B200F0A9FD0698401CC0B2069023283F
:101C5000F0D31B2006902044F1B2C0B24FF6FF72C1
:101C600000F09AFD0698401CC0B206902328F2D3DB
:101C7000039845F2AA22C1B204F10B000790C0B24A
:101C800000F08AFD03984AF65552C1B20B98C0B2D3
:101C900000F082FD04F111000F900BF0FF01C0B2C3
:101CA00045F2AA2200F078FD04F1240018900BF010
:101CB000FF01C0B24AF6555200F06EFD1D200390A0
:101CC00009984AF65552C1B203982044C0B200F0B8
:101CD00063FD0398401CC0B203902228F0D30998FA
:101CE00045F2AA22C1B204F122001B90C0B200F05A
:101CF00053FD04F10A0014900AF0FF01C0B24AF645
:101D0000555200F049FD04F1120003900AF0FF0162
:101D1000C0B24FF6FF7200F03FFD05984AF65552EB
:101D2000C1B20498C0B200F037FD05984FF6FF72BB
:101D3000C1B20198C0B200F02FFD0A984FF6FF72B1
:101D4000C1B20398C0B200F027FD0A984AF6555276
:101D5000C1B20398C0B200F01FFD04F10900179052
:101D600008F0FF01C0B245F2AA2200F015FD04F10F
:101D70002100199009F0FF01C0B24AF6555200F057
:101D80000BFD0D9845F2AA22C1B20C98C0B200F02A
:101D900003FD04F108000690F1B2C0B24AF65552B4
:101DA00000F0FAFC04F123001C90F1B2C0B245F23D
:101DB000AA2200F0F1FC16981F22C1B204F10F0014
:101DC0000590C0B200F0E8FC15981F22C1B20F9830
:101DD000C0B200F0E1FC13981F22C1B20498C0B257
:101DE00000F0DAFC13981F22C1B21C98C0B200F0B8
:101DF000D3FC0E981F22C1B204F126001390C0B28A
:101E000000F0CAFC0E981F22C1B204F13100C0B22A
:101E100000F0C2FC12981F22C1B204F127000E90FC
:101E2000C0B200F0B9FC0798F9B2C0B21F2200F0AE
:101E3000B3FC00981F22C1B20198C0B200F0ACFC04
:101E40000E98F9B2C0B21F2200F0A6FC10981F2213
:101E5000C1B20E98C0B200F09FFC01980BF0FF01D8
:101E6000C0B21F2200F098FC1A980BF0FF01C0B21C
:101E70001F2200F091FC09981F22C1B21398C0B232
:101E800000F08AFC1B980AF0FF01C0B21F2200F08C
:101E900083FC18980AF0FF01C0B21F2200F07CFCFE
:101EA0000A981F22C1B21998C0B200F075FC0698BA
:101EB00008F0FF01C0B21F2200F06EFC019808F08C
:101EC000FF01C0B21F2200F067FC0B9808F0FF0171
:101ED000C0B21F2200F060FC199808F0FF01C0B2E8
:101EE0001F2200F059FC069809F0FF01C0B21F2222
:101EF00000F052FC0F9809F0FF01C0B21F2200F061
:101F00004BFC04F116000A9009F0FF01C0B21F2239
:101F100000F042FC189809F0FF01C0B21F2200F047
:101F20003BFC0D981F22C1B2E01D0E90C0B200F024
:101F300033FC0D981F22C1B204F118000990C0B201
:101F400000F02AFC0E98F1B2C0B21F2200F024FC6F
:101F50000598F1B2C0B21F2200F01EFC0398F1B246
:101F6000C0B21F2200F018FC0298F1B2C0B21F22CA
:101F700000F012FC0A98F1B2C0B21F2200F00CFC73
:101F800004F117001090F1B2C0B21F2200F004FC5F
:101F90000998F1B2C0B21F2200F0FEFB05F11C004F
:101FA000C1B20090A01D1590C0B24FF6FF7200F0B4
:101FB000F3FB00984FF6FF72C1B21498C0B200F064
:101FC000EBFB00984FF6FF72C1B20798C0B200F069
:101FD000E3FB00984FF6FF72C1B21198C0B200F057
:101FE000DBFB00984FF6FF72C1B20F98C0B200F051
:101FF000D3FB00984FF6FF72C1B20198C0B200F057
:10200000CBFB00984FF6FF72C1B21098C0B200F03F
:10201000C3FB00984FF6FF72C1B20998C0B200F03E
:10202000BBFB1B2600984FF6FF72C1B2A019C0B2CD
:1020300000F0B2FB701CC6B2242EF3D3601D05F174
:102040001D0A12900AF0FF01C0B24FF6FF7200F0B5
:10205000A3FB15980AF0FF01C0B24FF6FF7200F023
:102060009BFB17980AF0FF01C0B24FF6FF7200F019
:1020700093FB04F10C000D900AF0FF01C0B24FF683
:10208000FF7200F089FB11980AF0FF01C0B24FF611
:10209000FF7200F081FB04980AF0FF01C0B24FF616
:1020A000FF7200F079FB0F980AF0FF01C0B24FF603
:1020B000FF7200F071FB02980AF0FF01C0B24FF608
:1020C000FF7200F069FB01980AF0FF01C0B24FF601
:1020D000FF7200F061FB0A980AF0FF01C0B24FF6F0
:1020E000FF7200F059FB10980AF0FF01C0B24FF6E2
:1020F000FF7200F051FB09980AF0FF01C0B24FF6E1
:10210000FF7200F049FB1A26A0190AF0FF01C0B2C5
:102110004FF6FF7200F040FB701CC6B21D2EF3D3C9
:102120001D26A0190AF0FF01C0B24FF6FF7200F0A1
:1021300033FB701CC6B2232EF3D3129805F11E098F
:1021400009F0FF01C0B24FF6FF7200F025FB1598B1
:1021500009F0FF01C0B24FF6FF7200F01DFB0698B8
:1021600009F0FF01C0B24FF6FF7200F015FB17989F
:1021700009F0FF01C0B24FF6FF7200F00DFB0D98A1
:1021800009F0FF01C0B24FF6FF7200F005FB119895
:1021900009F0FF01C0B24FF6FF7200F0FDFA05989A
:1021A00009F0FF01C0B24FF6FF7200F0F5FA049893
:1021B00009F0FF01C0B24FF6FF7200F0EDFA02988D
:1021C00009F0FF01C0B24FF6FF7200F0E5FA019886
:1021D00009F0FF01C0B24FF6FF7200F0DDFA0A9875
:1021E00009F0FF01C0B24FF6FF7200F0D5FA109867
:1021F00009F0FF01C0B24FF6FF7200F0CDFA04F112
:102200001A00139009F0FF01C0B24FF6FF7200F000
:10221000C3FA04F11B00179009F0FF01C0B24FF69A
:10222000FF7200F0B9FA04F1200709F0FF01F8B2DB
:102230004FF6FF7200F0B0FA052605F11F0BA0194A
:102240000BF0FF01C0B24FF6FF7200F0A5FA701C50
:10225000C6B20A2EF3D30B26A0190BF0FF01C0B2B1
:102260004FF6FF7200F098FA701CC6B2102EF3D32E
:1022700002980BF0FF01C0B24FF6FF7200F08CFA2B
:1022800001980BF0FF01C0B24FF6FF7200F084FA24
:102290000A980BF0FF01C0B24FF6FF7200F07CFA13
:1022A00010980BF0FF01C0B24FF6FF7200F074FA05
:1022B00004F119000F900BF0FF01C0B24FF6FF724E
:1022C00000F06AFA13980BF0FF01C0B24FF6FF72EC
:1022D00000F062FA17980BF0FF01C0B24FF6FF72E0
:1022E00000F05AFA08980BF0FF01C0B24FF6FF72E7
:1022F00000F052FA0BF0FF01F8B24FF6FF7200F057
:102300004BFA042605F12008A01908F0FF01C0B21D
:102310004FF6FF7200F040FA701CC6B20A2EF3D3DB
:10232000079808F0FF01C0B24FF6FF7200F034FAD0
:102330000D9808F0FF01C0B24FF6FF7200F02CFAC2
:102340000C9808F0FF01C0B24FF6FF7200F024FABB
:10235000059808F0FF01C0B24FF6FF7200F01CFABA
:10236000039808F0FF01C0B24FF6FF7200F014FAB4
:10237000029808F0FF01C0B24FF6FF7200F00CFAAD
:102380000B9808F0FF01C0B24FF6FF7200F004FA9C
:102390000A9808F0FF01C0B24FF6FF7200F0FCF996
:1023A000139808F0FF01C0B24FF6FF7200F0F4F985
:1023B000179808F0FF01C0B24FF6FF7200F0ECF979
:1023C000089808F0FF01C0B24FF6FF7200F0E4F980
:1023D00008F0FF01F8B24FF6FF7200F0DDF9201DA2
:1023E00005F121071690F9B2C0B24FF6FF7200F066
:1023F000D3F91298F9B2C0B24FF6FF7200F0CCF9DF
:102400000E98F9B2C0B24FF6FF7200F0C5F9069807
:10241000F9B2C0B24FF6FF7200F0BEF90798F9B2F8
:10242000C0B24FF6FF7200F0B7F90D98F9B2C0B222
:102430004FF6FF7200F0B0F90C98F9B2C0B24FF647
:10244000FF7200F0A9F90598F9B2C0B24FF6FF7219
:1024500000F0A2F90398F9B2C0B24FF6FF7200F093
:102460009BF90298F9B2C0B24FF6FF7200F094F9EE
:102470000B98F9B2C0B24FF6FF7200F08DF90A98CE
:10248000F9B2C0B24FF6FF7200F086F90F98F9B2B8
:10249000C0B24FF6FF7200F07FF91398F9B2C0B2E4
:1024A0004FF6FF7200F078F91798F9B2C0B24FF604
:1024B000FF7200F071F904F11E000A90F9B2C0B287
:1024C0004FF6FF7200F068F90898F9B2C0B24FF603
:1024D000FF7200F061F9E01C7E1C1790F1B2C0B2EF
:1024E0004FF6FF7200F058F91698F1B2C0B24FF6ED
:1024F000FF7200F051F91298F1B2C0B24FF6FF72BC
:1025000000F04AF90E98F1B2C0B24FF6FF7200F037
:1025100043F90698F1B2C0B24FF6FF7200F03CF9F1
:102520001498F1B2C0B24FF6FF7200F035F9079877
:10253000F1B2C0B24FF6FF7200F02EF90C98F1B272
:10254000C0B24FF6FF7200F027F90598F1B2C0B2A1
:102550004FF6FF7200F020F90398F1B2C0B24FF6C7
:10256000FF7200F019F90298F1B2C0B24FF6FF7293
:1025700000F012F90198F1B2C0B24FF6FF7200F00C
:102580000BF90B98F1B2C0B24FF6FF7200F004F9EC
:102590000998F1B2C0B24FF6FF7200F0FDF80F9843
:1025A000F1B2C0B24FF6FF7200F0F6F81398F1B234
:1025B000C0B24FF6FF7200F0EFF80A98F1B2C0B265
:1025C0004FF6FF7200F0E8F80898F1B2C0B24FF68B
:1025D000FF7200F0E1F81798741CE1B2C0B24FF638
:1025E000FF7200F0D9F81698E1B2C0B24FF6FF7250
:1025F00000F0D2F80E98E1B2C0B24FF6FF7200F0D0
:10260000CBF80298E1B2C0B24FF6FF7200F0C4F806
:102610000198E1B2C0B24FF6FF7200F0BDF8099820
:10262000E1B2C0B24FF6FF7200F0B6F800984AF679
:102630005552C1B21298C0B200F0AEF800984AF6F6
:102640005552C1B20D98C0B200F0A6F800984AF6F3
:102650005552C1B20498C0B200F09EF806980AF034
:10266000FF01C0B24AF6555200F096F8089809F0FA
:10267000FF01C0B24AF6555200F08EF816980BF0E2
:10268000FF01C0B24AF6555200F086F8109808F0E3
:10269000FF01C0B24AF6555200F07EF81498E1B23C
:1026A000C0B24AF6555200F077F80798E1B2C0B2CE
:1026B0004AF6555200F070F80C98E1B2C0B24AF6F2
:1026C000555200F069F80598E1B2C0B24AF6555289
:1026D00000F062F80398E1B2C0B24AF6555200F039
:1026E0005BF80F98E1B2C0B24AF6555200F054F8C8
:1026F0000A98E1B2C0B24AF6555200F04DF8089877
:10270000E1B2C0B24AF6555200F046F8009845F2E0
:10271000AA22C1B20E98C0B200F03EF80F9809F09C
:10272000FF01C0B245F2AA2200F036F8119808F075
:10273000FF01C0B245F2AA2200F02EF80F9808F06F
:10274000FF01C0B245F2AA2200F026F80998F9B2BA
:10275000C0B245F2AA2200F01FF81598E1B2C0B24B
:1027600045F2AA2200F018F80D98F1B2C0B245F275
:10277000AA2200F011F80498F1B2C0B245F2AA22E0
:1027800000F00AF804981DB0E1B2BDE8F04FC0B205
:1027900045F2AA22AFF300808446154810B50078B0
:1027A00014460B46002808BF604616D0012804D006
:1027B000022807D003280CD011E0C1F17F00C0B27D
:1027C00061460AE0C1F19F00C1B2CCF17F00C0B206
:1027D00003E0CCF19F00C1B2184600F00BF8200ACC
:1027E00000F0E8F8E0B2BDE8104000F0E3B8000007
:1027F0004800002070B505460C462A2000F0ACF8D1
:10280000002000F0D7F8284600F0D4F8002000F0AF
:10281000D1F8681CC0B200F0CDF82B2000F09CF875
:10282000002000F0C7F8204600F0C4F8002000F0B7
:10283000C1F8601CC0B200F0BDF8BDE870402C20AB
:1028400000F08AB82DE9F04188B001210220FDF79F
:1028500097FF01210420FDF793FF01218803FDF775
:102860009BFF01218803FDF7A3FFDFF8E08005222D
:102870000D214046FDF72AFF05220F214046FDF7B6
:1028800025FF00248DF8064001254FF480408DF887
:10289000045000908DF807408DF805506946404679
:1028A000FDF7C9FE8DF806408DF804506F028DF8D3
:1028B000074000978DF8055069462548FDF7BBFE97
:1028C0008DF8064002264FF420408DF804600090F9
:1028D0008DF807408DF8056069464046FDF7ABFE70
:1028E0008DF8064028038DF8045000908DF80740BD
:1028F0008DF8056069464046FDF79DFEADF808403D
:102900004FF48270ADF80A000820ADF81400ADF85D
:102910000C40ADF816400F4CADF81050ADF80E60FD
:10292000ADF8127002A92046FDF777FF012120467D
:10293000FDF75FFF00212046FDF752FF00212046F2
:10294000FDF795FF08B0BDE8F081000000040240EB
:10295000000802400038004070B5134D06464FF4A1
:1029600080512846FDF7C3FE69151048FDF7BFFEEC
:102970000F4C02212046FDF745FF0028F9D03146D3
:102980002046FDF748FF01212046FDF73BFF0028C8
:10299000F9D02046FDF73DFF2846BDE870404FF4D2
:1029A0008051FDF7A6BE000000040240000802406E
:1029B0000038004070B5134D06464FF4805128464C
:1029C000FDF795FE69151048FDF793FE0F4C0221A7
:1029D0002046FDF717FF0028F9D031462046FDF7C5
:1029E0001AFF01212046FDF70DFF0028F9D02046EF
:1029F000FDF70FFF2846BDE870404FF48051FDF70A
:102A000078BE000000040240000802400038004088
:102A100010B584B001210820FDF7BEFE4FF47A7096
:102A200002905320134CADF8040001A92046FEF794
:102A30008DF801212046FEF723F801221146204699
:102A4000FEF740F801212046FEF71DF800248DF81E
:102A500001408DF8024001208DF8030032208DF8EE
:102A600000006846FDF750FE03488480448004B0AF
:102A700010BD0000000C0040AC0600200000024029
:102A80001000000000000240200000000000024092
:102A900040000000000002408000000000080240EA
:102AA000100000000008024000040000000802407E
:102AB000000800000008024000100000000C024066
:102AC00004000000E42A000800000020B406000012
:102AD000F4010008F02D0008B40600209C890000D5
:102AE0008A0D000811847A030AC009010203040652
:102AF00007080923D00713B4061420A42A1B08AC26
:102B0000041AB4041ABC041A7C041A84041A8C042F
:102B10001A940411021E011008183C3C3C181818A5
:102B2000190341E5666666243D6C6CFE6C04392E23
:102B3000580B187CC6C2C07C0686C67C3121600951
:102B4000C2C60C183060C686500B386C6C3876DC08
:102B5000CCCCCC76D530303060192C390163180CD0
:102B600019093901931830AE663CFF3C66A37B1807
:102B70007E6D89149931110A11FED879322B020623
:102B8000A063C080580B7CC6C6CED6D6E6C6C67C2F
:102B9000281B38784C19016A7E20492F5AC65419CF
:102BA000106E063C060606301F0C1C3C6CCCFEB1B9
:102BB0005A1E7B8EC0C0C0FC0E201B3860101AC687
:102BC0000159101AFE4049F479802AC60469202967
:102BD0000C1A7E60BB0C78BA99F1591069EF399FD5
:102BE000A530180C0619AB59AE31391C292479606F
:102BF0001A0CDE895119115EDEDEDEDCC0802F107A
:102C0000386CC6C6FE91611EFC6666667C0463660F
:102C1000FC1C3C66C2E265C0C2663C2BF86C1D5DC4
:102C200066666CF87C5809666268786860626682DD
:102C300059109C6060F04066DEC6C6663A296A3963
:102C40006F59701A3C9D390159602B1E0C0165CCDF
:102C5000CCCC781FE6666C6C78787562E61AF05B0F
:102C6000190179709EC6EEFEFED6508FC6E6F6FEBE
:102C7000DECE1029DF29019B6C38E0294259A04A99
:102C80007C1F7ED6DE7C0C0E2029E4597019206052
:102C90000860380C06C6C67CBC7E7E5AB0493F1917
:102CA000015920590E9C6C3810106ED6D6FE6C6CF3
:102CB000101E6C6C38386C9661196A9B663C5058D3
:102CC0000AFEC6860C183060C2C6E05B3C30015973
:102CD0002011580A80C0E070381C0E0602205A0CE1
:102CE0000139201A10EF011922FF04123030186048
:102CF00008780C7CCCCCCC762EE06060786C959219
:102D0000DC6E7CC6C0C0C0E01A1C6A1A6C2F693029
:102D100039208AFE201F386C6460F0600192F02A2E
:102D2000762F4ECC7C0CCC78602B6C766062E613F0
:102D300018181A38FE5B1818E01306063B0E060139
:102D40002B66661319301C666C78935930492D89AF
:102D500030312CECFED601912ADC5F9B6666A029FF
:102D60000159A079207A7CA369A05B0C1E20BB7658
:102D700062C06E7CC660380C401E103030FC3001E2
:102D800093361C393F93CC76395F933C18197D8D6F
:102D9000D6D6FE6C10AF6C3838386CC62019016579
:102DA0007E060CF86008FECC183060C6FE1A0EEBEA
:102DB0002A70F0620E290B39055960291C29245B01
:102DC0001870CDC2DCCAFF0141720114100140121B
:102DD0004412401A48041A4C041A5004114A0204BE
:102DE0002A04088172646939A1320C13328C822062
:040000050800018965
:00000001FF
