:020000040800F2
:1000000068940020AD010008731000086F1000080C
:100010007110000861090008CF18000800000000F6
:10002000000000000000000000000000191200089D
:10003000950F000800000000E51000081B120008E2
:10004000C7010008C7010008C7010008C701000870
:10005000C7010008C7010008C7010008C701000860
:10006000C7010008C7010008C7010008C701000850
:10007000C7010008C7010008C7010008C701000840
:10008000C7010008C7010008C70100083D0A0008B1
:1000900065090008C7010008C7010008C70100087A
:1000A000C7010008C7010008C7010008C701000810
:1000B000C7010008C7010008C7010008C701000800
:1000C000C7010008C7010008C7010008C7010008F0
:1000D000C7010008A1170008E51700082918000843
:1000E000C7010008C7010008C7010008C7010008D0
:1000F000C7010008C7010008C7010008C7010008C0
:10010000C7010008C7010008AD130008C7010008B7
:10011000191700085D170008C7010008C70100088B
:10012000C7010008C7010008C7010008C70100088F
:10013000C7010008C7010008C7010008C70100087F
:10014000C7010008C7010008C7010008C70100086F
:10015000C7010008C7010008C7010008C70100085F
:10016000C7010008C7010008C7010008C70100084F
:10017000C7010008C7010008C7010008C70100083F
:10018000C7010008C7010008DFF80CD000F0E0FA52
:100190000048004781270008689400204FF0730052
:1001A000A0F101000028FBD17047000006488047FD
:1001B00006480047FEE7FEE7FEE7FEE7FEE7FEE74C
:1001C000FEE7FEE7FEE7FEE7A1120008890100084E
:1001D000C11700EB5161C911A0EBC11030B400028E
:1001E00002B212FB02F0C01303B213FB02F0C01301
:1001F0000FFA80FC0029B8BF002104DBB1F5807F35
:10020000C8BF4FF480711B4800EB410041F25551CB
:100210001CFB01F141F2555412FB04F401EB4401C3
:10022000C9134942B0F9004001EB63014C43C3EBF1
:100230006C01A1EB620147F6FF752944B0F9025049
:10024000A3EB0C0305FB0141B0F9044002EB63038F
:1002500004FB0313ACEB020141F2555211FB02F116
:10026000C088C91310FB013020F3CF3030BC00B27E
:1002700070470000C04B00082DE9FE4F81EA0304DF
:1002800004F0004421F0004100944FF0000B23F0F3
:10029000004350EA01045ED052EA03045BD0C3F38A
:1002A0000A54C1F30A552C44A4F2F3340194A0FB80
:1002B0000254C1F3130141F48011C3F3130343F457
:1002C000801301FB024400FB034E840A970A44EAB0
:1002D000815447EA8357A4FB076802958D0A05FB02
:1002E00007854FEA932C04FB0C542705029D4FEA27
:1002F000065847EA1637B5EB08056EEB070C870E74
:10030000920E47EA811742EA8312A7FB0201B6EB7D
:100310000B0164EB00042B0D43EA0C335E1844EB35
:100320001C50DA465146E7FB0201C5F313044FEABD
:100330000B3343EA14534FEA0432019C43EA0603A9
:10034000A4F10C040294009CCDE900B400F06CF818
:1003500003B0BDE8F08F00200146F9E730B50B4649
:10036000014600202022012409E021FA02F59D42E5
:1003700005D303FA02F5491B04FA02F52844151EB9
:10038000A2F10102F1DC30BD2DE9F05F054600204D
:1003900092469B4688460646814640241BE02846F6
:1003A00041464746224600F020F853465A46C01AB6
:1003B000914110D311461846224600F0DBF92D1A60
:1003C00067EB01084F4622460120002100F0D2F9D8
:1003D00017EB00094E41201EA4F10104DFDC484662
:1003E00031462A464346BDE8F09F202A04DB203AE6
:1003F00021FA02F00021704721FA02F3D040C2F145
:100400002002914008431946704710B5141E73F13D
:10041000000408DA401C41F1000192185B411A43C4
:1004200001D120F0010010BD2DE9F04D92469B4610
:1004300011B1B1FA81F202E0B0FA80F220329046B6
:1004400000F098F904460F4640EA0A0041EA0B0121
:1004500053465A46084313D0114653EA010019D0B7
:10046000C8F140025046FFF7C0FF05460E46504611
:100470005946424600F07EF9084305D0012004E0C9
:1004800020463946BDE8F08D0020054346EAE07677
:100490002C4337430A986305E40AA0EB08000022C6
:1004A000FD0A44EA47540A3002D500200146E9E734
:1004B000010510196941DDE9084500196941BDE8E8
:1004C000F04DA2E72DE9FE4F804681EA0300C00F00
:1004D0000C46009021F0004123F00045B8EB0200EB
:1004E000A94105D24046214690461C460B4602468D
:1004F00023F00040104347D0270DC7F30A00C3F391
:100500000A510290401A019040286BDAC3F313009D
:1005100040F4801B0098924620B10023D2EB030ADE
:1005200063EB0B0B01985946C0F14002504600F0B6
:1005300021F906460D4650465946019A00F029F920
:1005400010EB08006141002487EA115284EAE77346
:100550001A4340D0009A62B3019A012A4FEA075227
:1005600015DC001B61EB02014FF0004202EA07526A
:10057000CDE90042001C41F5801132462B46FFF7C1
:1005800053FF03B0BDE8F08F40462146F9E7001B5A
:1005900061EB0201001C41F5801300185B4120183B
:1005A000A2F5001747EB030140EAD570B6196D417B
:1005B00011E06D084FEA360645EAC0754FEA07526A
:1005C000001B61EB0201001C41F5801149084FEA54
:1005D00030000019514132462B4603B0BDE8F04FC0
:1005E000FFF713BF0098012240000023D0EB020266
:1005F00063EBE073009821464FEAE074B8EB00002B
:1006000061EB0401E9E783F000435BE781F000411F
:1006100058E72DE9F04D81EA030404F0004B21F086
:10062000004514464FF0000A23F0004150EA05024D
:1006300020D054EA01021DD0C5F30A570246C5F383
:100640001303C1F31300C1F30A5640F4801543F4B9
:100650008013A7EB0608101BD64608F2FD3873EB93
:10066000050002D308F1010801E092185B41B8F1DE
:10067000000F03DA00200146BDE8F08D00204FF4A2
:100680008011064684460EE0171B73EB050705D361
:10069000121B63EB050306434CEA010C49084FEAC1
:1006A000300092185B4150EA0107EDD152EA030095
:1006B00012D082EA040083EA0501084305D0101B2A
:1006C000AB4106D20122002306E000224FF0004396
:1006D00002E06FF0010253101AEB06004CEB0851D8
:1006E00010EB0A0041EB0B01BDE8F04DFFF78DBEAA
:1006F000C1F30A52C1F3130140F2FF3341F48011F8
:100700009A4202DA00200146704740F233439A428F
:10071000A2F2334202DC5242FFF767BE00F02AB871
:1007200030B5041E71F1000404DB4FF00044404278
:1007300064EB0101141E73F1000405DB1C464FF04D
:100740000043524263EB0403994208BF904230BD1C
:10075000064C074D06E0E06840F0010394E807000E
:1007600098471034AC42F6D3FFF712FDC84D00088D
:10077000E84D0008202A04DB203A00FA02F10020AC
:1007800070479140C2F1200320FA03F319439040CF
:100790007047202A06DBCB17203A41FA02F043EAE1
:1007A000E07306E041FA02F3D040C2F1200291402A
:1007B00008431946704770B58C1810F8015B15F0A6
:1007C000070301D110F8013B2A1106D110F8012BC3
:1007D00003E010F8016B01F8016B5B1EF9D12B07E8
:1007E00005D40023521E0DD401F8013BFAE710F89E
:1007F000013BCB1A921C03E013F8015B01F8015B8B
:10080000521EF9D5A142D8D3002070BD00298168BD
:1008100014BF41F0010121F0010181607047000027
:100820000849D1F80423084B1A40D0E9003C43EAB8
:100830000C03D0E902C04CEA000018431043C1F891
:100840000403704700200140E030FCFF002981686C
:1008500014BF41F4807121F48071816070470029D8
:10086000816814BF41F4007121F400718160704708
:1008700010B4426891F804C022F4807222F04072F1
:100880000B6842EA0C221A43426082680C4B4C7996
:100890001A40D1E903C343EA0C03D1F808C04CEA7B
:1008A000440C43EA0C031A438260C26A097D22F4B5
:1008B0007002491EC9B242EA0151C16210BC7047C0
:1008C000FDF7FFC030B4072409290DD9C568A1F18F
:1008D0000A0C0CEB4C0C04FA0CF425EA040403FAA1
:1008E0000CF32343C3600AE0056901EB410C04FAF1
:1008F0000CF425EA040403FA0CF3234303611F23D9
:10090000072A0CD2D0F834C0521E02EB8202934068
:100910002CEA030391401943416330BC70470D2A10
:100920000CD2D0F830C0D21F02EB820293402CEAE6
:10093000030391401943016330BC7047D0F82CC0C9
:100940000D3A02EB820293402CEA030391401943D3
:10095000C16230BC7047816841F08041816070475E
:10096000FEE7000070B5314C86B00221204600F051
:10097000C7F8002804BF06B070BD0221204600F071
:1009800071F801AA0021204600F042F99DF80C0000
:1009900000281CBF06B070BD9DF81700244C2178BC
:1009A000884238BF1C280BD2224951F820C0BCF124
:1009B000000F05D0059801AD009095E80F00E047C5
:1009C000DFF874C0019801AECCF800009DF80E204D
:1009D0008CF80420501E00281ADD06F10A000CF1E4
:1009E000040112F0010F04D19DF80F2001F8012F2E
:1009F000401C9CF804204378521E521008D000BFBF
:100A000010F8025F4B70437801F8025F521EF7D175
:100A10009CF80400401E03D431186044C97A417127
:100A20006068401C606006B070BD0000006400405B
:100A300018000020E0830020D083002010B5084C6F
:100A40000121204600F05CF8002808BF10BD0121FC
:100A5000204600F007F8BDE8104001F00BBD000093
:100A60000064004010B4082304224FF0100CB1F5CC
:100A7000007F40D021DC202902BF036110BC7047F9
:100A800010DC012901BF1D49816010BC7047042999
:100A900002BFC36010BC7047082908BFC0F80CC073
:100AA00010BC7047402902BFC0F810C010BC70478E
:100AB000B1F5807F1FD010BC70470024B1F5004F06
:100AC00008D00BDCB1F5806F15D0B1F5006F1CBFFD
:100AD00010BC70478461426010BC7047B1F5803F24
:100AE00002BF436010BC7047B1F5003F08BFC0F8BB
:100AF00004C010BC7047426010BC70470101010087
:100B00000246002053690B4208BF7047B1F5807F51
:100B100064D01CDC082949D00CDC012938D002291A
:100B20003ED0042918BF7047D168002011F0080F8B
:100B300034D1704710293FD0202943D0402918BF15
:100B400070471169002011F0100F27D17047B1F5DF
:100B5000004F55D00FDCB1F5007F45D0B1F5806F67
:100B600048D0B1F5006F18BF70479169002011F0AF
:100B7000700F13D17047B1F5803F29D0B1F5003F18
:100B800018BF70475168002011F0100F06D1704750
:100B900091681E4A0020114208BF7047012070472B
:100BA000D168002011F0030FF8D17047D168002000
:100BB00011F0100FF2D170471169002011F0030FEE
:100BC000ECD170471169002011F0080FE6D1704791
:100BD0005168002011F0080FE0D1704791690020A2
:100BE00011F0010FDAD170479169002011F0020F66
:100BF000D4D170479169002011F0040FCED1704715
:100C00005168002011F0040FC8D1704701010100A4
:100C100000EB0113D3F8B0C11CF0040C82F808C03B
:100C2000D3F8B0C107BF4FEA5C5CC2F800C04FEA1E
:100C3000DC0CC2F804C0D3F8B0C10CF0020C82F88E
:100C400009C0D3F8B4C10CF00F0C82F80AC0D3F875
:100C5000B4C14FEA1C2C82F813C0D3F8B8C182F893
:100C60000BC0D3F8B8C14FEA1C2C82F80CC0D3F8E3
:100C7000B8C14FEA1C4C82F80DC0D3F8B8C14FEA96
:100C80001C6C82F80EC0D3F8BCC182F80FC0D3F838
:100C9000BCC14FEA1C2C82F810C0D3F8BCC14FEA8B
:100CA0001C4C82F811C0D3F8BC311B0E937421B1D7
:100CB000016941F0200101617047C16841F02001E4
:100CC000C160704710B402460020936813F0806F33
:100CD0003FD000BF02EB0012D2F8803103F00103D5
:100CE000C2F880310B7A002B42D0D2F880C14C6818
:100CF0004CEA030391F809C04CEAC40C43EA0C0324
:100D0000C2F880318B7A03F00F038B72D2F88431F2
:100D100023F00F03C2F88431D2F8843191F80AC06D
:100D200043EA0C03C2F88431CB7AD1F80CC043EA11
:100D30000C23C2F88831CB7B096943EA0121C2F850
:100D40008C11D2F8801141F00101C2F8801110BC61
:100D50007047906810F0006F18BF0120BAD19068FA
:100D600010F0805F14BF02200420B3D110BC704784
:100D7000D2F8803191F809C043EA0C03B1F800C001
:100D800043EA4C53BCE70029016814BF41F001015C
:100D900021F00101016070472DE9F003016821F0A5
:100DA000010101600021016041608160C160016159
:100DB00021214161434A3D244349904202BF8C6056
:100DC000BDE8F0037047414A4FF47465904202BF9A
:100DD0008D60BDE8F00370473D4A4FF474189042AF
:100DE00002BFC1F80880BDE8F0037047394A4FF0F0
:100DF0007466904202BF8E60BDE8F0037047364BC8
:100E0000364A984202BFCA60BDE8F0037047DFF877
:100E1000D0C0344B604502BFCB60BDE8F0037047E3
:100E2000314FDFF8C8C0B84202BFC1F80CC0BDE8FE
:100E3000F0037047DFF8B8904FF03D57484502BFC8
:100E4000CF60BDE8F0037047DFF8A8902A49484515
:100E500002BF0C60BDE8F0037047284CA04202BFFF
:100E60000D60BDE8F0037047254CA04202BFC1F8F9
:100E70000080BDE8F0037047224CA04202BF0E6024
:100E8000BDE8F0037047204C2049A04202BF0A6031
:100E9000BDE8F00370471E4A904202BF0B60BDE8F8
:100EA000F00370471B4A904202BFC1F800C0BDE882
:100EB000F0037047184A904208BF0F60BDE8F00386
:100EC000704700001060024000600240286002404D
:100ED0004060024058600240706002403D000020C7
:100EE00088600240400F0020A060024000003D20CA
:100EF000B860024010640240086402402864024066
:100F00004064024058640240706402400C64024035
:100F100088640240A0640240B864024010B40268D1
:100F20001B4BD1F80CC01A400B6843EA0C03D1E903
:100F300005C44CEA040C43EA0C03D1F81CC043EA94
:100F40000C03D1F820C043EA0C03D1F824C043EAD3
:100F50000C03D1F828C043EA0C03D1F834C043EAAB
:100F60000C03D1F838C043EA0C031A43026042690B
:100F7000D1E90B3C22F0070243EA0C031A43426119
:100F80000A6942604A6882608968C16010BC704723
:100F90003F801CF0704700002DE9F0010022012580
:100FA0005FF00306D1F800C005FA02F30CEA030C67
:100FB0009C4533D107684FEA420C06FA0CF4A7436C
:100FC00007600F79D0F8008007FA0CF747EA0807A6
:100FD00007600F79012F18BF022F14D18768A7432C
:100FE00087604F79D0F8088007FA0CF747EA0807BE
:100FF0008760476827EA0303436043688F79974017
:10100000BFB23B434360C368A343C360CB7903FAD9
:101010000CF3D0F80CC043EA0C03C360521C102A36
:10102000C0D3BDE8F00170474B07DB0E9A40C908FA
:1010300000EB8100016A4FF00F0C0CFA03F39943A7
:101040000162016A11430162704741837047018365
:1010500070474FF6FF71016000210171417181718C
:10106000C1717047002A14BF018341837047FEE7B6
:10107000FEE7704710B4C27801780F244FF0010CDE
:101080000AB3174A126801F1E02102F4E062C2F5E6
:10109000E062C2F30722C2F10403D44042789A40CE
:1010A000837823401A43120181F80024007800F06D
:1010B0001F010CFA01F14009800000F1E020C0F8A6
:1010C000001110BC704701F01F000CFA00F0490934
:1010D000890001F1E021C1F8800110BC70470000D7
:1010E0000CED00E070470000044A0029116814BFAD
:1010F000084321EA000010607047000030380240C9
:10110000044A0029116814BF084321EA0000106056
:101110007047000040380240044A0029116814BF9B
:10112000084321EA00001060704700006038024068
:10113000044A0029116814BF084321EA0000106026
:101140007047000020380240044A0029116814BF8B
:10115000084321EA00001060704700004438024054
:10116000044A0029116814BF084321EA00001060F6
:1011700070470000243802400029018814BF41F460
:10118000005121F40051018070470029018814BFEB
:1011900041F0400121F040010180704702460020EB
:1011A00012890A4218BF01207047808970478181E7
:1011B000704710B402880B88B1F802C0CC8843EAAB
:1011C0000C03B1F804C002F441524CEA040C43EAA7
:1011D0000C03B1F808C043EA0C03B1F80AC043EAB3
:1011E0000C03B1F80CC043EA0C03B1F80EC043EA9B
:1011F0000C031A430280828B22F400628283098AE4
:10120000018210BC70470029818814BF41F004019D
:1012100021F004018180704770477047DFF86CC08F
:1012200030B4DCF800001A4B10F00C01194806D05D
:101230005C10042908BF046002D008290CD00360A8
:10124000DCF80010144AC1F30311515C026822FA61
:1012500001F1016030BC704710490A68C2F3805543
:101260000A68002D02F03F0214BFB4FBF2F2B3FB98
:10127000F2F20B680968C3F388135A43C1F30141C2
:10128000491C4900B2FBF1F10160D9E7083802407E
:101290000024F40000000020040000200438024074
:1012A000384882B0016841F4700101603648016835
:1012B00041F001010160354900230B60026822F40E
:1012C000102222F08072026000F1040C304ACCF847
:1012D0000020026822F4802202600A1D136001933C
:1012E0000093026842F480320260026802F4003225
:1012F0000092019A521C0192009A1AB9019AB2F511
:10130000A04FF2D1026812F4003F1ABF01220092EE
:101310000093204A136843F0805313601E4A1368F9
:1013200043F4404313600A680A600A6842F40042CA
:101330000A600A6842F4A0520A60009A012A0CBFAF
:10134000164A174ACCF80020026842F08072026008
:10135000026812F0007FFBD0124A40F20570106064
:10136000086820F003000860086840F00200086088
:10137000086800F00C000828FAD10B490006086044
:1013800002B0704788ED00E00038024008380240A3
:1013900010300024403802400070004008544007DC
:1013A00010540007003C024008ED00E010B50E4C60
:1013B0000121204600F01EF9002808BF10BD0121C0
:1013C000204600F01EF80948418840F2E732914279
:1013D00005D3002141808188491C818010BD41884E
:1013E000491C418010BD0000000C0040C8060020D0
:1013F0000029018814BF41F0800121F080010180A3
:101400007047C94301827047C94301827047002970
:10141000018814BF41F0010121F0010101807047F2
:101420000029B0F8441014BF41F40041C1F30E018B
:10143000A0F84410704710B5A0F18041B1F580319B
:1014400032D0B0F1804F43D011F57C4136D0B1F5A8
:10145000806147D0B1F580614ED0B1F5806155D043
:10146000B1F580615CD0B1F5704163D0B1F57051D8
:101470006AD0B1F5806172D0B1F580617AD011F592
:1014800098317DD0B1F580617BD0B1F5806118BF16
:1014900010BD01210802FFF74BFEBDE810400021FE
:1014A0004FF48070FFF744BE01210846FFF758FE55
:1014B0000021BDE810400120FFF752BE01210220AB
:1014C000FFF736FE0021BDE810400220FFF730BED6
:1014D00001210846FFF72CFE0021BDE81040012045
:1014E000FFF726BE01210420FFF722FE0021BDE800
:1014F00010400420FFF71CBE01210820FFF718FE52
:101500000021BDE810400820FFF712BE0121102085
:10151000FFF70EFE0021BDE810401020FFF708BEC7
:1015200001212020FFF704FE0021BDE8104020200B
:10153000FFF7FEBD01210220FFF712FE0021BDE8EA
:1015400010400220FFF70CBE01210804FFF708FE3F
:10155000BDE8104000214FF48030FFF701BE0121AB
:101560004804FFF7FDFDBDE8104000214FF40030B6
:10157000FFF7F6BD01218804FFF7F2FD002101E02D
:1015800006E00FE0BDE810404FF48020FFF7E8BD13
:1015900001214020FFF7CCFD0021BDE81040402094
:1015A000FFF7C6BD01218020FFF7C2FD0021BDE885
:1015B00010408020FFF7BCBD30B40589B0F818C0DA
:1015C000048C25F0070529432CF0030C2CF4407CF7
:1015D00040F201154CEA050C4FF6FF7505EA0313BE
:1015E00024F022041A4322430181A0F818C0028487
:1015F00030BC7047038A002280890B4200EA010058
:101600001CBF0028012210467047002A828914BF9F
:10161000114322EA01018181704710B4028C22F04B
:1016200001020284038C8288B0F818C00C882CF068
:10163000730C44EA0C0C8C8923F0020323434C887E
:101640002343A0F18044B4F580341CBFA0F1804452
:10165000B4F582340DD1CC8923F0080323438C8860
:1016600023F0040323430C8A22F4407222434C8A61
:1016700022438280A0F818C089684163038410BCAB
:101680007047028B22F008021143018370474163C7
:10169000704741627047000010B402881C4BDFF8AD
:1016A00074C0984218BF604511D0B0F1804F1CBF84
:1016B000A0F18044B4F5806409D0A0F18044B4F571
:1016C00000641CBFA0F18044B4F5406403D14C8891
:1016D00022F070022243A0F18044B4F580541CBF74
:1016E000A0F18044B4F5A05403D00C8922F44072D8
:1016F000224302804A68C2620A880285984212BF69
:101700006045897A01860121818210BC7047000002
:10171000000001400004014010B50D4C40F225517D
:10172000204600F0AAF8002808BF10BD0948C0787C
:1017300030B9204600F0C7F80749C0B2C9688847E9
:101740002046BDE8104040F2255100F08FB800005F
:10175000004C00405D060020208C002010B50D4C90
:1017600040F22551204600F088F8002808BF10BD3F
:101770000948007930B9204600F0A5F80749C0B201
:10178000096988472046BDE8104040F2255100F025
:101790006DB80000005000405D060020208C002045
:1017A00010B50D4C40F22551204600F066F8002897
:1017B00008BF10BD0948007830B9204600F083F812
:1017C0000749C0B2096888472046BDE8104040F28A
:1017D000255100F04BB80000001001405D060020CC
:1017E000208C002010B50D4C40F22551204600F011
:1017F00044F8002808BF10BD0948407830B9204699
:1018000000F061F80749C0B2496888472046BDE842
:10181000104040F2255100F029B80000004400407B
:101820005D060020208C002010B50D4C40F22551A3
:10183000204600F022F8002808BF10BD0948807833
:1018400030B9204600F03FF80749C0B289688847A0
:101850002046BDE8104040F2255100F007B80000D6
:10186000004800405D060020208C0020090A01226B
:1018700002FA01F1C9430180704710B401F01F0260
:1018800001240023C1F3421C04FA02F2BCF1010F4F
:1018900004BFB0F80CC00CEA020208D0BCF1020F81
:1018A0000CBFB0F810C0B0F814C00CEA0202090A6C
:1018B000008804FA01F10840002A1CBF0028012317
:1018C000184610BC70478088C0F308007047FEE7D8
:1018D00037B514460846064B6A46214600F008F91B
:1018E00004466946002000F09AFC20463EBD0000F8
:1018F0001F22000802E008C8121F08C1002AFAD1FE
:1019000070477047002001E001C1121F002AFBD17F
:101910007047000070B51C4D297879B1411E8DB219
:1019200038BF70BD5FF00004FEF738FC601CC4B225
:10193000642CF9D3691E8DB2F4D270BD0126002447
:101940002E70002818BF4FF0E0211AD0B0F57A7F32
:101950008CBF4FF47A7C844642F228320CFB02F2B0
:101960004A618C610E610A6912F0010F02D012F413
:10197000803FF8D00C618C61A0EB0C000004000CDF
:10198000E4D12C7070BD0000C80600202DE9FF5F77
:10199000DDE90220010DDDF838B0024318D044F62D
:1019A0001050A1F2FF3141430D140F98012820D0AF
:1019B000A5EB0B00401C5FEA000A4FF00004474E05
:1019C000DFF81C91A046504616D5CAF1000728E062
:1019D0000F98012443A2012808D0002100980F9BF2
:1019E000C0E90021C0E90243BDE8FF9F6FEA0B0197
:1019F000F4E7CBF10000DEE7074612E0F80707D076
:101A00002246334640464946FEF736FC8046894624
:101A10002246334610461946FEF72EFC04460E4673
:101A20007F10002FEAD1DDE90201BAF1000F424632
:101A30004B4602DAFEF720FC01E0FEF7EAFD044621
:101A40000E460022284BFEF76BFE03D84FF0FF3006
:101A5000014607E00022254B20463146FEF732FDC5
:101A6000FEF746FE102409E0002C0ADB0A220023C0
:101A7000FEF78AFC019B30321A55641E50EA0102BF
:101A8000F2D1641C019AC4F1110314440F9A012A83
:101A900003D0012208430DD10AE0084304D00020FE
:101AA0004FF0110B0F9080E7A3EB0B056D1E0DE0BF
:101AB0005B4504DD4FF0000205F1010504E003DAA7
:101AC0004FF00002A5F10105002AECD000980F9913
:101AD000C0E90231C0E9004586E70000000024406B
:101AE0000000F03F300000000000F0430000E03F45
:101AF0002DE9FF4F95B09B468946064600250FE22B
:101B0000252877D100242746F84A0121059400E0D2
:101B1000044316F8013F203B01FA03F01042F7D1CD
:101B200030782A2811D06FF02F033078A0F13002DE
:101B3000092A16D8059A44F0020402EB820203EB4C
:101B400042021044761C0590EFE759F8042B0592E9
:101B5000002A03DA504244F40054059044F0020491
:101B6000761C30782E2816D116F8010F44F00404A4
:101B70002A280DD06FF02F023078A0F13003092B06
:101B800009D807EB870302EB4303C718761CF3E77A
:101B900059F8047B761C30786C280FD006DC4C2872
:101BA00017D068280DD06A2814D104E0742810D00A
:101BB0007A280FD10DE044F400140AE044F48014B4
:101BC00001E044F440147278824202D104F580149A
:101BD000761C761C307866280BD013DC582877D01A
:101BE00009DC002875D04528F6D04628F4D04728CF
:101BF0001AD19DE118E0632835D0642879D0652892
:101C000012D195E1702873D008DC6728F1D06928DB
:101C10006FD06E280DD06F2806D1B5E073282CD078
:101C2000752875D0782874D05A46179990476D1C3E
:101C300075E1C4F30250022809D003280DD0D9F869
:101C4000001004280DD00D6009F1040967E1D9F8EE
:101C50000010EA17C1E90052F6E7D9F800100D802C
:101C6000F2E70D70F0E719F8041B8DF80010002062
:101C70008DF80100EA46012003E059F804AB4FF06B
:101C8000FF3061074FF0000102D40DE008F10101BF
:101C90008846B9420FDA8045F8DB1AF808100029A7
:101CA000F4D108E008F1010188468142FADB1AF814
:101CB00008100029F6D105985B46A0EB08072146DD
:101CC0003846179A00F094FA284400EB080507E01C
:101CD0004DE029E10DE01AF8010B5A46179990479B
:101CE000B8F10108F7D25B4621463846179A13E14E
:101CF00042E00A220092C4F302524FF0000A022A84
:101D000008D059F804CB032A4FEAEC710AD00DE051
:101D100029E02AE009F1070121F00702F2E802C1F7
:101D2000914609E00FFA8CFC4FEAEC71042A03D1CA
:101D30004FFA8CFC4FEAEC71002907DA0A460021C1
:101D4000DCF1000C61EB02012D2202E0220504D53A
:101D50002B228DF80420012203E0E20701D020228B
:101D6000F7E7904659E00A2102E010220DE0102129
:101D70004FF0000A00910BE010224FF0000A44F0EF
:101D800004040827009203E008224FF0000A0092A2
:101D9000C4F30252022A05D059F804CB0021032AC9
:101DA00008D009E009F1070121F00702F2E802C1B9
:101DB000914605E01FFA8CFC042A01D10CF0FF0CBF
:101DC0004FF00008220728D5702806D0009B83F02A
:101DD000100353EA0A0305D00EE040228DF80420D8
:101DE000012208E05CEA010206D030228DF80420CE
:101DF0008DF8050002229046009B83F0080353EA09
:101E00000A030AD15CEA010201D1620705D530223A
:101E10008DF804204FF001087F1E582804D034A00C
:101E200003900EA802900DE036A0F9E753466046F5
:101E3000009AFEF7A9FA84460398825C0298401E35
:101E4000029002705CEA0100F0D1029806A9081A1B
:101E500000F1200A600702D524F4803400E0012755
:101E6000574502DDA7EB0A0000E0002000EB0A0165
:101E7000009005984144401A0590E00306D45B4663
:101E80002146179A059800F0B3F90544002706E0AB
:101E900001A85A46C05D179990476D1C7F1C4745A5
:101EA000F6DBE0030CD55B462146179A059800F057
:101EB0009FF9054404E030205A46179990476D1C5D
:101EC0000099481E00900029F5DC08E0029802996C
:101ED0005A460078491C0291179990476D1CBAF137
:101EE0000001AAF1010AF1DC65E100000928010006
:101EF0003031323334353637383961626364656680
:101F00000000000030313233343536373839414241
:101F1000434445460000000000F058F90544761C93
:101F2000307800287FF4ECAD19B02846BDE8F08F7A
:101F3000620700D4062709F1070222F0070CFCE82B
:101F40000223E14603F000485FEA080C02D00FF2DA
:101F5000702C0DE05FEA045C02D50FF2682C07E0FC
:101F60005FEAC47C02D00FF2602C01E0AFF2700C8B
:101F70004FF0FF3823F00043CDF850C065280CD057
:101F800006DC452809D046281DD047283DD13DE034
:101F9000662818D067287ED138E00021112F01DB98
:101FA000112000E0781CCDE9000106A90EA8FFF77A
:101FB000EDFCDDE90F010E9A03910021009207F17B
:101FC000010A04914DE04FF000400097CDE9011067
:101FD00006A90EA8FFF7DAFCDDE90F0203920E9BBB
:101FE00011990022DDF80CA00093049211B9791C1C
:101FF00000EB010AB7EB0A0004D4C0F1FF3007F18F
:10200000010A0490AAEB0700019044E0012F00DAD6
:1020100001270021112F01DD112000E03846CDE914
:10202000000106A90EA8FFF7B1FCDDE90F010E9A29
:102030000391002104910092BA4621070CD4039920
:10204000514500DA8A46BAF1010F05DD009AAAF17E
:102050000101515C302908D0B84202DA10F1040FB6
:1020600006DA0121CDE9011015E0AAF10101E9E745
:10207000002805DC049901440491AAEB000102E068
:10208000411C514500DD8A460499401A401C0190CC
:102090004FF000400290200704D40198504501DB26
:1020A000CDF8048000208DF84F0002980DF14F0705
:1020B000B0F1004F25D02B200E9002984FF002086F
:1020C00000280CDA404202902D200E9007E00A21F1
:1020D0000298FEF743F93031029007F8011DB8F17C
:1020E0000001A8F10108F2DC02980028EFD1791E66
:1020F0000E980870307800F0200040F0450007F896
:10210000020D12A8C01B00F107081498007800B156
:10211000012000EB0A01019801EBE07105984144B0
:10212000401A401E0590E00306D45B462146179AEC
:10213000059800F05DF805441498007818B15A46E7
:10214000179990476D1CE00324D55B462146179AEA
:10215000059800F04DF805441CE00498002807DBC2
:10216000DDE90301884203DD0098405C179901E036
:10217000179930205A469047049805F10105401CF4
:1021800004900198401E019004D12E205A461799C0
:1021900090476D1CBAF10001AAF1010ADDDC05E0EF
:1021A00017F8010B5A46179990476D1CB8F10001BA
:1021B000A8F10108F4DC5B462146179A0598ABE6C6
:1021C0002D0000002B000000200000002DE9F04150
:1021D000044600251E461746880404D405E0394607
:1021E0002020B0476D1C641EF9D52846BDE8F0815B
:1021F0002DE9F041044600251E469046C80301D54E
:10220000302700E02027880404D505E04146384601
:10221000B0476D1C641EF9D52846BDE8F0810A68F8
:10222000531C0B60107070472DE9F04101219CB0E8
:102230000802FEF789FF01210420FEF755FF012166
:102240008805FEF751FF03208DF86C0000241A90DA
:102250008DF86F401AA92E48FEF79EFE169418942A
:10226000179416A81994FEF7DBFA0125294F8DF86B
:102270004550109402268DF84450139412941494EF
:102280008DF8546010A93846FEF7F2FA07230122B0
:102290000A213846FEF716FB072302220B21384697
:1022A000FEF710FBDFF870804046FEF775FD1B4817
:1022B0000496CDE900401A48CDE90204A802CDE910
:1022C00005404000079080000890401109904002AE
:1022D000CDE90A04CDE90C54694640460E94FEF758
:1022E0001DFE01214046FEF74EFD01213846FEF756
:1022F000B6FA01213846FEF7A9FA01213846FEF761
:1023000085FA3846FEF727FB1CB0BDE8F0810000D7
:102310000008024000200140106402404C200140AF
:102320001400002070B50B4D002400BF55F82400A8
:10233000012100F0C1F9601CC4B2042CF6D30424BE
:10234000022155F8240000F0B7F9601CC4B2082C33
:10235000F6D370BD2C00002070B53F488CB000242F
:1023600004804EF6E66141803C4A42F66311B2FBBE
:10237000F1F282800522801C42F2107C4388521EBA
:1023800003FB0CF3B3FBF1F39BB220F8043F03FB18
:102390000CF3B3FBF1F34380EED101210220FEF7F1
:1023A000A3FE02208DF81C0001028DF81D002C4DAB
:1023B00006918DF81E408DF81F4006A92846FEF7AD
:1023C000EBFD032209212846FEF72EFE0121880499
:1023D000FEF7BAFE2348ADF82240ADF82840006869
:1023E0002149224DB0FBF1F0401EADF82000688974
:1023F0001F4E099008A93046FFF74EF96020ADF84E
:1024000000000120ADF80200ADF80C40ADF810401E
:102410000420ADF80E40ADF81240ADF80400A878E5
:10242000029069463046FFF7F8F801213046FEF782
:10243000DFFF08213046FFF724F901213046FEF77F
:10244000EFFF01213046FEF7E2FF00213046FFF7A3
:102450001EF90CB070BD0000348C002060F87324AD
:10246000000402400000002040420F008C060020C3
:102470000048014030B5304C8FB0218860888142DF
:102480000ED02E4D00202A682B68C2F38062C3F361
:10249000C0631A442B68C3F300731A44032A02D0A2
:1024A0000FB0002030BDA26802EB011292E80E10BE
:1024B0008DE80E109DF80410009ACDE904208DF8E7
:1024C00019008DF81800481E8DF81A10C0B224BFEC
:1024D000694604AA08D30B1802EB000C5B79401E76
:1024E0008CF80B30C0B2F6D20DF1100E9EE80F1032
:1024F0000DF1240E8EE80F1009A91148FEF7E2FB3A
:10250000042807D02088A188401CB0FBF1F201FB11
:102510001200208028682968C0F38060C1F3C06180
:1025200008442968C1F30071C84218BFFFF7A2FF31
:1025300001200FB030BD00002000002008640040E2
:102540000064004048F6A04190FBF1F201FB12004C
:10255000002803DA084400B20028FBDBC0EBC030DF
:1025600048F69F4190FBF1F000B2FDF731BE00004C
:102570002DE9F04385B001210220FEF7E5FD0121A0
:102580000420FEF7B1FDDFF8148103220621404646
:10259000FEF74AFD032207214046FEF745FD0121D3
:1025A0000420FEF7ADFD01210220FEF79DFDDFF8BE
:1025B000F090022206214846FEF736FD022207214E
:1025C0004846FEF731FD6846FEF743FD02268DF8CA
:1025D000046000248DF80640C0258DF807400327CD
:1025E00000958DF8057069464046FEF7D5FC6846B3
:1025F000FEF72FFD8DF804608DF806408DF807403A
:1026000000958DF8057069464846FEF7C5FC254ED5
:1026100001213046FEF7F8FE3046FEF70CFFADF81C
:1026200008404FF6FF750395ADF81040ADF80A402D
:1026300002A93046FFF730F81B4F01213846FEF75C
:10264000E3FE3846FEF7F7FEADF808400395ADF817
:102650001040ADF80A4002A93846FFF71DF80023E4
:102660001A4603213046FEF7A7FF00213046FFF748
:1026700010F801213046FEF7CAFE00231A46032156
:102680003846FEF799FF00213846FFF702F801218E
:102690003846FEF7BCFE05B0BDE8F08300080240F6
:1026A0000004024000040140000800400148408846
:1026B00070470000C806002000B583B000228DF8E6
:1026C000042082888DF80710009200686946FEF7A2
:1026D00063FC03B000BD00B583B001238DF8043066
:1026E0008DF8053083888DF8061000938DF807204B
:1026F00000686946FEF750FC03B000BD10B501212B
:102700000846FEF7F1FC01210220FEF7EDFC012155
:102710000420FEF7E9FC01210820FEF7E5FC012179
:102720001020FEF7E1FC01212020FEF7DDFC012155
:102730004020FEF7D9FC01218020FEF7D5FC0121C5
:102740000802FEF7D1FC01214802FEF7CDFC012171
:10275000BDE810408802FEF7C7BC0A4681880068C1
:10276000FEF780BC10B5002211460448FFF7B3FF06
:10277000BDE8104000210148FFF7EFBF984B00086B
:10278000FEF78EFDFEF74AFDFFF7B8FF02F0BEF937
:10279000FFF74AFD1F234FF6FF720021022000F0D1
:1027A00021FAFFF7DFFFFFF7D7FDFFF7BBFDFFF7CC
:1027B000DFFE00F01DF87821552000F02FFB40F2DD
:1027C000471400BF00F0CAF8FFF770FF014607A0EA
:1027D00000F0BEFA41F29410FFF7B4FE90FBF4F162
:1027E00002A000F0B5FA01F019FEEBE72564000045
:1027F00070B501218CB00846FEF7A6FC0121084601
:10280000FEF772FC02208DF8040003202A4E8DF89A
:102810000500002404EB440006EBC005287B50B102
:102820002889009069466868FEF7B6FB698901222D
:102830006868FEF7F9FB601C10F0FF04EAD04FF463
:1028400080700024ADF82C00ADF82640A720ADF82C
:10285000240044F62060194D0A908DF82E4009A9F5
:102860002846FEF719FF6020ADF810000120ADF8F2
:1028700012004FF47A70ADF81C40ADF8204006907D
:10288000ADF81E40ADF82240ADF8144004A928462A
:10289000FEF7C3FE01212846FEF7F3FE012128467C
:1028A000FEF7A6FD01212846FEF7B1FD01212846CD
:1028B000FEF7B6FD0CB070BDB00600200000014070
:1028C000224A30B45379DFF888C003EBC30202EB2D
:1028D00003120CEBC20400EB800004EB4004655CC7
:1028E000012424EA030303EBC30404EB03130CEBFE
:1028F000C30C0CEB400C1CF801C0654522D1DFF87D
:1029000054C00CEB02140CEB031C04EB80040CEB26
:10291000800C34F811403CF811C0644512D1DFF846
:1029200038C00CEB021202EB80020CEB031303EB3A
:10293000800032F8112030F81100824202BF0020DE
:1029400030BC7047012030BC704700004C000020B4
:1029500050840020E0850020008900202DE9F0034C
:102960000020DFF860C0184E04468CF8040006F51D
:10297000C87706F5966820259CF8050000EBC00195
:1029800001EB001006EBC0010A1907EB001108EB80
:10299000001001EB440100EB4400142302F80A5B31
:1029A000BCF80A9021F8149BBCF8089020F8149BFE
:1029B0005B1EF3D1601CC4B20A2CDDD3BDE8F0036A
:1029C000704700004C0000205084002010B501200A
:1029D00002F040F80A20FEF79DFF112002F03AF8BD
:1029E0007820FEF797FFB12002F034F8012002F0C2
:1029F0005FF82C2002F05CF82D2002F059F8B2208C
:102A000002F028F8012002F053F82C2002F050F8D0
:102A10002D2002F04DF8B32002F01CF8012002F046
:102A200047F82C2002F044F82D2002F041F8012054
:102A300002F03EF82C2002F03BF82D2002F038F88E
:102A4000B42002F007F8072002F032F8C02002F0AC
:102A500001F8A22002F02CF8022002F029F88420CC
:102A600002F026F8C12001F0F5FFC52002F020F8A1
:102A7000C22001F0EFFF0A2002F01AF8002002F055
:102A800017F8C32001F0E6FF8A2002F011F82A208F
:102A900002F00EF8C42001F0DDFF8A2002F008F8F1
:102AA000EE2002F005F8C52001F0D4FF0E2001F061
:102AB000FFFF362001F0CEFFC82001F0F9FFE02033
:102AC00001F0C8FF022001F0F3FF1C2001F0F0FF2D
:102AD000072001F0EDFF122001F0EAFF372001F09E
:102AE000E7FF322001F0E4FF292001F0E1FF2D2073
:102AF00001F0DEFF292001F0DBFF252001F0D8FFE7
:102B00002B2001F0D5FF392001F0D2FF002001F089
:102B1000CFFF012001F0CCFF032001F0C9FF1020FE
:102B200001F0C6FFE12001F095FF032001F0C0FF96
:102B30001D2001F0BDFF072001F0BAFF062001F0C3
:102B4000B7FF2E2001F0B4FF2C2001F0B1FF2920A7
:102B500001F0AEFF2D2001F0ABFF2E2001F0A8FF09
:102B60002E2001F0A5FF372001F0A2FF3F2001F049
:102B70009FFF002001F09CFF002001F099FF022040
:102B800001F096FF102001F093FF2A2001F062FF70
:102B9000002001F08DFF002001F08AFF002001F0ED
:102BA00087FF7F2001F084FF2B2001F053FF0020DE
:102BB00001F07EFF002001F07BFF002001F078FF94
:102BC0009F2001F075FF3A2001F044FF052001F03D
:102BD0006FFF292001F03EFFBDE810400A20FEF7FC
:102BE00099BE00002DE9F05FDFF854814FF0000935
:102BF0001E4688F8049015460C46074688F805904E
:102C000001F082FB88F80490DFF838914FF480419E
:102C10004846FEF71AFA6420FEF77CFE4FF4804126
:102C20004846FEF714FA6420FEF774FEFFF7CEFE66
:102C30002C2001F00FFFA8F80840A8F80A50A8F8C7
:102C40000C602A2001F006FF002001F031FF002077
:102C500001F02EFF002001F02BFF7F2001F028FF64
:102C60002B2001F0F7FE002001F022FF002001F0F0
:102C70001FFF002001F01CFF9F2001F019FF2C20F6
:102C800001F0E8FE00264FEA1429484601F010FF43
:102C9000E0B201F00DFF701C86B2B6F5A04FF4D380
:102CA00088F8007017F0010F4FF0A0014FF080007E
:102CB00008D088F8021088F80300142088F806006D
:102CC000082007E088F8031088F80200102088F830
:102CD00006000A20DFF870B0002788F807000BF51F
:102CE000C87E202607EBC70000EB071017494FF0FE
:102CF000000C0BEBC00A0EEB001901EB001800BF33
:102D00000CEB8C000AEB400209EB800108EB800021
:102D10005FF00B0302F8016B21F8025B20F8024B15
:102D20005B1EF7D10CF1010000F0FF0CBCF1150F98
:102D3000E6D3781CC7B2022FD4D3BDE8F09F0000C1
:102D40004C00002000040240508400200089002034
:102D50000FB42DE9F04FC1B000252C464BAA6846B0
:102D60004A99FEF7B5FD2B4900200A7991F807C072
:102D7000624588BF087168469DF80020002A3ED051
:102D8000DFF8948008F5C87908F5966A02785B2A1E
:102D900008BF01252FD05D2A08BF00252BD00D2AA2
:102DA00018BF0A2A27D08B799C429CBF0B796345B8
:102DB00025D84E79401C06EBC60707EB061708EB33
:102DC000C70B04EB84060BEB460B002D0BF803201E
:102DD00014BF8A894A8909EB071B0BEB860B0AEBA8
:102DE00007172BF8132007EB86060A8926F813200D
:102DF000621CD4B200E0401C0278002AC6D10879D7
:102E000060458CBF0020401C087141B0BDE8F00F48
:102E10005DF814FB4C000020508400202DE9F04F99
:102E2000A5B00D4604460027002604EB0708A819A4
:102E3000C1B208F0FF00002201F0B0F9701CC6B268
:102E4000272EF4D3781CC7B22F2FEDD30F266F1C7B
:102E5000A019F9B2C0B2102201F0A0F9701CC6B2DC
:102E60002D2EF5D30E26E81C05F10208CDF85000F2
:102E7000A71908F0FF01F8B2102201F08FF9149899
:102E80001022C1B2F8B201F089F9701CC6B22C2E22
:102E9000EED3281D1B90A81D0D260A90681D1890C2
:102EA0001B98A719C1B2F8B2102201F077F918984F
:102EB0001022C1B2F8B201F071F90A981022C1B221
:102EC000F8B201F06BF9701CC6B22B2EE8D3E81DE6
:102ED0000890401C0C260F90401C0B900898A719D6
:102EE000C1B2F8B2102201F059F90F981022C1B204
:102EF000F8B201F053F90B981022C1B2F8B201F008
:102F00004DF9701CC6B22A2EE8D305F10B000B2632
:102F10000690401E0990C1B2A719F8B2102201F024
:102F20003DF906981022C1B2F8B201F037F9701CD1
:102F3000C6B2292E38BF0998EDD305F10F00461E01
:102F40000C90801E1790401E4FF00A080390C1B2EB
:102F500004EB0807F8B2102201F020F917981022AC
:102F6000C1B2F8B201F01AF9F1B2F8B2102201F0D0
:102F700015F90C981022C1B2F8B201F00FF908F15E
:102F8000010000F0FF08B8F1280F38BF0398DED326
:102F900005F110001190801C09270290401E12902C
:102FA000119804EB0708C1B208F0FF00102201F0ED
:102FB000F5F812981022C1B208F0FF0001F0EEF807
:102FC00002981022C1B208F0FF0001F0E7F8781C67
:102FD000C7B2272FE4D305F11400082705F1130920
:102FE000CDF8580004EB070809F0FF0108F0FF00D6
:102FF000102201F0D3F816981022C1B208F0FF0099
:1030000001F0CCF8781CC7B2262FEBD305F11707D7
:10301000781E1990401E4FF0070B05F11808159007
:10302000C1B204EB0B0A0AF0FF00102201F0B6F85F
:1030300019981022C1B20AF0FF0001F0AFF8F9B2FE
:103040000AF0FF00102201F0A9F808F0FF010AF0D1
:10305000FF00102201F0A2F80BF1010000F0FF0BBD
:10306000BBF1250F38BF1598DAD30A984AF65552A6
:10307000C1B204F110000D90C0B201F08FF84FF012
:10308000110A0A984FF6FF72C1B204EB0A00C0B2EF
:1030900001F084F80AF1010000F0FF0ABAF1240FF0
:1030A000EFD34FF00F0A08984FF6FF72C1B204EB4E
:1030B0000A00C0B201F072F80AF1010000F0FF0A44
:1030C000BAF1250FEFD30F9845F2AA22C1B204F14D
:1030D0000E000E90C0B201F061F84FF00F0A0F9889
:1030E0004FF6FF72C1B204EB0A00C0B201F056F80D
:1030F0000AF1010000F0FF0ABAF1250FEFD30F9893
:103100004AF65552C1B204F125001C90C0B201F03C
:1031100045F84FF00E0A0B984FF6FF72C1B204EB60
:103120000A00C0B201F03AF80AF1010000F0FF0A0B
:10313000BAF1260FEFD34FF00E0A09984FF6FF723F
:10314000C1B204EB0A00C0B201F028F80AF1010094
:1031500000F0FF0ABAF1140FEFD309984AF655525E
:10316000C1B204F114000B90C0B201F017F8099835
:1031700004F11C0BC1B20BF0FF004AF6555201F0EE
:103180000DF84FF01F0A09984FF6FF72C1B204EB19
:103190000A00C0B201F002F80AF1010000F0FF0AD3
:1031A000BAF1260FEFD34FF00E0A06984FF6FF72D2
:1031B000C1B204EB0A00C0B200F0F0FF0AF1010056
:1031C00000F0FF0ABAF1140FEFD306984AF65552F1
:1031D000C1B20BF0FF0000F0E1FF069845F2AA2211
:1031E000C1B204F11D001390C0B200F0D7FF4FF040
:1031F000200A06984FF6FF72C1B204EB0A00C0B273
:1032000000F0CCFF0AF1010000F0FF0ABAF1260F2E
:10321000EFD303984AF65552C1B204F10D000F9056
:10322000C0B200F0BBFF4FF00E0A03984FF6FF72DA
:10323000C1B204EB0A00C0B200F0B0FF0AF1010015
:1032400000F0FF0ABAF1130FEFD3039845F2AA2258
:10325000C1B204F113000690C0B200F09FFF0398C2
:103260004FF6FF72C1B204F115000990C0B200F030
:1032700095FF4FF01E0A03984FF6FF72C1B204EBA0
:103280000A00C0B200F08AFF0AF1010000F0FF0A54
:10329000BAF1260FEFD34FF00D0A17984FF6FF72D1
:1032A000C1B204EB0A00C0B200F078FF0AF10100DD
:1032B00000F0FF0ABAF1130FEFD317984AF65552F0
:1032C000C1B20698C0B200F069FF17984FF6FF72BE
:1032D000C1B20BF0FF0000F061FF17984FF6FF72CC
:1032E000C1B21398C0B200F059FF4FF0200A1798EE
:1032F0004FF6FF72C1B204EB0A00C0B200F04EFFFD
:103300000AF1010000F0FF0ABAF1260FEFD34FF0E7
:103310000D0A04EB0A00F1B2C0B24FF6FF7200F0E2
:103320003DFF0AF1010000F0FF0ABAF1130FF0D3DC
:103330000698F1B2C0B245F2AA2200F02FFF0B9816
:10334000F1B2C0B245F2AA2200F028FFF1B20BF0B0
:10335000FF004AF6555200F021FF04F11F001090C3
:10336000F1B2C0B24AF6555200F018FF4FF0200AF1
:1033700004EB0A00F1B2C0B24FF6FF7200F00EFF8C
:103380000AF1010000F0FF0ABAF1260FF0D34FF066
:103390000C0A0C9804EB0A0BC1B20BF0FF004FF6BD
:1033A000FF7200F0FBFE11984FF6FF72C1B20BF0F6
:1033B000FF0000F0F3FE12984FF6FF72C1B20BF05F
:1033C000FF0000F0EBFE0AF1010000F0FF0ABAF185
:1033D000120FDED34FF00B0A029804EB0A0BC1B2B6
:1033E0000BF0FF004FF6FF7200F0D8FE09F0FF016E
:1033F0000BF0FF004FF6FF7200F0D0FE16984FF66C
:10340000FF72C1B20BF0FF0000F0C8FE0AF101002C
:1034100000F0FF0ABAF1110FDED34FF00A0A159837
:1034200004EB0A0BC1B20BF0FF004FF6FF7200F085
:10343000B5FE19984FF6FF72C1B20BF0FF0000F015
:10344000ADFE0AF1010000F0FF0ABAF1100FE6D359
:103450004FF00A0A04EB0A00F9B2C0B24FF6FF724D
:1034600000F09CFE0AF1010000F0FF0ABAF10F0F14
:10347000F0D34FF0090A00BF04EB0A0008F0FF0187
:10348000C0B24FF6FF7200F089FE0AF1010000F0B1
:10349000FF0ABAF10F0FEFD305F119001F90401C7E
:1034A0004FF0090A00901F9804EB0A0BC1B20BF011
:1034B000FF004FF6FF7200F071FE00984FF6FF72AA
:1034C000C1B20BF0FF0000F069FE0AF1010000F04C
:1034D000FF0ABAF10E0FE6D34FF0150A0C984FF61B
:1034E000FF72C1B204EB0A00C0B200F057FE0AF14D
:1034F000010000F0FF0ABAF1260FEFD34FF0140AD3
:1035000011984FF6FF72C1B204EB0A00C0B200F08E
:1035100045FE0AF1010000F0FF0ABAF1260FEFD3D1
:103520004FF0140A12984FF6FF72C1B204EB0A0072
:10353000C0B200F033FE0AF1010000F0FF0ABAF158
:10354000250FEFD34FF0150A02984FF6FF72C1B264
:1035500004EB0A00C0B200F021FE0AF1010000F005
:10356000FF0ABAF1240FEFD34FF0150A04EB0A005B
:1035700009F0FF01C0B24FF6FF7200F00FFE0AF132
:10358000010000F0FF0ABAF11D0FEFD34FF0150A4A
:10359000169804EB0A0BC1B20BF0FF004FF6FF7256
:1035A00000F0FCFD15984FF6FF72C1B20BF101005F
:1035B000C0B200F0F3FD19984FF6FF72C1B20BF1E3
:1035C0000200C0B200F0EAFD0BF10300F9B2C0B294
:1035D0004FF6FF7200F0E2FD0AF1010000F0FF0A71
:1035E000BAF11E0FD4D34FF0190A00BF04EB0A0042
:1035F00008F0FF01C0B24FF6FF7200F0CFFD0AF1F4
:10360000010000F0FF0ABAF1210FEFD34FF01A0AC0
:103610001F984FF6FF72C1B204EB0A00C0B200F06F
:10362000BDFD0AF1010000F0FF0ABAF1230FEFD34C
:103630004FF01B0A00984FF6FF72C1B204EB0A006C
:10364000C0B200F0ABFD0AF1010000F0FF0ABAF1D0
:10365000230FEFD3129845F2AA22C1B204F10B0056
:103660001190C0B200F09AFD12984AF65552C1B2BC
:103670000998C0B200F092FD029845F2AA22C1B2A8
:1036800004F111001E90C0B200F088FD029804F110
:10369000240BC1B20BF0FF004AF6555200F07EFD3C
:1036A0004FF01D0A04EB0A0009F0FF01C0B24AF610
:1036B000555200F073FD0AF1010000F0FF0ABAF163
:1036C000220FEFD304F12200219009F0FF01C0B2D4
:1036D00045F2AA2200F062FD16984AF65552C1B290
:1036E00004F10A001390C0B200F058FD16984FF68E
:1036F000FF72C1B204F112001290C0B200F04EFD90
:1037000015984AF65552C1B20D98C0B200F046FD68
:1037100015984FF6FF72C1B20B98C0B200F03EFD93
:1037200019984FF6FF72C1B21298C0B200F036FD80
:1037300019984AF65552C1B21298C0B200F02EFD47
:1037400004F109001D90F9B2C0B245F2AA2200F0BE
:1037500025FD04F12100229008F0FF01C0B24AF6D5
:10376000555200F01BFD1F9845F2AA22C1B20E98D7
:10377000C0B200F013FD00984AF65552C1B204F1F0
:1037800008001590C0B200F009FD009804F1230A6A
:10379000C1B20AF0FF0045F2AA2200F0FFFC149823
:1037A0001F22C1B204F10F001490C0B200F0F6FC69
:1037B0001B981F22C1B21E98C0B200F0EFFC1898EF
:1037C0001F22C1B20D98C0B200F0E8FC18981F2269
:1037D000C1B20AF0FF0000F0E1FC0A981F22C1B25A
:1037E00004F126001890C0B200F0D8FC0A981F22FD
:1037F000C1B204F13100C0B200F0D0FC089804F16D
:10380000270AC1B20AF0FF001F2200F0C7FC11987E
:10381000F1B2C0B21F2200F0C1FC17981F22C1B242
:103820000B98C0B200F0BAFCF1B20AF0FF001F2200
:1038300000F0B4FC0C981F22C1B20AF0FF0000F0A7
:10384000ADFC02981F22C1B20B98C0B200F0A6FCDA
:1038500002981F22C1B21C98C0B200F09FFC1898B9
:1038600009F0FF01C0B21F2200F098FC16981F2239
:10387000C1B22198C0B200F091FC16981F22C1B2CB
:103880000BF0FF0000F08AFC19981F22C1B22298A9
:10389000C0B200F083FC1598F9B2C0B21F2200F04C
:1038A0007DFC0B98F9B2C0B21F2200F077FC09989A
:1038B000F9B2C0B21F2200F071FC2298F9B2C0B276
:1038C0001F2200F06BFC159808F0FF01C0B21F2208
:1038D00000F064FC1E9808F0FF01C0B21F2200F047
:1038E0005DFC04F11600089008F0FF01C0B21F2231
:1038F00000F054FC08F0FF010BF0FF001F2200F065
:103900004DFC1F981F22C1B2E01D1690C0B200F0FE
:1039100045FC1F981F22C1B204F118000A90C0B2E2
:1039200000F03CFC00981F22C1B21698C0B200F013
:1039300035FC00981F22C1B21498C0B200F02EFCD2
:1039400000981F22C1B21298C0B200F027FC009864
:103950001F22C1B20698C0B200F020FC00981F22BE
:10396000C1B20898C0B200F019FC00981F22C1B281
:1039700004F117001890C0B200F010FC00981F224C
:10398000C1B20A98C0B200F009FCA01D05F11C0BE1
:1039900017900BF0FF01C0B24FF6FF7200F0FEFB74
:1039A00013980BF0FF01C0B24FF6FF7200F0F6FB68
:1039B00011980BF0FF01C0B24FF6FF7200F0EEFB62
:1039C0000F980BF0FF01C0B24FF6FF7200F0E6FB5C
:1039D0001E980BF0FF01C0B24FF6FF7200F0DEFB45
:1039E0000B980BF0FF01C0B24FF6FF7200F0D6FB50
:1039F00018980BF0FF01C0B24FF6FF7200F0CEFB3B
:103A00000A980BF0FF01C0B24FF6FF7200F0C6FB40
:103A10005FF01B06A0190BF0FF01C0B24FF6FF725A
:103A200000F0BCFB701CC6B2242EF3D3601D05F160
:103A30001D071A90F9B2C0B24FF6FF7200F0AEFB4C
:103A40001798F9B2C0B24FF6FF7200F0A7FB1D98AD
:103A5000F9B2C0B24FF6FF7200F0A0FB04F10C0007
:103A60001990F9B2C0B24FF6FF7200F097FB0F98B1
:103A7000F9B2C0B24FF6FF7200F090FB0D98F9B2A8
:103A8000C0B24FF6FF7200F089FB1E98F9B2C0B2C7
:103A90004FF6FF7200F082FB0698F9B2C0B24FF603
:103AA000FF7200F07BFB0B98F9B2C0B24FF6FF72C9
:103AB00000F074FB0898F9B2C0B24FF6FF7200F044
:103AC0006DFB1898F9B2C0B24FF6FF7200F066FBBA
:103AD0000A98F9B2C0B24FF6FF7200F05FFB1A26E7
:103AE000A019F9B2C0B24FF6FF7200F057FB701C7C
:103AF000C6B21D2EF4D31D26A019F9B2C0B24FF6DE
:103B0000FF7200F04BFB701CC6B2232EF4D305F1FC
:103B10001E00C1B203901A984FF6FF72C0B200F0B7
:103B20003DFB03984FF6FF72C1B21798C0B200F088
:103B300035FB03984FF6FF72C1B21598C0B200F082
:103B40002DFB03984FF6FF72C1B21D98C0B200F072
:103B500025FB03984FF6FF72C1B21998C0B200F06E
:103B60001DFB03984FF6FF72C1B20F98C0B200F070
:103B700015FB03984FF6FF72C1B21498C0B200F063
:103B80000DFB03984FF6FF72C1B20D98C0B200F062
:103B900005FB03984FF6FF72C1B20698C0B200F061
:103BA000FDFA03984FF6FF72C1B20B98C0B200F055
:103BB000F5FA03984FF6FF72C1B20898C0B200F050
:103BC000EDFA03984FF6FF72C1B21898C0B200F038
:103BD000E5FA03984FF6FF72C1B204F11A001C9087
:103BE000C0B200F0DBFA03984FF6FF72C1B204F1E5
:103BF0001B001E90C0B200F0D1FA039804F1200A15
:103C0000C1B20AF0FF004FF6FF7200F0C7FA0526B6
:103C100005F11F08A01908F0FF01C0B24FF6FF72AE
:103C200000F0BCFA701CC6B20A2EF3D35FF00B068C
:103C3000A01908F0FF01C0B24FF6FF7200F0AEFA13
:103C4000701CC6B2102EF3D3069808F0FF01C0B264
:103C50004FF6FF7200F0A2FA0B9808F0FF01C0B215
:103C60004FF6FF7200F09AFA089808F0FF01C0B210
:103C70004FF6FF7200F092FA189808F0FF01C0B2F8
:103C80004FF6FF7200F08AFA04F119001B9008F059
:103C9000FF01C0B24FF6FF7200F080FA1C9808F0E6
:103CA000FF01C0B24FF6FF7200F078FA1E9808F0DC
:103CB000FF01C0B24FF6FF7200F070FA109808F0E2
:103CC000FF01C0B24FF6FF7200F068FA08F0FF0182
:103CD0000AF0FF004FF6FF7200F060FA042605F1CB
:103CE000200900BFA01909F0FF01C0B24FF6FF7212
:103CF00000F054FA701CC6B20A2EF3D3119809F0E2
:103D0000FF01C0B24FF6FF7200F048FA199809F0AF
:103D1000FF01C0B24FF6FF7200F040FA0E9809F0B2
:103D2000FF01C0B24FF6FF7200F038FA149809F0A4
:103D3000FF01C0B24FF6FF7200F030FA129809F09E
:103D4000FF01C0B24FF6FF7200F028FA069809F0A2
:103D5000FF01C0B24FF6FF7200F020FA099809F097
:103D6000FF01C0B24FF6FF7200F018FA089809F090
:103D7000FF01C0B24FF6FF7200F010FA1C9809F074
:103D8000FF01C0B24FF6FF7200F008FA1E9809F06A
:103D9000FF01C0B24FF6FF7200F000FA109809F070
:103DA000FF01C0B24FF6FF7200F0F8F909F0FF0111
:103DB0000AF0FF004FF6FF7200F0F0F9201D05F148
:103DC000210A1D900AF0FF01C0B24FF6FF7200F009
:103DD000E5F91A980AF0FF01C0B24FF6FF7200F041
:103DE000DDF916980AF0FF01C0B24FF6FF7200F03D
:103DF000D5F915980AF0FF01C0B24FF6FF7200F036
:103E0000CDF911980AF0FF01C0B24FF6FF7200F031
:103E1000C5F919980AF0FF01C0B24FF6FF7200F021
:103E2000BDF90E980AF0FF01C0B24FF6FF7200F024
:103E3000B5F914980AF0FF01C0B24FF6FF7200F016
:103E4000ADF912980AF0FF01C0B24FF6FF7200F010
:103E5000A5F906980AF0FF01C0B24FF6FF7200F014
:103E60009DF909980AF0FF01C0B24FF6FF7200F009
:103E700095F908980AF0FF01C0B24FF6FF7200F002
:103E80008DF91B980AF0FF01C0B24FF6FF7200F0E7
:103E900085F91C980AF0FF01C0B24FF6FF7200F0DE
:103EA0007DF91E980AF0FF01C0B24FF6FF7200F0D4
:103EB00075F904F11E001E900AF0FF01C0B24FF622
:103EC000FF7200F06BF910980AF0FF01C0B24FF6D4
:103ED000FF7200F063F9E01C05F122061F90F1B2B9
:103EE000C0B24FF6FF7200F059F91D98F1B2C0B29E
:103EF0004FF6FF7200F052F91A98F1B2C0B24FF6C5
:103F0000FF7200F04BF91698F1B2C0B24FF6FF7293
:103F100000F044F91598F1B2C0B24FF6FF7200F00C
:103F20003DF91398F1B2C0B24FF6FF7200F036F9C6
:103F30001198F1B2C0B24FF6FF7200F02FF90E984F
:103F4000F1B2C0B24FF6FF7200F028F91498F1B246
:103F5000C0B24FF6FF7200F021F91298F1B2C0B270
:103F60004FF6FF7200F01AF90698F1B2C0B24FF6A0
:103F7000FF7200F013F90B98F1B2C0B24FF6FF7266
:103F800000F00CF90998F1B2C0B24FF6FF7200F0E0
:103F900005F90A98F1B2C0B24FF6FF7200F0FEF8D0
:103FA0001B98F1B2C0B24FF6FF7200F0F7F81C9800
:103FB000F1B2C0B24FF6FF7200F0F0F81E98F1B205
:103FC000C0B24FF6FF7200F0E9F81098F1B2C0B23B
:103FD0004FF6FF7200F0E2F81F98741CE1B2C0B215
:103FE0004FF6FF7200F0DAF81D98E1B2C0B24FF65A
:103FF000FF7200F0D3F81698E1B2C0B24FF6FF722C
:1040000000F0CCF80698E1B2C0B24FF6FF7200F0B3
:10401000C5F80B98E1B2C0B24FF6FF7200F0BEF8DF
:104020000A98E1B2C0B24FF6FF7200F0B7F81A98E2
:104030000BF0FF01C0B24AF6555200F0AFF81998E4
:104040000BF0FF01C0B24AF6555200F0A7F80D98E8
:104050000BF0FF01C0B24AF6555200F09FF81598D8
:10406000F9B2C0B24AF6555200F098F803984AF6F1
:104070005552C1B21098C0B200F090F81D9808F0E7
:10408000FF01C0B24AF6555200F088F8189809F0BE
:10409000FF01C0B24AF6555200F080F81398E1B221
:1040A000C0B24AF6555200F079F81198E1B2C0B2A8
:1040B0004AF6555200F072F80E98E1B2C0B24AF6D4
:1040C000555200F06BF81498E1B2C0B24AF655525E
:1040D00000F064F81298E1B2C0B24AF6555200F00E
:1040E0005DF81B98E1B2C0B24AF6555200F056F89E
:1040F0001E98E1B2C0B24AF6555200F04FF810983F
:10410000E1B2C0B24AF6555200F048F816980BF0EA
:10411000FF01C0B245F2AA2200F040F8039845F230
:10412000AA22C1B21B98C0B200F038F80F9809F06B
:10413000FF01C0B245F2AA2200F030F81B9809F046
:10414000FF01C0B245F2AA2200F028F80A980AF04E
:10415000FF01C0B245F2AA2200F020F81798E1B2A0
:10416000C0B245F2AA2200F019F81998F1B2C0B213
:1041700045F2AA2200F012F80D98F1B2C0B245F251
:10418000AA2200F00BF80D9825B0E1B2BDE8F04F7F
:10419000C0B245F2AA2200F001B800002DE9F041BA
:1041A0001446584A461C4D1C127832B1012A28D0B8
:1041B000022A4DD0032A76D09BE0074688462A2063
:1041C00000F048FC002000F073FC384600F070FC62
:1041D000002000F06DFCF0B200F06AFC2B2000F033
:1041E00039FC002000F064FC404600F061FC002037
:1041F00000F05EFCE8B200F05BFC2C2000F02AFC32
:1042000077E0C1F17F010746CDB22A2000F022FC01
:10421000002000F04DFC284600F04AFC002000F091
:1042200047FC681CC0B200F043FC2B2000F012FCDD
:10423000002000F03DFC384600F03AFC002000F081
:1042400037FCF0B200F034FC2C2000F003FC50E00E
:10425000C0F17F00C5B2C1F19F00C6B22A2000F0B4
:10426000F9FB002000F024FC284600F021FC00208F
:1042700000F01EFC681CC0B200F01AFC2B2000F0FD
:10428000E9FB002000F014FC304600F011FC002097
:1042900000F00EFC701CC0B200F00AFC2C2000F0F4
:1042A000D9FB26E0FFE7C0F19F00C7B20E462A20E7
:1042B00000F0D0FB002000F0FBFB304600F0F8FBE4
:1042C000002000F0F5FBE8B200F0F2FB2B2000F03C
:1042D000C1FB002000F0ECFB384600F0E9FB0020B9
:1042E00000F0E6FB781CC0B200F0E2FB2C2000F0EE
:1042F000B1FB200A00F0DCFBE0B2BDE8F04100F0C9
:10430000D7BB00004C0000202DE9F04188B001210E
:104310000220FCF7E9FE01210420FCF7E5FE012163
:104320008803FCF7EDFE01218803FCF7F5FEDFF8BA
:10433000E08005220D214046FCF776FE05220F2184
:104340004046FCF771FE00248DF8064001254FF42D
:1043500080408DF8045000908DF807408DF805508E
:1043600069464046FCF718FE8DF806408DF804506B
:104370006F028DF8074000978DF805506946254873
:10438000FCF70AFE8DF8064002264FF420408DF817
:10439000046000908DF807408DF80560694640463E
:1043A000FCF7FAFD8DF8064028038DF804500090C4
:1043B0008DF807408DF8056069464046FCF7ECFD36
:1043C000ADF808404FF48270ADF80A000820ADF84F
:1043D0001400ADF80C40ADF816400F4CADF810507D
:1043E000ADF80E60ADF8127002A92046FCF7E1FEB0
:1043F00001212046FCF7C9FE00212046FCF7BCFE47
:1044000000212046FCF7FFFE08B0BDE8F081000067
:10441000000402400008024000380040FE48417895
:10442000002908BF70472DE9F04FFB48FB4F85B0CE
:1044300090F800C04FF0800ABCF1000F16D0BCF11C
:10444000010F7BD0BCF1020F04BF4FF0090CCDF877
:1044500000C000F07A81BCF1030F04BF4FF0130CD1
:10446000CDF800C000F0348200F0E0BA4FF0000C4C
:10447000DFF8A4A3CDF800C00098009900010390D4
:104480000F2000EB01104FF0000802900098C1B21D
:1044900008F0FF00FEF714FA002818BF4FF00109DA
:1044A0007ED000BF08EB0900019010280EDA0098BA
:1044B000C1B20198C0B2FEF703FA38B101981028D2
:1044C000BCBF09F101000FFA80F9EBDB4FEAC860CD
:1044D0004FEA106B039808EB0901C6B24FF0FF30AA
:1044E00000EBC100C5B20298C4B22A2000F0B2FAB3
:1044F000002000F0DDFA584600F0DAFA002000F063
:10450000D7FA284600F0D4FA2B2000F0A3FA0020B6
:1045100000F0CEFA304600F0CBFA002000F0C8FAE6
:10452000204600F0C5FA2C2000F094FA009E4FF0CF
:10453000000B0024B4EBC90F3ADA00E054E0E017B6
:104540009AF8051004EB507208EBE20001EBC1038E
:1045500000B203EB011107EBC10300EB800003EB9A
:10456000400322F007029B5D1B01A3F5007303EBE0
:104570000B0CAB4B13F80C30A4EB020C802222FA8C
:104580000CF2134214BFA74AA74A02EB011101EB38
:10459000800030F81650280A00F08AFAE8B200E0ED
:1045A00011E000F085FA601C04B2B4EBC90FC4DB63
:1045B0000BF101000FFA80FBBBF1100FB9DB019882
:1045C000401E0FFA80F808F101000FFA80F8B8F1E8
:1045D000100FFFF65BAF0098401C00B200900A2855
:1045E000FFF64AAF00F022BA0023DFF82C920093C6
:1045F00000980725C0000290009805EBC0000190CC
:104600000098E9B2C0B2FEF75BF9002818BF012696
:104610007ED0AC1BB4F1FF3F0BDD0098E1B2C0B21D
:10462000FEF74EF928B1B4F1FF3FC4BF701C06B2CB
:10463000EFDCC5F107000007040E029800F0FF0A46
:10464000C5F1080081196FF0100000EB011000F0B7
:10465000FF080198C7B22A2000F0FCF9002000F002
:1046600027FA204600F024FA002000F021FA404604
:1046700000F01EFA2B2000F0EDF9002000F018FAEF
:10468000504600F015FA002000F012FA384600F00B
:104690000FFA2C2000F0DEF900984FF0000A00EB32
:1046A00080080024B4EB061FBCBF802020FA0AFB60
:1046B00033DA99F80510E01701EBC10303EB0111A0
:1046C000564B04EB1072A5EB221003EBC10300B2B2
:1046D00003EB480322F00F021B5CA21A1B01A3F597
:1046E00000739B1A4E4A1A44D27B12EA0B0F14BF76
:1046F0004C4A4D4A02EB011101EB880131F8107070
:10470000380A00F0D5F9F8B200F0D2F9601C00E0E8
:104710000DE004B2B4EB061FCBDB0AF101000FFA87
:1047200080FABAF1080FBCDBA81B401C05B2681E5A
:1047300005B2002DBFF664AF0098401C00B2009097
:104740001428FFF655AF00F071B900980F25C0F19D
:1047500009000001029000984FF0FF31C0F10A00FB
:1047600001EB001001900098C1B2E8B2FEF7A8F882
:10477000002818BF01267CD0AC1BB4F1FF3F0BDD35
:104780000098C1B2E0B2FEF79BF828B1B4F1FF3F48
:10479000C4BF701C06B2EFDCC5F10F00C0064FEAC3
:1047A0001069029800F0FF08C5F1100081196FF040
:1047B000080000EBC100C7B20198C4B22A2000F083
:1047C00049F9002000F074F9484600F071F9002022
:1047D00000F06EF9384600F06BF92B2000F03AF942
:1047E000002000F065F9404600F062F9002000F07A
:1047F0005FF9204600F05CF92C2000F02BF9DDF881
:1048000000804FF000090024B4EBC60FB8BFC9F117
:10481000100B46DAE01709E04C000020508400201D
:104820005A000020E085002000890020844904EB24
:104830005072A5EBE200497900B201EBC10303EB32
:104840000111804B00EB800003EBC10303EB40033D
:1048500022F0070213F808301B01A3F5007303EBE5
:104860000B0C794BA21A6344C2F1070213F8013C06
:1048700000E020E02AFA02F2134214BF734A744A9D
:1048800002EB011101EB800030F81870380A00F0DB
:104890000FF9F8B200F00CF9601C04B2B4EBC60FCB
:1048A000B8DB09F101000FFA80F9B9F1100FAADBAA
:1048B000A81B401C05B2681E05B2002DBFF653AF01
:1048C0000098401E00B200900028BFF63EAFADE059
:1048D00000980025C0F11300C00003900098691EE5
:1048E000C0F1140001EBC00002900098E9B2C0B220
:1048F000FDF7E6FF002818BF01267DD0A81901901A
:1049000008280BDAC1B20098C0B2FDF7D9FF28B170
:1049100001980828BCBF701C06B2EFDB28074FEADD
:10492000106A0398A919C4B24FF0FF3000EB0110D0
:1049300000F0FF09029800F0FF082A2000F08AF832
:10494000002000F0B5F8504600F0B2F8002000F06A
:10495000AFF8484600F0ACF82B2000F07BF80020C0
:1049600000F0A6F8204600F0A3F8002000F0A0F820
:10497000404600F09DF82C2000F06CF800984FF0B5
:10498000000A00EB80090024B4EB061F38DA80210E
:10499000CAF1070021FA00FB2949E01704EB107265
:1049A000497905EB221001EBC10303EB011107EB81
:1049B000C10300B203EB490322F00F021B5C1B0191
:1049C000A21AA3F5007313441F4A9A5C12EA0B0F54
:1049D00014BF1E4A1E4A02EB011101EB890131F896
:1049E00010804FEA182000F063F808F0FF0000F094
:1049F0005FF8601C04B200E00CE0B4EB061FCBDBF8
:104A00000AF101000FFA80FABAF1080FBBDB019836
:104A1000401E05B2681C05B2082DFFF666AF00986F
:104A2000401E00B200900028BFF652AF0448012299
:104A3000417922EA0101417105B0BDE8F08F000023
:104A40004C000020508400205A000020E085002007
:104A50000089002070B5134D06464FF4805128465A
:104A6000FCF7F3FA69151048FCF7EFFA0F4C022136
:104A70002046FCF793FB0028F9D031462046FCF78E
:104A800096FB01212046FCF789FB0028F9D020463F
:104A9000FCF78BFB2846BDE870404FF48051FCF7D3
:104AA000D6BA00000004024000080240003800406E
:104AB00070B5134D06464FF480512846FCF7C5FAF1
:104AC00069151048FCF7C3FA0F4C02212046FCF789
:104AD00065FB0028F9D031462046FCF768FB012130
:104AE0002046FCF75BFB0028F9D02046FCF75DFB75
:104AF0002846BDE870404FF48051FCF7A8BA00008A
:104B000000040240000802400038004010B584B0A4
:104B100001210820FCF7F4FA4FF47A700290532038
:104B2000134CADF8040001A92046FCF7B5FD0121A6
:104B30002046FCF769FC012211462046FCF765FD82
:104B400001212046FCF763FC00248DF801408DF81C
:104B5000024001208DF8030032208DF800006846E5
:104B6000FCF788FA03488480448004B010BD00003C
:104B7000000C0040C80600200000024010000000A9
:104B80000000024020000000000002404000000041
:104B900000000240800000000008024010000000F9
:104BA0000008024000040000000802400008000065
:104BB0000008024000100000000C02400400000049
:104BC000F67FFF7FF67FD97FA77F627F0A7F9D7E7A
:104BD0001E7E8A7DE47C2A7C5D7B7D7A8A7985785D
:104BE0006C7742760575B6735572E3705F6FCA6D68
:104BF000246C6E6AA768D066E964F262EC60D75EE6
:104C0000B45C825A4358F6559B533451C04E404CC5
:104C1000B4491D477B44CE41173F573C8D39BA36C6
:104C2000DF33FC30112E1F2B2728282524221A1FA2
:104C30000C1CF918E215C812AB0F8C0C6B09480656
:104C400024030000DCFCB8F995F674F355F038ED58
:104C50001EEA07E7F4E3E6E0DCDDD8DAD9D7E1D4F1
:104C6000EFD104CF21CC46C973C6A9C3E9C032BE77
:104C700085BBE3B84CB6C0B340B1CCAE65AC0AAAB4
:104C8000BDA77EA54CA329A1149F0E9D179B30990B
:104C900059979295DC933692A1901D8FAB8D4A8CDB
:104CA000FB8ABE8994887B8776868385A384D68396
:104CB0001C837682E2816381F6809E805980278002
:104CC0000A8000800A80278059809E80F680638158
:104CD000E28176821C83D683A384838576867B8754
:104CE0009488BE89FB8A4A8CAB8D1D8FA190369229
:104CF000DC93929559973099179B0E9D149F29A18B
:104D00004CA37EA5BDA70AAA65ACCCAE40B1C0B38A
:104D10004CB6E3B885BB32BEE9C0A9C373C646C969
:104D200021CC04CFEFD1E1D4D9D7D8DADCDDE6E06D
:104D3000F4E307E71EEA38ED55F074F395F6B8F999
:104D4000DCFC0000240348066B098C0CAB0FC81276
:104D5000E215F9180C1C1A1F2422282527281F2BBE
:104D6000112EFC30DF33BA368D39573C173FCE4118
:104D70007B441D47B449404CC04E34519B53F655BB
:104D80004358825AB45CD75EEC60F262E964D06644
:104D9000A7686E6A246CCA6D5F6FE3705572B67354
:104DA000057542766C7785788A797D7A5D7B2A7C79
:104DB000E47C8A7D1E7E9D7E0A7F627FA77FD97FED
:104DC000F67FFF7FF67F0000E84D0008000000201E
:104DD000D0060000B607000804510008D0060020E5
:104DE000988D00000419000811847A030A00091044
:104DF00001020304060708091BD007041206142049
:104E0000A04B1B08A8041AB0041AB8041A78041A94
:104E100080041A88041A900411021E011008183C1C
:104E20003C3C181818190341E5666666243D6C6C15
:104E3000FE6C04392E580B187CC6C2C07C0686C690
:104E40007C31216009C2C60C183060C686500B3810
:104E50006C6C3876DCCCCCCC76D530303060192C0C
:104E6000390163180C19093901931830AE663CFFFB
:104E70003C66A37B187E6D89149931110A11FED806
:104E800079322B0206A063C080580B7CC6C6CED6F2
:104E9000D6E6C6C67C281B38784C19016A7E2049A4
:104EA0002F5AC65419106E063C060606301F0C1CFD
:104EB0003C6CCCFEB15A1E7B8EC0C0C0FC0E201BC9
:104EC0003860101AC60159101AFE4049F479802A38
:104ED000C6046920290C1A7E60BB0C78BA99F15976
:104EE0001069EF399FA530180C0619AB59AE31394E
:104EF0001C292479601A0CDE895119115EDEDEDE70
:104F0000DCC0802F10386CC6C6FE91611EFC666640
:104F1000667C046366FC1C3C66C2E265C0C2663CFB
:104F20002BF86C1D5D66666CF87C580966626878C3
:104F3000686062668259109C6060F04066DEC6C69A
:104F4000663A296A396F59701A3C9D390159602BAC
:104F50001E0C0165CCCCCC781FE6666C6C7878753D
:104F600062E61AF05B190179709EC6EEFEFED6501D
:104F70008FC6E6F6FEDECE1029DF29019B6C38E0F5
:104F8000294259A04A7C1F7ED6DE7C0C0E2029E4E3
:104F900059701920600860380C06C6C67CBC7E7E3D
:104FA0005AB0493F19015920590E9C6C3810106EA7
:104FB000D6D6FE6C6C101E6C6C38386C9661196A13
:104FC0009B663C50580AFEC6860C183060C2C6E08C
:104FD0005B3C3001592011580A80C0E070381C0E2B
:104FE0000602205A0C0139201A10EF011922FF0481
:104FF000123030186008780C7CCCCCCC762EE06077
:1050000060786C9592DC6E7CC6C0C0C0E01A1C6AE9
:105010001A6C2F693039208AFE201F386C6460F0CA
:10502000600192F02A762F4ECC7C0CCC78602B6CF1
:10503000766062E61318181A38FE5B1818E013063B
:10504000063B0E06012B66661319301C666C7893BE
:105050005930492D8930312CECFED601912ADC5F84
:105060009B6666A0290159A079207A7CA369A05B80
:105070000C1E20BB7662C06E7CC660380C401E10D1
:105080003030FC300193361C393F93CC76395F9336
:105090003C18197D8DD6D6FE6C10AF6C3838386C44
:1050A000C6201901657E060CF86008FECC18306039
:1050B000C6FE1A0EEB2A70F0620E290B39055960F4
:1050C000291C29245B1870CDC2DCCAFF0141720182
:1050D00014100140124412401A48041A4C041A5089
:1050E00004114A02042A04088172646939A1320C4D
:1050F000134E8C622019343B010826131B161B0823
:045100008F04810097
:040000050800018965
:00000001FF
