:020000040800F2
:1000000070940020AD010008651000086110000820
:1000100063100008B70A0008651900080000000016
:1000200000000000000000000000000013120008A3
:100030009D0F000800000000D11000083D130008CB
:10004000C7010008C7010008C7010008C701000870
:10005000C7010008C7010008C7010008C701000860
:10006000C7010008C7010008C7010008C701000850
:10007000C7010008C7010008C7010008C701000840
:10008000C7010008C7010008C7010008450B0008A8
:10009000B90A0008C7010008C7010008C701000825
:1000A000C7010008C7010008C7010008C701000810
:1000B000C7010008C7010008C7010008C701000800
:1000C000C7010008C7010008C7010008C7010008F0
:1000D000C70100084118000885180008C918000861
:1000E000C7010008C7010008C7010008C7010008D0
:1000F000C7010008C7010008C7010008C7010008C0
:10010000C7010008C701000821140008C701000842
:10011000B9170008FD170008C7010008C70100084B
:10012000C7010008C7010008C7010008C70100088F
:10013000C7010008C7010008C7010008C70100087F
:10014000C7010008C7010008C7010008C70100086F
:10015000C7010008C7010008C7010008C70100085F
:10016000C7010008C7010008C7010008C70100084F
:10017000C7010008C7010008C7010008C70100083F
:10018000C7010008C7010008DFF80CD000F0B8FB79
:100190000048004705290008709400204FF07300C4
:1001A000A0F101000028FBD17047000006488047FD
:1001B00006480047FEE7FEE7FEE7FEE7FEE7FEE74C
:1001C000FEE7FEE7FEE7FEE7C51300088901000829
:1001D0000649074A0868504343F239021044086050
:1001E000400870470149086070470000D0060020B1
:1001F0006D4EC641D2B201E000F8012B491EFBD280
:1002000070470022F6E710B513460A460446194621
:10021000FFF7F0FF204610BD2DE9FE4F804681EA32
:100220000300C00F0C46009021F0004123F0004570
:10023000B8EB0200A94105D24046214690461C4633
:100240000B46024623F00040104347D0270DC7F36A
:100250000A00C3F30A510290401A019040286BDA59
:10026000C3F3130040F4801B0098924620B1002392
:10027000D2EB030A63EB0B0B01985946C0F1400225
:10028000504600F0D8F906460D4650465946019AA8
:1002900000F0F0F910EB08006141002487EA1152E8
:1002A00084EAE7731A4340D0009A62B3019A012AA4
:1002B0004FEA075215DC001B61EB02014FF00042D0
:1002C00002EA0752CDE90042001C41F58011324696
:1002D0002B4600F045FA03B0BDE8F08F40462146BA
:1002E000F9E7001B61EB0201001C41F580130018C7
:1002F0005B412018A2F5001747EB030140EAD570D7
:10030000B6196D4111E06D084FEA360645EAC07531
:100310004FEA0752001B61EB0201001C41F58011FE
:1003200049084FEA30000019514132462B4603B0CC
:10033000BDE8F04F00F005BA00980122400000230C
:10034000D0EB020263EBE073009821464FEAE074C1
:10035000B8EB000061EB0401E9E783F000435BE7E1
:1003600081F0004158E72DE9FE4F81EA030404F0D3
:10037000004421F0004100944FF0000B23F00043B3
:1003800050EA01045ED052EA03045BD0C3F30A547E
:10039000C1F30A552C44A4F2F3340194A0FB025497
:1003A000C1F3130141F48011C3F3130343F4801329
:1003B00001FB024400FB034E840A970A44EA81547D
:1003C00047EA8357A4FB076802958D0A05FB07855A
:1003D0004FEA932C04FB0C542705029D4FEA065864
:1003E00047EA1637B5EB08056EEB070C870E920E41
:1003F00047EA811742EA8312A7FB0201B6EB0B0121
:1004000064EB00042B0D43EA0C335E1844EB1C50E4
:10041000DA465146E7FB0201C5F313044FEA0B33FA
:1004200043EA14534FEA0432019C43EA0603A4F161
:100430000C040294009CCDE900B400F091F903B0E3
:10044000BDE8F08F00200146F9E72DE9F04D81EA83
:10045000030404F0004B21F0004514464FF0000A5D
:1004600023F0004150EA050220D054EA01021DD0D9
:10047000C5F30A570246C5F31303C1F31300C1F3D2
:100480000A5640F4801543F48013A7EB0608101BAE
:10049000D64608F2FD3873EB050002D308F10108D7
:1004A00001E092185B41B8F1000F03DA0020014629
:1004B000BDE8F08D00204FF48011064684460EE022
:1004C000171B73EB050705D3121B63EB05030643EC
:1004D0004CEA010C49084FEA300092185B4150EA9F
:1004E0000107EDD152EA030012D082EA040083EA48
:1004F0000501084305D0101BAB4106D201220023A1
:1005000006E000224FF0004302E06FF001025310BA
:100510001AEB06004CEB085110EB0A0041EB0B0103
:10052000BDE8F04D00F00DB90EB5C10F80EAE070E6
:100530000844CA07002140F233438DE80E000A4602
:100540000B4600F00DF903B000BD00F0004230F0A2
:1005500000400AD0C10D01F56071C0F3160042EAF7
:100560000151C208400711437047002001467047FF
:1005700001F0004330B421F0004150EA010206D0FE
:100580000A0DA2F56072C1F31301002A02DC30BC2F
:1005900000207047440F44EAC104C100E01830BC99
:1005A00000EBC25000F078B830B50B460146002091
:1005B0002022012409E021FA02F59D4205D303FA25
:1005C00002F5491B04FA02F52844151EA2F10102A6
:1005D000F1DC30BD2DE9F05F0546002092469B46D8
:1005E00088460646814640241BE028464146474649
:1005F000224600F02FF853465A46C01A914110D3B4
:1006000011461846224600F016F82D1A67EB01082D
:100610004F4622460120002100F00DF817EB00099B
:100620004E41201EA4F10104DFDC484631462A4633
:100630004346BDE8F09F202A04DB203A00FA02F18D
:10064000002070479140C2F1200320FA03F31943C0
:1006500090407047202A04DB203A21FA02F0002162
:10066000704721FA02F3D040C2F1200291400843C2
:1006700019467047202A06DBCB17203A41FA02F0D0
:1006800043EAE07306E041FA02F3D040C2F12002EF
:1006900091400843194670470029A8BF7047401C85
:1006A000490008BF20F00100704710B4B0FA80FC88
:1006B00000FA0CF050EA010404BF10BC704749B1C5
:1006C000CCF1200421FA04F411FA0CF118BF012135
:1006D00021430843A3EB0C01CB1D4FEA00614FEA15
:1006E000102042BF002010BC704700EBC3501044E4
:1006F0000029A4BF10BC7047401C490008BF20F06F
:10070000010010BC704710B541000CD0C0F3C751B8
:10071000962908DC7E2909DC06DB410204D000F0C2
:10072000004040F07E5010BD002010BDC1F1960485
:10073000C4F1200100FA01F1E040FFF7ADFFA04055
:1007400010BD10B5141E73F1000408DA401C41F10D
:10075000000192185B411A4301D120F0010010BD45
:100760002DE9F04D92469B4611B1B1FA81F202E0BB
:10077000B0FA80F220329046FFF75DFF04460F4644
:1007800040EA0A0041EA0B0153465A46084313D097
:10079000114653EA010019D0C8F140025046FFF754
:1007A00059FF05460E46504659464246FFF743FF5D
:1007B000084305D0012004E020463946BDE8F08D0D
:1007C0000020054346EAE0762C4337430A98630548
:1007D000E40AA0EB08000022FD0A44EA47540A306C
:1007E00002D500200146E9E7010510196941DDE95C
:1007F000084500196941BDE8F04DA2E72DE9F04D2B
:1008000000231A461B1A8A4103DB00200146BDE87B
:10081000F08DC1F30A52C1F3130141F480154FF07A
:10082000000BD10702D100186D41521E002704466B
:1008300040F2FF11384601EB620A3E46804602460E
:1008400000204FF48011FFF705FFC2197141BB185A
:1008500046EB0100B4EB030C75EB000C04D3E41A77
:1008600065EB000517460E46241908F101006D419D
:1008700080463428E3DDF91946EB0600091BA84140
:1008800003D24FF0FF32134601E0002213461BEB68
:10089000070046EB0A51BDE8F04DFFF752BFC1F328
:1008A0000A52C1F3130140F2FF3341F480119A421E
:1008B00002DA00200146704740F233439A42A2F226
:1008C000334202DC5242FFF7C5BEFFF7B4BE000060
:1008D00030B5041E71F1000404DB4FF000444042C7
:1008E00064EB0101141E73F1000405DB1C464FF09C
:1008F0000043524263EB0403994208BF904230BD6B
:10090000064C074D06E0E06840F0010394E807005C
:1009100098471034AC42F6D3FFF73AFC184C000865
:10092000384C000870B58C1810F8015B15F00703FF
:1009300001D110F8013B2A1106D110F8012B03E078
:1009400010F8016B01F8016B5B1EF9D12B0705D480
:100950000023521E0DD401F8013BFAE710F8013BC9
:10096000CB1A921C03E013F8015B01F8015B521EE5
:10097000F9D5A142D8D3002070BD002904D08168E8
:1009800041F0010181607047816821F001018160BF
:100990007047000010B5074C226807490A40D0E9AB
:1009A00000131943D0E90230034319431143216076
:1009B00010BD000004230140E030FCFF002904D0FA
:1009C000816841F4807181607047816821F4807191
:1009D00081607047002904D0816841F40071816012
:1009E0007047816821F400718160704730B54268BA
:1009F0000F4B1A400C790B6842EA04221343436000
:100A000083680C4A1340D1E9034222434D798C6834
:100A100044EA450422431A438260C26A22F4700207
:100A2000097D491EC9B242EA0151C16230BD0000D0
:100A3000FFFEFFFCFDF7FFC070B5072609290AD9A4
:100A4000C568A1F10A0404EB4404A640B543A340E1
:100A50001D43C56007E0056901EB4104A640B543AD
:100A6000A3401D4305611F23072A09D2446B521E70
:100A700002EB820293409C4391400C43446370BD5F
:100A80000D2A09D2046BD21F02EB820293409C43D1
:100A900091400C43046370BDC46A0D3A02EB8202BC
:100AA00093409C4391400C43C46270BD816841F007
:100AB000804181607047FEE730B587B01E4C02214F
:100AC000204600F097F8002833D00221204600F09D
:100AD0004DF802AA0021204600F0F2F89DF810001F
:100AE000002826D19DF81B00144C217888420AD298
:100AF0001C2808D2124951F8205025B106980090C0
:100B000002A80FC8A8470E490298103908609DF83E
:100B100012000871002002AA05E013180D18DB7AF4
:100B20006B71401CC0B20B798342F6D86068401CE0
:100B3000606007B030BD0000006400401800002075
:100B4000E883002010B5084C0121204600F052F83F
:100B5000002807D00121204600F008F8BDE8104029
:100B600001F072BD10BD00000064004030B50823E4
:100B700010240422B1F5007F33D011DC20292AD0C3
:100B800007DC012922D0042923D0082900D1C46020
:100B900030BD402921D0B1F5807FF9D1426030BD10
:100BA0000025B1F5004F20D008DCB1F5806F1AD0D8
:100BB000B1F5006FF3D18561426030BDB1F5803F82
:100BC0000DD0B1F5003FF8D1446030BD08498160D7
:100BD00030BDC36030BD036130BD046130BD4360D2
:100BE00030BD426030BD426030BD8561426030BD85
:100BF000010101000246002053690B425DD0B1F5AE
:100C0000807F4AD016DC082937D009DC01292CD096
:100C100002292ED0042950D1D068082100F0ECB868
:100C200010292ED0202930D0402946D1106910211A
:100C300000F0E2B8B1F5004F3BD00CDCB1F5007F1D
:100C40002FD0B1F5806F30D0B1F5006F35D19069FC
:100C5000702100F0D1B8B1F5803F1AD0B1F5003F56
:100C60002BD15068102100F0C7B89068134900F0EC
:100C7000C3B8D068032100F0BFB8D068102100F0DD
:100C8000BBB81069032100F0B7B81069082100F063
:100C9000B3B85068082100F0AFB89069012100F0A6
:100CA000ABB89069022100F0A7B89069042100F068
:100CB000A3B85068042100F09FB8704701010100FB
:100CC00010B500EB0113D3F8B04104F00404147222
:100CD000002C2CD0D3F8B041E408546003F5D8734D
:100CE0001C6804F0020454725C6804F00F049472EF
:100CF0005C68240AD4749C68D4729C68240A1473B7
:100D00009C68240C54739C68240E9473DC68D47320
:100D1000DC68240A1474DC68240C5474DB681B0E31
:100D2000937449B1016941F02001016110BDD3F80C
:100D3000B041640D1460D1E7C16841F02001C16089
:100D400010BD30B50246002093685B010AD490685C
:100D5000000101D5012005E09068C00001D5022006
:100D600000E0042004283BD002EB0012D2F88031CE
:100D700003F00103C2F880310B7A93B3D2F88041BB
:100D80004D681C434B7A43EAC5031C43C2F88041BB
:100D90008B7A03F00F038B7202F5C072536823F055
:100DA0000F03536053688C7A23435360CB7A8C7B58
:100DB0000D7B43EA04634C7B240444EA052423436B
:100DC0009360CB7B8C7C43EA04634C7C097C2404D9
:100DD00044EA01210B43D360116841F00101116025
:100DE00030BDFFE7D2F880314C7A23430C8843EAC8
:100DF0004453C2F88031CBE7024600200A4200D0BB
:100E000001207047002904D0016841F00101016010
:100E10007047016821F00101016070472DE9F0433E
:100E2000016821F0010101600021016041608160E1
:100E3000C1600161212141613E493E4A10394FF0B4
:100E40003D08904203D1C1F80880BDE8F083394ADB
:100E50004FF474651832904201D18D60F5E7354A40
:100E60004FF474163032904201D18E60EDE7314A72
:100E70004FF074674832904201D18F60E5E72D4B07
:100E80002D4A6033984201D1CA60DEE7294C2B4BD2
:100E90007834A04201D1CB60D7E7DFF898C0284C66
:100EA0000CF1900C604501D1CC60CEE7DFF8849066
:100EB0004FF03D5C09F1A809484502D1C1F80CC0CA
:100EC000C3E72049DFF87C900839484502D1C1F8D2
:100ED0000080BAE7DFF86C8008F11808404501D1BE
:100EE0000D60B2E7174D3035A84201D10E60ACE776
:100EF000144D4835A84201D10F60A6E7114D1149A4
:100F00006035091FA84201D10A609EE70D4A783278
:100F1000904201D10B6098E70A4A9032904201D189
:100F20000C6092E7074AA83290428ED1C1F800C007
:100F30008BE70000106002403D000020400F0020C1
:100F400000003D201064024030B50368124A13408F
:100F5000CC680A682243D1E905452C432243CC6979
:100F600022430C6A22434C6A22438C6A22434C6B14
:100F700022438C6B22431A430260426922F007032A
:100F8000D1E90B2422431A4342610A6942604A684C
:100F900082608968C16030BD3F801CF070472DE9D8
:100FA000F041002201274FF0030C07FA02F50B680D
:100FB0002B40AB422CD1066853000CFA03F4A64335
:100FC00006600E79D0F800809E4046EA080606606A
:100FD0000E79012E01D0022E12D18668A6438660BA
:100FE0004E79D0F808809E4046EA0806866046683A
:100FF000AE43466045688E799640B6B2354345604B
:10100000C568A543C560CC799C40C3681C43C460D7
:10101000521C102AC9D3BDE8F08110B54B07DB0E76
:101020009A40C90800EB8100016A0F249C40A1434B
:101030000162016A1143016210BD4183704701835F
:1010400070474FF6FF71016000210171417181719C
:10105000C1717047002A01D00183704741837047F6
:10106000FEE7FEE77047000030B50F23C278012588
:101070000178002A1FD0154A126802F4E062C2F516
:10108000E062C2F30722C2F10404D3404278A240D6
:1010900084781C401443220101F1E02181F80024EE
:1010A000007800F01F018D404009800000F1E02031
:1010B000C0F8005130BD01F01F0085404809800094
:1010C00000F1E020C0F8805130BD00000CED00E0E0
:1010D00070470000054A002903D0116801431160E0
:1010E000704711688143116070470000303802403A
:1010F000054A002903D01168014311607047116847
:10110000814311607047000040380240054A0029C1
:1011100003D0116801431160704711688143116069
:101120007047000060380240054A002903D011686A
:1011300001431160704711688143116070470000DE
:1011400020380240054A002903D01168014311608C
:1011500070471168814311607047000044380240B5
:10116000054A002903D011680143116070471168D6
:10117000814311607047000024380240002904D0E8
:10118000018841F4005101807047018821F4005129
:1011900001807047002904D0018841F0400101809E
:1011A0007047018821F0400101807047024600200D
:1011B00012890A4200D001207047808970478181DE
:1011C000704730B5028802F441530A884C88CD88B4
:1011D00022438C882C4322430C8922434C8922438E
:1011E0008C892243CC8922431A430280828B22F4C9
:1011F00000628283098A018230BD002904D081887F
:1012000041F0040181807047818821F004018180D0
:10121000704770470CB50022019200922949086876
:1012200040F4803008604FF4A043086800F40030B8
:1012300000900198401C0190009810B901989842C4
:10124000F3D10868800302D50120009000E00092ED
:101250001C484030026842F0805202601A4802681E
:1012600042F4404202601748083002680260026897
:1012700042F400420260026842F4A0520260009B05
:10128000021F012B1AD0114B13600A6842F08072C2
:101290000A600A689201FCD50D4A40F2057111609E
:1012A000016821F003010160016841F00201016061
:1012B0000168C1F381010229FAD10CBD054B13600D
:1012C000E3E70000003802400070004010540007BF
:1012D000003C02400854400708B5002800DA4042AC
:1012E00000EE100AB8EEC00A8DED000A124A00990D
:1012F00002EB510100919DED000ABCEEC00A10EE18
:10130000101A82030023B2FBF1F0401843EB0301F3
:10131000401C41F1000149084FEA3000B2FBF0F1F6
:1013200008185B41401C43F1000149084FEA3000B6
:101330004FEA401008BD000000403B23704700000A
:1013400070B51D4E306800F00C001C4B1C49002885
:101350000FD05D1004280ED008280ED00B60306826
:10136000174AC0F30310121D105C0A68C2400A60DD
:1013700070BD0B60F3E70D60F1E70F4A121F1068B4
:10138000C0F38054106800F03F0034B1B5FBF0F0BA
:101390001368C3F38813584305E0B3FBF0F01368F8
:1013A000C3F3881358431268C2F30142521C52001F
:1013B000B0FBF2F00860D2E7083802400024F400E5
:1013C0000000002010B51248016841F4700101606E
:1013D0001048016841F0010101600E4A0021083205
:1013E000116002680C4B1A400260031D0B4A1A6020
:1013F000026822F48022026006480C300160FFF788
:1014000009FF03494FF000608039086010BD0000FB
:1014100088ED00E000380240FFFFF6FE10300024A7
:1014200010B50C4C0121204600F033F900280BD0F8
:101430000121204600F01EF80748418829B100210B
:1014400041808188491C818010BD4188491C4180B0
:1014500010BD0000000C0040C8060020002904D088
:10146000018841F0800101807047018821F08001EE
:1014700001807047C94301827047C94301827047A8
:10148000002904D0018841F00101018070470188E2
:1014900021F0010101807047002905D030F8441F78
:1014A00041F400410180704730F8441FC1F30E0140
:1014B0000180704710B55D49884209D10121084675
:1014C000FFF74EFE0021BDE810400120FFF748BEA7
:1014D000B0F1804F0CD05649884213D1012102202F
:1014E000FFF722FE0021BDE810400220FFF71CBEDE
:1014F00001210846FFF718FE0021BDE81040012039
:10150000FFF712BE4B49884209D101210420FFF7A1
:101510000BFE0021BDE810400420FFF705BE464940
:10152000884209D101210820FFF7FEFD0021BDE816
:1015300010400820FFF7F8BD4049884209D1012139
:101540001020FFF7F1FD0021BDE810401020FFF74B
:10155000EBBD3B49884209D101212020FFF7E4FD82
:101560000021BDE810402020FFF7DEBD354988424C
:1015700009D101210220FFF7F3FD0021BDE8104051
:101580000220FFF7EDBD304988420AD101210C0449
:101590002046FFF7E5FD2046BDE810400021FFF79B
:1015A000DFBD2A4988420AD101214C042046FFF7B9
:1015B000D7FD2046BDE810400021FFF7D1BD2449EA
:1015C00088420AD101218C042046FFF7C9FD20463C
:1015D000BDE810400021FFF7C3BD1E49884209D174
:1015E00001214020FFF7A0FD0021BDE81040402070
:1015F000FFF79ABD1849884209D101218020FFF7E1
:1016000093FD0021BDE810408020FFF78DBD1349F8
:1016100088420AD1841501212046FFF785FD204626
:10162000BDE810400021FFF77FBD10BD0000014064
:101630000004004000080040000C00400010004082
:1016400000140040000401400040014000440140FB
:101650000048014000180040001C004000200040ED
:1016600070B50589048B068C25F007050D434FF6F0
:10167000FC410C4040F201110C4326F022064FF6CB
:10168000FF7101EA03111143314305810483018491
:1016900070BD02460020138A0B4092890A40002B3D
:1016A00002D0002A00D001207047002A03D082898E
:1016B0000A438281704782898A4382817047000091
:1016C00030B5028C22F001020284058C8388028BE3
:1016D00022F0700222F003020C88144325F002026B
:1016E0008D8915434A882A430D4DA84202D00D4DDD
:1016F000A8420FD122F00805CA892A4322F0040526
:101700008A882A4323F4807323F400730D8A1D43CF
:101710004B8A2B438380048389684163028430BDF4
:101720000000014000040140028B22F008020A433D
:1017300002837047416370474162704730B5028849
:10174000164C174DA0420DD0A8420BD0B0F1804FDF
:1017500008D0144B984205D0134B984202D0134B3B
:10176000984203D122F070034A881A43104B9842E2
:1017700006D0104B984203D022F440730A891A43D2
:1017800002804A68C2620A880285A04201D0A8424B
:1017900001D1897A01860121818230BD000001409A
:1017A000000401400004004000080040000C00401C
:1017B000001000400014004070B50D4D40F225545B
:1017C0002146284600F0AAF800280FD00948C07822
:1017D00030B9284600F0C2F80749C0B2CA6890473D
:1017E00021462846BDE8704000F090B870BD00006A
:1017F000004C00405D060020288C002070B50D4D87
:1018000040F225542146284600F088F800280FD0E1
:101810000948007930B9284600F0A0F80749C0B25D
:101820000A69904721462846BDE8704000F06EB82E
:1018300070BD0000005000405D060020288C002094
:1018400070B50D4D40F225542146284600F066F84B
:1018500000280FD00948007830B9284600F07EF8FB
:101860000749C0B20A68904721462846BDE8704043
:1018700000F04CB870BD0000001001405D06002073
:10188000288C002070B50D4D40F225542146284685
:1018900000F044F800280FD00948407830B92846B5
:1018A00000F05CF80749C0B24A68904721462846D4
:1018B000BDE8704000F02AB870BD00000044004050
:1018C0005D060020288C002070B50D4D40F2255497
:1018D0002146284600F022F800280FD009488078D9
:1018E00030B9284600F03AF80749C0B28A689047F4
:1018F00021462846BDE8704000F008B870BD0000E1
:10190000004800405D060020288C002040F66A1246
:101910000A0A01219140C9430180704770B5002433
:1019200040F66A12C1F3421301F01F05012606FAC0
:1019300005F2012B0CD0022B0DD0838A1340090A2B
:101940008E40008830400BB100B10124204670BDAC
:1019500083891340F3E7038A1340F0E78088C0F3DC
:1019600008007047FEE7000037B514460846064BEE
:101970006A46214600F08CF904466946002000F0D2
:101980001EFD20463EBD0000BF23000810B52DED12
:10199000028BB0EE408A18EE100AFEF7B4FE01EE9C
:1019A000100A18EE100AB7EE000A78EE410A10F09D
:1019B000004F4FF07F4010EE901A12D0B1F13F4F20
:1019C00024BF10EE901AB0EB410F12D210EE901A15
:1019D000B1F17C5F1CDD10EE901AB0EB410F17D314
:1019E00014E0B1F13F4F07D910EE901AB0EB410F60
:1019F00002D331EE401A0BE010EE901AB1F17C5F89
:101A000006DB10EE901AB0EB410F01D331EE001A55
:101A100018EE100ABDEC028B11EE101A61F31E00D5
:101A200000EE100A10BD00B52DED048BB0EE409A0B
:101A3000F0EE609A83B051EC190BFEF7DFFE41EC3B
:101A4000180B18EE100A18EE901A8DED008B002876
:101A500018BF0120084320F00040C0F17F6000F172
:101A6000E040C00F14D019EE101A19EE900A8DED57
:101A7000009B002918BF0121084320F00040C0F15D
:101A80007F6000F1E040C00F04BF012000F018F8B3
:101A9000B0EE480A03B0F0EE680ABDEC048B00BD5E
:101AA00002E008C8121F08C1002AFAD17047704727
:101AB000002001E001C1121F002AFBD17047000085
:101AC0000149086070470000D40600202DE9F0416C
:101AD0000446154F3878002821D101263E704FF476
:101AE0007A7C00254FF0E02212E061468C4200D85B
:101AF000214642F2283048435061956116611069D1
:101B0000C30701D0C003FAD515619561601A84B28C
:101B1000002CEAD13D70BDE8F08101F02FF8641E81
:101B2000A4B2FAD2F7E70000C80600202DE9FF5F53
:101B3000DDE90220010DDDF838B0024318D044F68B
:101B40001050A1F2FF3141430D140F98012820D00D
:101B5000A5EB0B00401C5FEA000A4FF00004474E63
:101B6000DFF81C91A046504616D5CAF1000728E0C0
:101B70000F98012443A2012808D0002100980F9B50
:101B8000C0E90021C0E90243BDE8FF9F6FEA0B01F5
:101B9000F4E7CBF10000DEE7074612E0F80707D0D4
:101BA0002246334640464946FEF7DDFB80468946DD
:101BB0002246334610461946FEF7D5FB04460E462C
:101BC0007F10002FEAD1DDE90201BAF1000F424691
:101BD0004B4602DAFEF7C7FB01E0FEF736FC04468F
:101BE0000E460022284BFEF773FE03D84FF0FF305D
:101BF000014607E00022254B20463146FEF70CFB4C
:101C0000FEF74DFE102409E0002C0ADB0A22002317
:101C1000FEF7E0FC019B30321A55641E50EA0102C7
:101C2000F2D1641C019AC4F1110314440F9A012AE1
:101C300003D0012208430DD10AE0084304D000205C
:101C40004FF0110B0F9080E7A3EB0B056D1E0DE01D
:101C50005B4504DD4FF0000205F1010504E003DA05
:101C60004FF00002A5F10105002AECD000980F9971
:101C7000C0E90231C0E9004586E7000000002440C9
:101C80000000F03F300000000000F0430000E03FA3
:101C90002DE9FF4F95B09B468946064600250FE289
:101CA000252877D100242746F84A0121059400E031
:101CB000044316F8013F203B01FA03F01042F7D12C
:101CC00030782A2811D06FF02F033078A0F130023D
:101CD000092A16D8059A44F0020402EB820203EBAB
:101CE00042021044761C0590EFE759F8042B059248
:101CF000002A03DA504244F40054059044F00204F0
:101D0000761C30782E2816D116F8010F44F0040402
:101D10002A280DD06FF02F023078A0F13003092B64
:101D200009D807EB870302EB4303C718761CF3E7D8
:101D300059F8047B761C30786C280FD006DC4C28D0
:101D400017D068280DD06A2814D104E0742810D068
:101D50007A280FD10DE044F400140AE044F4801412
:101D600001E044F440147278824202D104F58014F8
:101D7000761C761C307866280BD013DC582877D078
:101D800009DC002875D04528F6D04628F4D047282D
:101D90001AD19DE118E0632835D0642879D06528F0
:101DA00012D195E1702873D008DC6728F1D069283A
:101DB0006FD06E280DD06F2806D1B5E073282CD0D7
:101DC000752875D0782874D05A46179990476D1C9D
:101DD00075E1C4F30250022809D003280DD0D9F8C8
:101DE000001004280DD00D6009F1040967E1D9F84D
:101DF0000010EA17C1E90052F6E7D9F800100D808B
:101E0000F2E70D70F0E719F8041B8DF800100020C0
:101E10008DF80100EA46012003E059F804AB4FF0C9
:101E2000FF3061074FF0000102D40DE008F101011D
:101E30008846B9420FDA8045F8DB1AF80810002905
:101E4000F4D108E008F1010188468142FADB1AF872
:101E500008100029F6D105985B46A0EB080721463B
:101E60003846179A00F094FA284400EB080507E07A
:101E70004DE029E10DE01AF8010B5A4617999047F9
:101E8000B8F10108F7D25B4621463846179A13E1AC
:101E900042E00A220092C4F302524FF0000A022AE2
:101EA00008D059F804CB032A4FEAEC710AD00DE0B0
:101EB00029E02AE009F1070121F00702F2E802C156
:101EC000914609E00FFA8CFC4FEAEC71042A03D129
:101ED0004FFA8CFC4FEAEC71002907DA0A46002120
:101EE000DCF1000C61EB02012D2202E0220504D599
:101EF0002B228DF80420012203E0E20701D02022EA
:101F0000F7E7904659E00A2102E010220DE0102187
:101F10004FF0000A00910BE010224FF0000A44F04D
:101F200004040827009203E008224FF0000A009200
:101F3000C4F30252022A05D059F804CB0021032A27
:101F400008D009E009F1070121F00702F2E802C117
:101F5000914605E01FFA8CFC042A01D10CF0FF0C1D
:101F60004FF00008220728D5702806D0009B83F088
:101F7000100353EA0A0305D00EE040228DF8042036
:101F8000012208E05CEA010206D030228DF804202C
:101F90008DF8050002229046009B83F0080353EA67
:101FA0000A030AD15CEA010201D1620705D5302299
:101FB0008DF804204FF001087F1E582804D034A06B
:101FC00003900EA802900DE036A0F9E75346604654
:101FD000009AFEF7FFFA84460398825C0298401E3E
:101FE000029002705CEA0100F0D1029806A9081A7A
:101FF00000F1200A600702D524F4803400E00127B4
:10200000574502DDA7EB0A0000E0002000EB0A01C3
:10201000009005984144401A0590E00306D45B46C1
:102020002146179A059800F0B3F90544002706E009
:1020300001A85A46C05D179990476D1C7F1C474503
:10204000F6DBE0030CD55B462146179A059800F0B5
:102050009FF9054404E030205A46179990476D1CBB
:102060000099481E00900029F5DC08E002980299CA
:102070005A460078491C0291179990476D1CBAF195
:102080000001AAF1010AF1DC65E100000928010064
:1020900030313233343536373839616263646566DE
:1020A00000000000303132333435363738394142A0
:1020B000434445460000000000F058F90544761CF2
:1020C000307800287FF4ECAD19B02846BDE8F08FD9
:1020D000620700D4062709F1070222F0070CFCE88A
:1020E0000223E14603F000485FEA080C02D00FF239
:1020F000702C0DE05FEA045C02D50FF2682C07E05B
:102100005FEAC47C02D00FF2602C01E0AFF2700CE9
:102110004FF0FF3823F00043CDF850C065280CD0B5
:1021200006DC452809D046281DD047283DD13DE092
:10213000662818D067287ED138E00021112F01DBF6
:10214000112000E0781CCDE9000106A90EA8FFF7D8
:10215000EDFCDDE90F010E9A03910021009207F1D9
:10216000010A04914DE04FF000400097CDE90110C5
:1021700006A90EA8FFF7DAFCDDE90F0203920E9B19
:1021800011990022DDF80CA00093049211B9791C7A
:1021900000EB010AB7EB0A0004D4C0F1FF3007F1ED
:1021A000010A0490AAEB0700019044E0012F00DA35
:1021B00001270021112F01DD112000E03846CDE973
:1021C000000106A90EA8FFF7B1FCDDE90F010E9A88
:1021D0000391002104910092BA4621070CD403997F
:1021E000514500DA8A46BAF1010F05DD009AAAF1DD
:1021F0000101515C302908D0B84202DA10F1040F15
:1022000006DA0121CDE9011015E0AAF10101E9E7A3
:10221000002805DC049901440491AAEB000102E0C6
:10222000411C514500DD8A460499401A401C01902A
:102230004FF000400290200704D40198504501DB84
:10224000CDF8048000208DF84F0002980DF14F0763
:10225000B0F1004F25D02B200E9002984FF00208CD
:1022600000280CDA404202902D200E9007E00A214F
:102270000298FEF799F93031029007F8011DB8F184
:102280000001A8F10108F2DC02980028EFD1791EC4
:102290000E980870307800F0200040F0450007F8F4
:1022A000020D12A8C01B00F107081498007800B1B5
:1022B000012000EB0A01019801EBE071059841440F
:1022C000401A401E0590E00306D45B462146179A4B
:1022D000059800F05DF805441498007818B15A4646
:1022E000179990476D1CE00324D55B462146179A49
:1022F000059800F04DF805441CE00498002807DB21
:10230000DDE90301884203DD0098405C179901E094
:10231000179930205A469047049805F10105401C52
:1023200004900198401E019004D12E205A4617991E
:1023300090476D1CBAF10001AAF1010ADDDC05E04D
:1023400017F8010B5A46179990476D1CB8F1000118
:10235000A8F10108F4DC5B462146179A0598ABE624
:102360002D0000002B000000200000002DE9F041AE
:10237000044600251E461746880404D405E0394665
:102380002020B0476D1C641EF9D52846BDE8F081B9
:102390002DE9F041044600251E469046C80301D5AC
:1023A000302700E02027880404D505E04146384660
:1023B000B0476D1C641EF9D52846BDE8F0810A6857
:1023C000531C0B60107070472DE9F0439BB0012146
:1023D0000F023846FEF7B6FE01210420FEF77AFE12
:1023E00001218805FEF776FE03218DF840100024B8
:1023F0008DF843400F910FA92E48FEF7D0FD17949A
:10240000199418941A9417A8FEF7C4FA01258DF8A8
:1024100049508DF848501194149413941594022641
:102420008DF85860DFF8908011A94046FEF7DEFA7B
:10243000072301220A214046FEF7FEFA0723022263
:102440000B214046FEF7F8FADFF870904846FEF799
:10245000E5FC009418484C30019019480290039410
:1024600004960594A802069040000790800008900A
:10247000099700010A900B940C950D940E946946EF
:102480004846FEF761FD01214846FEF7BBFC0121ED
:102490004046FEF79FFA01214046FEF78FFA0121E0
:1024A0004046FEF76AFA4046FEF700FB1BB0BDE867
:1024B000F083000000080240002001401064024048
:1024C0001400002070B500240A4D012155F82400A5
:1024D00000F0B8F9641CE4B2042CF6D30424022101
:1024E00055F8240000F0AEF9641CE4B2082CF6D3D1
:1024F00070BD00002C00002070B58AB0394900245E
:102500000C804EF6E6604880022042F66313421EBD
:1025100042F2107531F812206A43B2FBF3F221F84F
:102520001020401CC0B20D28F1D301210220FEF77B
:10253000D1FD02208DF82400010208918DF82500BC
:102540008DF826408DF82740274D08A92846FEF72C
:1025500026FD032209212846FEF75FFD012188049C
:10256000FEF7F0FDADF81640ADF81C401F482049BD
:102570000068B0FBF1F0401EADF814001D4D6889F5
:1025800006901D4E05A93046FFF7D8F8ADF80C406F
:10259000ADF80E406020ADF80000ADF81040ADF889
:1025A00012400120ADF802000420ADF80400A87824
:1025B000029069463046FFF783F801213046FEF766
:1025C0004DFF08213046FFF7AFF801213046FEF7F6
:1025D00063FF01213046FEF753FF00F00FF80AB009
:1025E00070BD00003C8C0020000402400000002070
:1025F00040420F008C0600200048014000210148A5
:10260000FFF798B800480140064801680268C1F326
:102610008061C2F3C06200681144C0F300700844D6
:1026200070470000086400400FB410B502A90548C7
:10263000FEF787FB042803D0012010BC5DF814FBD3
:102640000020FAE70064004030B58BB000F042F89B
:1026500018B9FFF7D9FF032802D000200BB030BD16
:102660001B4C07AD2188A06800EB011090E80E001C
:10267000C0680EC50A909DF82000079902910021BC
:1026800003918DF811108DF810108DF8120007A924
:1026900002AA03E00B1815185B79EB72401EC0B25A
:1026A000F8D20698009002A80FC8FFF7BDFF38B116
:1026B0002088A188401CB0FBF1F201FB12002080B1
:1026C000FFF7A2FF08B1FFF7BFFF0120C6E7000038
:1026D00020000020044801884088814201D1012067
:1026E0007047002070470000200000202DE9F043D3
:1026F00085B001210220FEF725FD01210420FEF70F
:10270000E9FCDFF81491032206214846FEF785FC18
:10271000032207214846FEF780FC01210420FEF732
:10272000E7FC01210220FEF7D5FCDFF8F080022251
:1027300006214046FEF771FC022207214046FEF7C3
:102740006CFC03A8FEF77DFCC026039602278DF8DB
:10275000107000248DF812408DF8134003258DF879
:10276000115003A94846FEF71AFC03A8FEF769FCBE
:1027700003968DF810708DF812408DF813408DF887
:10278000115003A94046FEF70AFC254E01213046B0
:10279000FEF773FE3046FEF78DFEADF800404FF6B3
:1027A000FF750195ADF80840ADF802406946304626
:1027B000FEF7C4FF1B4F01213846FEF75EFE384688
:1027C000FEF778FEADF800400195ADF80840ADF891
:1027D000024069463846FEF7B1FF00231A4603213E
:1027E0003046FEF73DFF00213046FEF7A5FF0121F0
:1027F0003046FEF745FE00231A4603213846FEF711
:102800002FFF00213846FEF797FF01213846FEF7DB
:1028100037FE05B0BDE8F083000802400004024026
:10282000000401400008004002484188808801EB14
:1028300040007047C80600200148408870470000EB
:10284000C80600201CB500228DF804208288009262
:102850008DF8071000686946FEF7A1FB1CBD1CB58A
:1028600001238DF804308DF80530838800938DF8AE
:1028700006108DF8072000686946FEF790FB1CBD26
:1028800010B501210846FEF725FC01210220FEF7C4
:1028900021FC01210420FEF71DFC01210820FEF788
:1028A00019FC01211020FEF715FC01212020FEF764
:1028B00011FC01214020FEF70DFC01218020FEF7D4
:1028C00009FC01210802FEF705FC01214802FEF780
:1028D00001FC0121BDE810408802FEF7FBBB0A465F
:1028E00081880068FEF7B6BB10B500221146044887
:1028F000FFF7B5FFBDE8104000210148FFF7EFBF2B
:10290000F04B00082DED0C8BADF5487DFEF75AFD20
:10291000FEF716FDFFF7B4FF02F028F9FFF754FDAC
:102920001F234FF6FF720021022000F0F7FAFFF795
:10293000DBFFFFF7E1FDFFF7C5FDFFF7D7FE00F076
:10294000B5F87821552000F0C7FB4FF4C874214634
:1029500064A8FDF756FC21466846FDF752FC0024AA
:10296000DFED468A9FED468A6F46FDF731FC00EEAB
:10297000100AB8EEC00A20EE280A20EE080AFFF777
:1029800005F8BDEEC00A10EE100A47F82400641CDA
:10299000A4B2642CE9D3FFF747FF054600240DF5E8
:1029A000C87857F82400FEF797FC48F82400641C08
:1029B000A4B2642CF5D3FFF737FF06469FED31AA8A
:1029C00000249FED31BB9FED32CB9FED33DB57F8F9
:1029D0002400FDF7A9FD41EC180B41EC100BFFF7AB
:1029E00022F853EC1B2B51EC100BFDF7BCFC41EC17
:1029F000190B58F82400FDF797FD53EC192BFDF740
:102A0000ACFC53EC1C2BFDF7AEFC53EC1D2BFDF77F
:102A1000AAFC53EC182BFDF718FD41EC180B1AEE2D
:102A2000100AFDF792FD53EC182BFDF7F5FBFDF7AF
:102A30009FFD0AEE100A641CA4B2642CC7D3741B59
:102A40009FED170A8AEE008A00F0E8F8FFF7F4FE1F
:102A5000014614A000F0CCFA18EE100AFDF775FD3F
:102A600041EC100B10A053EC102B00F0C1FA2146E2
:102A70000CA000F0BDFA01F0BBFDE5E7000000305E
:102A80000024744900000000000000000000B04075
:102A9000000000000000303F00000000000059402E
:102AA0000000C842256400002566000070B58AB0A9
:102AB00001210846FEF746FB01210846FEF70AFB06
:102AC00002208DF8240003208DF825000025294ED2
:102AD00005EB450006EBC004207B50B1208908902F
:102AE00008A96068FEF75BFA618901226068FEF759
:102AF00094FA6D1CEDB2002DEAD00024ADF816401A
:102B00004FF48070ADF81C008DF81E40A720ADF882
:102B1000140044F620600690174D05A92846FEF7DC
:102B20000DFEADF80C40ADF80E406021ADF8001080
:102B3000ADF81040ADF812400120ADF80200ADF83C
:102B400004404FF47A70029069462846FEF7B8FDBB
:102B500001212846FEF7E8FD01212846FEF77EFC0C
:102B600001212846FEF78CFC01212846FEF794FC43
:102B70000AB070BDB00600200000014010B500246E
:102B8000FDF70CFB641CE4B2642CF9D310BD00000B
:102B900070B51F4A1F4D00EB8000527902EBC20353
:102BA00003EB021405EBC40303EB40035E5C01235B
:102BB000934303EBC30202EB031205EBC20303EBE7
:102BC00040035B5C9E421ED105F5C87303EB041500
:102BD00003EB021305EB800503EB800335F811507E
:102BE00033F811309D420ED10B4B03EB041404EB70
:102BF000800403EB021202EB800034F8114030F83D
:102C00001100844201D0012070BD002070BD000081
:102C10004C000020588400200889002010B5064987
:102C2000002008710024204600F008F8641CE4B27B
:102C30000A2CF8D310BD00004C0000202DE9F04113
:102C40000021144F144C20237A7904F5C87602EB46
:102C5000C20505EB021204F5966C7D893F8904EBF1
:102C6000C20406EB02160CEB021C01EB810204EB22
:102C7000420808F8003006EB820828F810500CEBE8
:102C8000820222F81070491CC9B21429EDD3BDE8A4
:102C9000F08100004C0000205884002010B5012075
:102CA00001F008FF0A20FEF711FF112001F002FFDA
:102CB0007820FEF70BFFB12001F0FCFE012001F0AF
:102CC00027FF2C2001F024FF2D2001F021FFB2204E
:102CD00001F0F0FE012001F01BFF2C2001F018FF95
:102CE0002D2001F015FFB32001F0E4FE012001F0DA
:102CF0000FFF2C2001F00CFF2D2001F009FF012017
:102D000001F006FF2C2001F003FF2D2001F000FF51
:102D1000B42001F0CFFE072001F0FAFEC02001F040
:102D2000C9FEA22001F0F4FE022001F0F1FE842091
:102D300001F0EEFEC12001F0BDFEC52001F0E8FE6D
:102D4000C22001F0B7FE0A2001F0E2FE002001F0EF
:102D5000DFFEC32001F0AEFE8A2001F0D9FE2A205A
:102D600001F0D6FEC42001F0A5FE8A2001F0D0FEBD
:102D7000EE2001F0CDFEC52001F09CFE0E2001F0FA
:102D8000C7FE362001F096FEC82001F0C1FEE0200B
:102D900001F090FE022001F0BBFE1C2001F0B8FE05
:102DA000072001F0B5FE122001F0B2FE372001F03D
:102DB000AFFE322001F0ACFE292001F0A9FE2D204B
:102DC00001F0A6FE292001F0A3FE252001F0A0FEBF
:102DD0002B2001F09DFE392001F09AFE002001F029
:102DE00097FE012001F094FE032001F091FE1020D7
:102DF00001F08EFEE12001F05DFE032001F088FE6F
:102E00001D2001F085FE072001F082FE062001F062
:102E10007FFE2E2001F07CFE2C2001F079FE29207F
:102E200001F076FE2D2001F073FE2E2001F070FEE1
:102E30002E2001F06DFE372001F06AFE3F2001F0E8
:102E400067FE002001F064FE002001F061FE022018
:102E500001F05EFE102001F05BFE2A2001F02AFE48
:102E6000002001F055FE002001F052FE002001F08C
:102E70004FFE7F2001F04CFE2B2001F01BFE0020B6
:102E800001F046FE002001F043FE002001F040FE6C
:102E90009F2001F03DFE3A2001F00CFE052001F0DC
:102EA00037FE292001F006FEBDE810400A20FEF79B
:102EB0000DBE2DE9F04105462A2001F0FBFD002062
:102EC00001F026FE002001F023FE002001F020FE8C
:102ED0007F2001F01DFE2B2001F0ECFD002001F011
:102EE00017FE002001F014FE002001F011FE9F20CB
:102EF00001F00EFE2C2001F0DDFD00244FF4A04671
:102F00002F0A384601F004FEE8B201F001FE641C0D
:102F1000A4B2B442F5D3BDE8F08100002DE9F05F22
:102F20000646884615461F462E4C002020716071CB
:102F300001F0D4FA01F052FAFFF7B0FE2C2001F0B4
:102F4000B9FD404601F066FA284601F0C1FA38465C
:102F500001F0B8FA4046FFF7ACFF2670F2074FF0D9
:102F6000A0014FF0800006D0A170E0701420A07185
:102F70000820E07105E0E170A0701020A0710A2027
:102F8000E0710024DFF860B04FF0200A0BF5C87E36
:102F9000002304EBC40000EB041014490BEBC00247
:102FA0000EEB001C01EB0019002003EB830102EB88
:102FB00041070CEB810609EB810107F800A026F818
:102FC000105021F81080401CC0B20A28F5D95B1CB3
:102FD000DBB2142BE8D9641CE4B2022CD8D3BDE8D0
:102FE000F09F00004C000020588400200889002039
:102FF0000FB42DE9F041C2B00025002449AA02A86F
:103000004899FEF7B1FC00200190DFF8BCC09CF8A5
:1030100004109CF80770B94201D98CF8040002A88A
:1030200041E05B2921D05D2922D00D2923D00A2936
:1030300021D09CF80620944238D89CF80420BA424B
:1030400034D89CF80530401C03EBC30606EB031391
:103050001E4E06EBC30804EB840608EB460808F88E
:10306000021055B1BCF80C1009E00125401C1AE013
:103070000025401C17E0401C15E0BCF80A10DFF8E2
:10308000508008EB031808EB860828F81210DFF8C8
:103090004480BCF8081008EB031303EB860323F805
:1030A0001210641CE4B201780029BAD19CF8040023
:1030B000B84201D9002000E0401C8CF8040042B066
:1030C000BDE8F0015DF814FB4C000020588400209E
:1030D000E8850020088900202DE9F04FB9B00446AA
:1030E0000D460027002604EB0708A819C1B208F016
:1030F000FF00002201F03EF9761CF6B2272EF4D331
:103100007F1CFFB22F2FEDD30F266F1CA019F9B231
:10311000C0B2102201F02EF9761CF6B22D2EF5D396
:103120000E26E81C05F102083890A71908F0FF01E7
:10313000F8B2102201F01EF938981022C1B2F8B28C
:1031400001F018F9761CF6B22C2EEED30D26281DB0
:103150003790A81D3690681D35903798A719C1B2D1
:10316000F8B2102201F006F935981022C1B2F8B277
:1031700001F000F936981022C1B2F8B201F0FAF865
:10318000761CF6B22B2EE8D30C26E81D3490401C9A
:103190003390401C32903498A719C1B2F8B2102273
:1031A00001F0E8F833981022C1B2F8B201F0E2F869
:1031B00032981022C1B2F8B201F0DCF8761CF6B2F7
:1031C0002A2EE8D30B2605F10B003190401E3090DB
:1031D0003098A719C1B2F8B2102201F0CBF831989B
:1031E0001022C1B2F8B201F0C5F8761CF6B2292E51
:1031F000EED34FF00A0805F10F00471E05F10D0A46
:10320000C61E2F9004EB0809F1B209F0FF0010224E
:1032100001F0B0F80AF0FF0109F0FF00102201F000
:10322000A9F8F9B209F0FF00102201F0A3F82F98D5
:103230001022C1B209F0FF0001F09CF808F101086A
:1032400008F0FF08B8F1280FDCD34FF0090805F1AA
:1032500010002E90401C05F1120B2D902E9804EBBF
:103260000809C1B209F0FF00102201F083F82D987F
:103270001022C1B209F0FF0001F07CF80BF0FF0151
:1032800009F0FF00102201F075F808F1010808F0BC
:10329000FF08B8F1270FE1D34FF0080805F113003C
:1032A0002C90401C2B902C9804EB0809C1B209F01B
:1032B000FF00102201F05EF82B981022C1B209F035
:1032C000FF0001F057F808F1010808F0FF08B8F115
:1032D000260FE8D30720009005F116002A90401E23
:1032E00005F1180805F11709299029981022C1B293
:1032F000009820442890C0B201F03CF82A9810228F
:10330000C1B22898C0B201F035F8289809F0FF0141
:10331000C0B2102201F02EF8289808F0FF01C0B2C8
:10332000102201F027F80098401CC0B200900098CD
:103330002528DAD336984AF65552C1B204F1100066
:103340002790C0B201F016F81120009036984FF681
:10335000FF72C1B200982044C0B201F00BF800988F
:10336000401CC0B2009000982428EFD30F2000909A
:1033700034984FF6FF72C1B200982044C0B200F0FA
:10338000F9FF0098401CC0B2009000982528EFD3A8
:10339000339845F2AA22C1B204F10E002690C0B2C1
:1033A00000F0E8FF0F20009033984FF6FF72C1B293
:1033B00000982044C0B200F0DDFF0098401CC0B26D
:1033C000009000982528EFD333984AF65552C1B2A1
:1033D00004F125002590C0B200F0CCFF0E20009033
:1033E00032984FF6FF72C1B200982044C0B200F08C
:1033F000C1FF0098401CC0B2009000982628EFD36F
:103400000E20009030984FF6FF72C1B20098204411
:10341000C0B200F0AFFF0098401CC0B2009000980E
:103420001428EFD330984AF65552C1B204F1140073
:103430002490C0B200F09EFF30984AF65552C1B2B7
:1034400004F11C002390C0B200F094FF1F200090F4
:1034500030984FF6FF72C1B200982044C0B200F01D
:1034600089FF0098401CC0B2009000982628EFD336
:103470000E20009031984FF6FF72C1B200982044A0
:10348000C0B200F077FF0098401CC0B200900098D6
:103490001428EFD331984AF65552C1B22398C0B2DE
:1034A00000F068FF319845F2AA22C1B204F11D0074
:1034B0002290C0B200F05EFF2020009031984FF6BD
:1034C000FF72C1B200982044C0B200F053FF0098D0
:1034D000401CC0B2009000982628EFD304F10D00E4
:1034E0002190F1B2C0B24AF6555200F043FF0E20CF
:1034F00000900098F1B22044C0B24FF6FF7200F085
:1035000039FF0098401CC0B2009000981328F0D3F7
:1035100004F113002090F1B2C0B245F2AA2200F0EB
:1035200029FF04F115001F90F1B2C0B24FF6FF72EF
:1035300000F020FF1E2000900098F1B22044C0B29D
:103540004FF6FF7200F016FF0098401CC0B20090CA
:1035500000982628F0D30D26A0190AF0FF01C0B26A
:103560004FF6FF7200F006FF761CF6B2132EF3D36F
:1035700020980AF0FF01C0B24AF6555200F0FAFE58
:1035800023984FF6FF760AF0FF01C0B2324600F0F2
:10359000F1FE22980AF0FF01C0B2324600F0EAFEC6
:1035A0002026A0190AF0FF01C0B24FF6FF7200F00A
:1035B000E1FE761CF6B2262EF3D30D26A019F9B241
:1035C000C0B24FF6FF7200F0D5FE761CF6B2132E95
:1035D000F4D3209845F2AA26F9B2C0B2324600F0E0
:1035E000C9FE2498F9B2C0B2324600F0C3FE239857
:1035F0004AF65556F9B2C0B2324600F0BBFE04F1AD
:103600001F001E90F9B2C0B2324600F0B3FE202671
:10361000A019F9B2C0B24FF6FF7200F0ABFE761CF3
:10362000F6B2262EF4D30C2000902F984FF6FF729E
:10363000C1B200982618F0B200F09CFE2E984FF60A
:10364000FF72C1B2F0B200F095FE2D984FF6FF72F6
:10365000C1B2F0B200F08EFE0098401CC0B20090E3
:1036600000981228E1D30B20009000980BF0FF0186
:103670002618F0B24FF6FF7200F07CFE2C984FF641
:10368000FF72C1B2F0B200F075FE2B984FF6FF72D8
:10369000C1B2F0B200F06EFE0098401CC0B20090C3
:1036A00000981128E1D30A20009029984FF6FF7264
:1036B000C1B200982618F0B200F05CFE2A984FF6CE
:1036C000FF72C1B2F0B200F055FE0098401CC0B2CB
:1036D000009000981028E8D30A26A01909F0FF01ED
:1036E000C0B24FF6FF7200F045FE761CF6B20F2E08
:1036F000F3D30926A01908F0FF01C0B24FF6FF72FC
:1037000000F038FE761CF6B20F2EF3D3092000909D
:1037100005F11900461C1D901D984FF6FF72C1B2AD
:10372000009820441C90C0B200F024FE1C98F1B216
:10373000C0B24FF6FF7200F01DFE0098401CC0B2F0
:10374000009000980E28E7D3152000902F984FF690
:10375000FF72C1B200982044C0B200F00BFE009886
:10376000401CC0B2009000982628EFD3142000908F
:103770002E984FF6FF72C1B200982044C0B200F0FC
:10378000F9FD0098401CC0B2009000982628EFD3A5
:10379000142000902D984FF6FF72C1B2009820447B
:1037A000C0B200F0E7FD0098401CC0B20090009845
:1037B0002528EFD31520009000980BF0FF0120443E
:1037C000C0B24FF6FF7200F0D5FD0098401CC0B2A9
:1037D000009000982428EFD3152000902C984FF6E5
:1037E000FF72C1B200982044C0B200F0C3FD00983F
:1037F000401CC0B2009000981D28EFD31520009007
:103800002B984FF6FF72C1B2009820441B90C0B2B3
:1038100000F0B0FD29984FF6FF72C1B21B98401C12
:10382000C0B200F0A7FD2A984FF6FF72C1B21B98F4
:10383000801CC0B200F09EFD1B9809F0FF01C01C67
:10384000C0B24FF6FF7200F095FD0098401CC0B268
:10385000009000981E28D3D319200090009808F0FB
:10386000FF012044C0B24FF6FF7200F083FD0098C4
:10387000401CC0B2009000982128EFD31A2000907D
:103880001D984FF6FF72C1B200982044C0B200F0FC
:1038900071FD0098401CC0B2009000982328EFD31F
:1038A0001B2000900098F1B22044C0B24FF6FF7286
:1038B00000F060FD0098401CC0B2009000982328E2
:1038C000F0D32D9845F2AA22C1B204F10B001A9050
:1038D000C0B200F04FFD2D984AF65552C1B21F9864
:1038E000C0B200F047FD04F1110019900BF0FF0188
:1038F000C0B245F2AA2200F03DFD04F12400189068
:103900000BF0FF01C0B24AF6555200F033FD1D2006
:1039100000902C984AF65552C1B200982044C0B28B
:1039200000F028FD0098401CC0B2009000982228AA
:10393000EFD32C9845F2AA22C1B204F122001790CD
:10394000C0B200F017FD2B984AF65552C1B204F1EF
:103950000A001690C0B200F00DFD2B984FF6FF72D2
:10396000C1B204F112001590C0B200F003FD299815
:103970004AF65552C1B22798C0B200F0FBFC299814
:103980004FF6FF72C1B22498C0B200F0F3FC2A983F
:103990004FF6FF72C1B21598C0B200F0EBFC2A9846
:1039A0004AF65552C1B21598C0B200F0E3FC04F1DA
:1039B0000900149009F0FF01C0B245F2AA2200F0FC
:1039C000D9FC04F12100139008F0FF01C0B24AF6BF
:1039D000555200F0CFFC1D9845F2AA22C1B226989C
:1039E000C0B200F0C7FC04F108001290F1B2C0B2FE
:1039F0004AF6555200F0BEFC04F123001190F1B2DA
:103A0000C0B245F2AA2200F0B5FC38981F22C1B21C
:103A100004F10F001090C0B200F0ACFC37981F22E8
:103A2000C1B21998C0B200F0A5FC35981F22C1B2EE
:103A30002798C0B200F09EFC35981F22C1B21198A1
:103A4000C0B200F097FC36981F22C1B204F12600E4
:103A50000F90C0B200F08EFC36981F22C1B204F164
:103A60003100C0B200F086FC34981F22C1B204F1CC
:103A700027000E90C0B200F07DFC1A98F9B2C0B2D7
:103A80001F2200F077FC24980AF0FF01C0B21F2229
:103A900000F070FC0E98F9B2C0B21F2200F06AFC70
:103AA0002F981F22C1B20E98C0B200F063FC249878
:103AB0000BF0FF01C0B21F2200F05CFC25980BF058
:103AC000FF01C0B21F2200F055FC2C981F22C1B28A
:103AD0000F98C0B200F04EFC2B981F22C1B217986D
:103AE000C0B200F047FC2B981F22C1B21898C0B298
:103AF00000F040FC2A981F22C1B21398C0B200F017
:103B000039FC129809F0FF01C0B21F2200F032FC0C
:103B1000249809F0FF01C0B21F2200F02BFC1F986F
:103B200009F0FF01C0B21F2200F024FC139809F035
:103B3000FF01C0B21F2200F01DFC129808F0FF0127
:103B4000C0B21F2200F016FC199808F0FF01C0B2A5
:103B50001F2200F00FFC04F116000D9008F0FF0189
:103B6000C0B21F2200F006FC189808F0FF01C0B296
:103B70001F2200F0FFFB1D981F22C1B2E01D0C9018
:103B8000C0B200F0F7FB1D981F22C1B204F118006B
:103B90000B90C0B200F0EEFB0C98F1B2C0B21F2245
:103BA00000F0E8FB1098F1B2C0B21F2200F0E2FB77
:103BB0001598F1B2C0B21F2200F0DCFB2098F1B2E0
:103BC000C0B21F2200F0D6FB0D98F1B2C0B21F2286
:103BD00000F0D0FB04F117000A90F1B2C0B21F222E
:103BE00000F0C8FB0B98F1B2C0B21F2200F0C2FB7C
:103BF00005F11C00C1B20990A01D0890C0B24FF69B
:103C0000FF7200F0B7FB09984FF6FF72C1B2169829
:103C1000C0B200F0AFFB09984FF6FF72C1B21A981C
:103C2000C0B200F0A7FB09984FF6FF72C1B221980D
:103C3000C0B200F09FFB09984FF6FF72C1B219980D
:103C4000C0B200F097FB09984FF6FF72C1B22498FA
:103C5000C0B200F08FFB09984FF6FF72C1B20A980C
:103C6000C0B200F087FB09984FF6FF72C1B20B9803
:103C7000C0B200F07FFB1B264FF6FF780998424642
:103C8000C1B2A019C0B200F075FB761CF6B2242EAA
:103C9000F4D3601D05F11D0A07900AF0FF01C0B2C0
:103CA000424600F067FB08980AF0FF01C0B24246A6
:103CB00000F060FB14980AF0FF01C0B2424600F029
:103CC00059FB04F10C0006900AF0FF01C0B2424615
:103CD00000F050FB21980AF0FF01C0B2424600F00C
:103CE00049FB27980AF0FF01C0B2424600F042FBB0
:103CF00019980AF0FF01C0B2424600F03BFB209841
:103D00000AF0FF01C0B2424600F034FB24980AF0EA
:103D1000FF01C0B2424600F02DFB0D980AF0FF01F2
:103D2000C0B2424600F026FB0A980AF0FF01C0B27A
:103D3000424600F01FFB0B980AF0FF01C0B242465A
:103D400000F018FB1A26A0190AF0FF01C0B2424683
:103D500000F010FB761CF6B21D2EF4D31D26A01920
:103D60000AF0FF01C0B2424600F004FB761CF6B236
:103D7000232EF4D3079805F11E0909F0FF01C0B204
:103D8000424600F0F7FA089809F0FF01C0B2424637
:103D900000F0F0FA129809F0FF01C0B2424600F0BC
:103DA000E9FA149809F0FF01C0B2424600F0E2FAC5
:103DB000069809F0FF01C0B2424600F0DBFA2198F4
:103DC00009F0FF01C0B2424600F0D4FA109809F0A1
:103DD000FF01C0B2424600F0CDFA279809F0FF017A
:103DE000C0B2424600F0C6FA209809F0FF01C0B206
:103DF000424600F0BFFA249809F0FF01C0B24246E3
:103E000000F0B8FA0D9809F0FF01C0B2424600F088
:103E1000B1FA0A9809F0FF01C0B2424600F0AAFACE
:103E200004F11A00059009F0FF01C0B2424600F00B
:103E3000A1FA04F11B00049009F0FF01C0B2424650
:103E400000F098FA04F1200709F0FF01F8B24246A9
:103E500000F090FA052605F11F0BA0190BF0FF01E9
:103E6000C0B2424600F086FA761CF6B20A2EF4D3AF
:103E70000B26A0190BF0FF01C0B2424600F07AFAFF
:103E8000761CF6B2102EF4D320980BF0FF01C0B2CE
:103E9000424600F06FFA24980BF0FF01C0B2424690
:103EA00000F068FA0D980BF0FF01C0B2424600F036
:103EB00061FA0A980BF0FF01C0B2424600F05AFACC
:103EC00004F1190003900BF0FF01C0B2424600F06C
:103ED00051FA05980BF0FF01C0B2424600F04AFAD1
:103EE00004980BF0FF01C0B2424600F043FA1E985E
:103EF0000BF0FF01C0B2424600F03CFA0BF0FF01AC
:103F0000F8B2424600F036FA042605F12008A0195E
:103F100008F0FF01C0B24FF6FF7200F02BFA761CDA
:103F2000F6B20A2EF3D31A9808F0FF01C0B24FF68A
:103F3000FF7200F01FFA069808F0FF01C0B24FF6BA
:103F4000FF7200F017FA269808F0FF01C0B24FF692
:103F5000FF7200F00FFA109808F0FF01C0B24FF6A0
:103F6000FF7200F007FA159808F0FF01C0B24FF693
:103F7000FF7200F0FFF9209808F0FF01C0B24FF681
:103F8000FF7200F0F7F91F9808F0FF01C0B24FF67A
:103F9000FF7200F0EFF90D9808F0FF01C0B24FF684
:103FA000FF7200F0E7F9059808F0FF01C0B24FF684
:103FB000FF7200F0DFF9049808F0FF01C0B24FF67D
:103FC000FF7200F0D7F91E9808F0FF01C0B24FF65B
:103FD000FF7200F0CFF908F0FF01F8B24FF6FF7260
:103FE00000F0C8F9201D05F121070290F9B2C0B216
:103FF0004FF6FF7200F0BEF90798F9B2C0B24FF663
:10400000FF7200F0B7F90C98F9B2C0B24FF6FF7228
:1040100000F0B0F91298F9B2C0B24FF6FF7200F09A
:10402000A9F91A98F9B2C0B24FF6FF7200F0A2F9DE
:104030000698F9B2C0B24FF6FF7200F09BF92698CD
:10404000F9B2C0B24FF6FF7200F094F91098F9B2CD
:10405000C0B24FF6FF7200F08DF91598F9B2C0B2F8
:104060004FF6FF7200F086F92098F9B2C0B24FF611
:10407000FF7200F07FF91F98F9B2C0B24FF6FF72DD
:1040800000F078F90D98F9B2C0B24FF6FF7200F067
:1040900071F90398F9B2C0B24FF6FF7200F06AF9F5
:1040A0000598F9B2C0B24FF6FF7200F063F90498B8
:1040B000F9B2C0B24FF6FF7200F05CF904F11E00D5
:1040C0000190F9B2C0B24FF6FF7200F053F91E989A
:1040D000F9B2C0B24FF6FF7200F04CF97E1CE41C3E
:1040E000F1B2E0B24FF6FF7200F044F90298F1B27B
:1040F000C0B24FF6FF7200F03DF90798F1B2C0B2BE
:104100004FF6FF7200F036F90C98F1B2C0B24FF6DC
:10411000FF7200F02FF91298F1B2C0B24FF6FF72A1
:1041200000F028F91698F1B2C0B24FF6FF7200F015
:1041300021F91A98F1B2C0B24FF6FF7200F01AF9E5
:104140002698F1B2C0B24FF6FF7200F013F9109842
:10415000F1B2C0B24FF6FF7200F00CF91598F1B24F
:10416000C0B24FF6FF7200F005F92098F1B2C0B26C
:104170004FF6FF7200F0FEF82498F1B2C0B24FF68D
:10418000FF7200F0F7F81F98F1B2C0B24FF6FF725D
:1041900000F0F0F80B98F1B2C0B24FF6FF7200F0E9
:1041A000E9F80398F1B2C0B24FF6FF7200F0E2F8FE
:1041B0000598F1B2C0B24FF6FF7200F0DBF801983B
:1041C000F1B2C0B24FF6FF7200F0D4F81E98F1B20F
:1041D000C0B24FF6FF7200F0CDF82335E9B2E0B27D
:1041E0004FF6FF7200F0C6F80298E9B2C0B24FF67F
:1041F000FF7200F0BFF80C98E9B2C0B24FF6FF7240
:1042000000F0B8F82098E9B2C0B24FF6FF7200F0A3
:10421000B1F82498E9B2C0B24FF6FF7200F0AAF8E4
:104220000B98E9B2C0B24FF6FF7200F0A3F80998FC
:104230004AF65554C1B207982246C0B200F09AF827
:1042400009982246C1B20698C0B200F093F80998C6
:104250002246C1B22798C0B200F08CF812980AF03A
:10426000FF01C0B2224600F085F81E9809F0FF0158
:10427000C0B2224600F07EF802980BF0FF01C0B2F7
:10428000224600F077F80A9808F0FF01C0B22246F3
:1042900000F070F81698E9B2C0B2224600F06AF851
:1042A0001A98E9B2C0B2224600F064F82698E9B242
:1042B000C0B2224600F05EF81098E9B2C0B22246C1
:1042C00000F058F81598E9B2C0B2224600F052F852
:1042D0000398E9B2C0B2224600F04CF80198E9B266
:1042E000C0B2224600F046F81E98E9B2C0B222469B
:1042F00000F040F8099845F2AA24C1B20C98224671
:10430000C0B200F037F8039809F0FF01C0B22246AE
:1043100000F030F8219808F0FF01C0B2224600F00A
:1043200029F8039808F0FF01C0B2224600F022F8F5
:104330000B98F9B2C0B2224600F01CF80898E9B216
:10434000C0B2224600F016F80698F1B2C0B222467A
:1043500000F010F82798F1B2C0B2224600F00AF837
:10436000279839B0E9B22246BDE8F04FC0B200F05C
:1043700001B8000070B504460B4615461648007893
:10438000002806D0012809D002280ED003281BD10E
:1043900014E01946204600F06CF815E0C3F17F00E8
:1043A000C0B2214600F065F80EE0C3F19F00C1B233
:1043B000C4F17F00C0B200F05CF805E0C4F19F00DA
:1043C000C1B2184600F055F8280A00F0A1FBE8B287
:1043D000BDE8704000F09CBB4C00002070B50B495C
:1043E000002008710A4D4FF4804421462846FCF70E
:1043F00024FE6420FDF76AFB21462846FCF71FFED9
:10440000BDE870406420FDF761BB00004C00002057
:104410000004024001490881704700004C00002060
:104420002DE9F04107460C4615461E462A2000F0AD
:1044300041FB002000F06CFB384600F069FB0020D7
:1044400000F066FB284600F063FB2B2000F032FBF7
:10445000002000F05DFB204600F05AFB002000F039
:1044600057FB304600F054FBBDE8F0412C2000F033
:1044700021BB70B505460C462A2000F01BFB00202E
:1044800000F046FB284600F043FB002000F040FB14
:104490006D1CE8B200F03CFB2B2000F00BFB002071
:1044A00000F036FB204600F033FB002000F030FB2C
:1044B000641CE0B200F02CFBBDE870402C2000F042
:1044C000F9BA000001498881704700004C000020C3
:1044D00001494881704700004C0000202DE9F0415F
:1044E00088B001210220FCF7F5FD01210420FCF732
:1044F000F1FD01218C032046FCF7FAFD0121204645
:10450000FCF704FE374F05220D213846FCF785FDE8
:1045100005220F213846FCF780FD019400248DF818
:104520000A4001258DF808508DF80B408DF8095090
:1045300001A93846FCF733FD4FF40078CDF804802C
:104540008DF80A408DF808508DF80B408DF8095011
:1045500001A92548FCF723FD4FF4204001908DF878
:104560000A4002268DF808608DF80B408DF809602E
:1045700001A93846FCF713FD280301908DF80A4085
:104580008DF808508DF80B408DF8096001A9384668
:10459000FCF705FDADF80C404FF48270ADF80E004D
:1045A000ADF81040ADF81260ADF81450ADF81680BB
:1045B0000820ADF81800ADF81A400C4C03A92046AD
:1045C000FCF7FFFD01212046FCF7E4FD0021204619
:1045D000FCF7D4FD00212046FCF70FFE08B0BDE833
:1045E000F081000000040240000802400038004052
:1045F0002DE9F05FF84E707800287CD0307830B12B
:10460000012879D0022878D0032877D1AFE100279C
:104610000024F9B2E0B2FEF7BBFA00287BD04FF0DD
:10462000010806E0BAF1100F0FDA08F101080FFADD
:1046300088F804EB080ABAF1100F06DAF9B20AF0AA
:10464000FF00FEF7A5FA0028ECD1791C4FF0FF30EF
:1046500000EB0111CBB204EB080100EBC100C2B2C8
:104660003807010EE006000EFFF7DAFE4FF00009F2
:1046700000253CE0E81705EB507204EBE20001B2C4
:10468000707901EB810100EBC00303EB0010D34B09
:1046900022F0070203EBC00303EB410C1CF80730C8
:1046A000203B09EB031CCC4B0E3313F80C30A5EB6D
:1046B000020C802222FA0CF2134207D0C84A02EB05
:1046C000001000EB810131F817B006E0C54A02EB9B
:1046D000001000EB810131F817B04FEA1B2000F009
:1046E00017FA0BF0FF0000F013FA6D1C2DB2B5EBBA
:1046F000C80FBFDB04E0D3E118E0A6E0CCE10AE09C
:1047000009F101090FFA89F9B9F1100FB0DBAAF12B
:10471000010A0FFA8AF4641C24B2102CFFF679AF58
:104720007F1C3FB20A2FFFF673AFB5E14FF00008D0
:104730000724E1B208F0FF00FEF72AFAE8B30127E8
:1047400003E0002D0AD47F1C3FB2E51B06D4E9B27A
:1047500008F0FF00FEF71CFA0028F2D108F1010072
:104760004FF0FF3101EBC000C3B2C4F10800384480
:10477000401E01EB0010C2B24FEAC860010EC4F146
:1047800007000007000EFFF74BFE4FF00009002561
:1047900040E0E81705EB1071A4EB211000B221F006
:1047A0000F016B1A717901EBC10202EB01118B4A07
:1047B00002EBC10C08EB880200E038E00CEB420C85
:1047C0001CF800C0ACF1200CC3EB0C1C824B0E3368
:1047D000634493F80FC0802323FA09F31CEA030F04
:1047E00007D07F4B03EB011101EB820131F810A0E0
:1047F00006E07C4B03EB011101EB820131F810A0C4
:104800004FEA1A2000F084F90AF0FF0000F080F966
:104810006D1C2DB2B5EB071FBBDB09F101090FFAC7
:1048200089F9B9F1080FB2DBE01B401C04B2641E29
:1048300024B2002CBFF67DAF08F101080FFA88F80A
:10484000B8F1140FFFF674AF26E14FF009080F24FA
:1048500008F0FF01E0B2FEF79BF9E8B3012703E09F
:10486000002D0AD47F1C3FB2E51B06D408F0FF01DF
:10487000E8B2FEF78DF90028F2D1C8F10A004FF036
:10488000FF3101EB0010C3B2C4F110003844401EE8
:1048900001EBC000C2B2C8F109000007010EC4F16B
:1048A0000F00C006000EFFF7BBFD4FF0000900250A
:1048B00042E0E81705EB5072A4EBE20001B2707918
:1048C00001EB810100EBC00303EB0010434B03EB52
:1048D000C00303EB410C00E03BE01CF80830C9F1D9
:1048E000100C203B0CEB031C3B4B22F007020E3359
:1048F0006344AA1AC2F1070C13F8013C802222FA81
:104900000CF2134207D0364A02EB001000EB810193
:1049100031F818A006E0334A02EB001000EB8101E9
:1049200031F818A04FEA1A2000F0F2F80AF0FF0060
:1049300000F0EEF86D1C2DB2B5EBC70FB9DB09F135
:1049400001090FFA89F9B9F1100FB0DBE01B401C27
:1049500004B2641E24B2002CBFF67AAFA8F101089D
:104960000FFA88F8B8F1000FBFF671AF94E0132783
:104970000024E1B2F8B2FEF70BF9A8B34FF001083A
:1049800006E0BAF1080F0FDA08F101080FFA88F80B
:1049900004EB080ABAF1080F06DA0AF0FF01F8B2D0
:1049A000FEF7F6F80028ECD1C7F114014FF0FF3004
:1049B00000EBC101CBB204EB080100EB0110C2B265
:1049C000C7F11300C006010E2007000EFFF728FDF7
:1049D0004FF00009002547E04C00002058840020DB
:1049E000E8850020088900204CE0E81705EB1071ED
:1049F00004EB211000B221F00F016B1A7179C9F19B
:104A0000070B01EBC10202EB0111264A02EBC10CBC
:104A100007EB87020CEB420C1CF800C0ACF1200C39
:104A200003EB0C1C204B13F80CC0802323FA0BF370
:104A30001CEA030F07D01D4B03EB011101EB8201B0
:104A400031F810B006E01A4B03EB011101EB8201C3
:104A500031F810B04FEA1B2000F05AF80BF0FF00BD
:104A600000F056F86D1C2DB2B5EB081FBDDB09F147
:104A700001090FFA89F9B9F1080FABDBAAF1010AB4
:104A80000FFA8AF4641C24B2082CFFF672AF7F1E62
:104A90003FB2002FBFF66CAF71790120884370716F
:104AA000BDE8F09F588400205A000020E8850020CF
:104AB000088900202DE9F0410746124E4FF4805539
:104AC00029463046FCF7B9FAE9100F48FCF7B5FA69
:104AD0000E4C02212046FCF769FB0028F9D039462C
:104AE0002046FCF76CFB01212046FCF75FFB002809
:104AF000F9D02046FCF761FB29463046BDE8F0417D
:104B0000FCF79DBA00040240000802400038004053
:104B10002DE9F0410746124E4FF4805529463046A4
:104B2000FCF78BFAE9100F48FCF789FA0E4C0221CA
:104B30002046FCF73BFB0028F9D039462046FCF71D
:104B40003EFB01212046FCF731FB0028F9D020462E
:104B5000FCF733FB29463046BDE8F041FCF76FBA5D
:104B60000004024000080240003800401FB5012147
:104B70000820FCF7BDFA022001905320ADF8000098
:104B8000114C69462046FCF7D9FD01212046FCF76F
:104B900074FC012211462046FCF787FD01212046C6
:104BA000FCF76EFC00248DF80D408DF80E400120BE
:104BB0008DF80F0032208DF80C0003A8FCF754FA92
:104BC0000248848044801FBD000C0040C8060020BD
:104BD0000000024010000000000002402000000021
:104BE0000000024040000000000002408000000081
:104BF000000802401000000000080240000400000D
:104C000000080240000800000008024000100000F8
:104C1000000C024004000000384C00080000002096
:104C2000D806000024090008584F0008D8060020C4
:104C3000988D0000B01A000811847A030A00091048
:104C4000010203040607080923D00713D80614201D
:104C5000F84B1208124C1B0808041A10041AD01042
:104C60001AD8041AE0042AE81C021E011008183C95
:104C70003C3C181818190341E5666666243D6C6CC7
:104C8000FE6C04392E580B187CC6C2C07C0686C642
:104C90007C31216009C2C60C183060C686500B38C2
:104CA0006C6C3876DCCCCCCC76D530303060192CBE
:104CB000390163180C19093901931830AE663CFFAD
:104CC0003C66A37B187E6D89149931110A11FED8B8
:104CD00079322B0206A063C080580B7CC6C6CED6A4
:104CE000D6E6C6C67C281B38784C19016A7E204956
:104CF0002F5AC65419106E063C060606301F0C1CAF
:104D00003C6CCCFEB15A1E7B8EC0C0C0FC0E201B7A
:104D10003860101AC60159101AFE4049F479802AE9
:104D2000C6046920290C1A7E60BB0C78BA99F15927
:104D30001069EF399FA530180C0619AB59AE3139FF
:104D40001C292479601A0CDE895119115EDEDEDE21
:104D5000DCC0802F10386CC6C6FE91611EFC6666F2
:104D6000667C046366FC1C3C66C2E265C0C2663CAD
:104D70002BF86C1D5D66666CF87C58096662687875
:104D8000686062668259109C6060F04066DEC6C64C
:104D9000663A296A396F59701A3C9D390159602B5E
:104DA0001E0C0165CCCCCC781FE6666C6C787875EF
:104DB00062E61AF05B190179709EC6EEFEFED650CF
:104DC0008FC6E6F6FEDECE1029DF29019B6C38E0A7
:104DD000294259A04A7C1F7ED6DE7C0C0E2029E495
:104DE00059701920600860380C06C6C67CBC7E7EEF
:104DF0005AB0493F19015920590E9C6C3810106E59
:104E0000D6D6FE6C6C101E6C6C38386C9661196AC4
:104E10009B663C50580AFEC6860C183060C2C6E03D
:104E20005B3C3001592011580A80C0E070381C0EDC
:104E30000602205A0C0139201A10EF011922FF0432
:104E4000123030186008780C7CCCCCCC762EE06028
:104E500060786C9592DC6E7CC6C0C0C0E01A1C6A9B
:104E60001A6C2F693039208AFE201F386C6460F07C
:104E7000600192F02A762F4ECC7C0CCC78602B6CA3
:104E8000766062E61318181A38FE5B1818E01306ED
:104E9000063B0E06012B66661319301C666C789370
:104EA0005930492D8930312CECFED601912ADC5F36
:104EB0009B6666A0290159A079207A7CA369A05B32
:104EC0000C1E20BB7662C06E7CC660380C401E1083
:104ED0003030FC300193361C393F93CC76395F93E8
:104EE0003C18197D8DD6D6FE6C10AF6C3838386CF6
:104EF000C6201901657E060CF86008FECC183060EB
:104F0000C6FE1A0EEB2A70F0620E290B39055960A5
:104F1000291C29245B1870CDC2DCCAFF0141720133
:104F200014100140124412401A48041A4C041A503A
:104F300004114A02042A04088172646939A1320CFE
:104F400013568C622019343B01082613C11614082D
:084F50003517021008000000F3
:040000050800018965
:00000001FF
