:020000040800F2
:1000000050940020AD0100083907000835070008AA
:10001000370700084B020008A30D0008000000008D
:10002000000000000000000000000000B10800080F
:100030006F06000800000000AD070008B3080008C4
:10004000C7010008C7010008C7010008C701000870
:10005000C7010008C7010008C7010008C701000860
:10006000C7010008C7010008C7010008C701000850
:10007000C7010008C7010008C7010008C701000840
:10008000C7010008C7010008C701000825030008D0
:100090004D020008C7010008C7010008C701000899
:1000A000C7010008C7010008C7010008C701000810
:1000B000C7010008C7010008C7010008C701000800
:1000C000C7010008C7010008C7010008C7010008F0
:1000D000C7010008750C0008B90C0008FD0C0008E9
:1000E000C7010008C7010008C7010008C7010008D0
:1000F000C7010008C7010008C7010008C7010008C0
:10010000C7010008C7010008450A0008C701000828
:10011000ED0B0008310C0008C7010008C7010008FA
:10012000C7010008C7010008C7010008C70100088F
:10013000C7010008C7010008C7010008C70100087F
:10014000C7010008C7010008C7010008C70100086F
:10015000C7010008C7010008C7010008C70100085F
:10016000C7010008C7010008C7010008C70100084F
:10017000C7010008C7010008C7010008C70100083F
:10018000C7010008C7010008DFF80CD000F020F814
:1001900000480047C9100008509400204FF0730039
:1001A000A0F101000028FBD17047000006488047FD
:1001B00006480047FEE7FEE7FEE7FEE7FEE7FEE74C
:1001C000FEE7FEE7FEE7FEE73909000889010008BF
:1001D000064C074D06E0E06840F0010394E8070094
:1001E00098471034AC42F6D3FFF7D2FFE82B000853
:1001F000082C000870B58C1810F8015B15F0070387
:1002000001D110F8013B2A1106D110F8012B03E0AF
:1002100010F8016B01F8016B5B1EF9D12B0705D4B7
:100220000023521E0DD401F8013BFAE710F8013B00
:10023000CB1A921C03E013F8015B01F8015B521E1C
:10024000F9D5A142D8D3002070BDFEE770B5314C7E
:1002500086B00221204600F0C7F8002804BF06B08F
:1002600070BD0221204600F071F801AA002120464D
:1002700000F042F99DF80C0000281CBF06B070BDCC
:100280009DF81700244C2178884238BF1C280BD2D7
:10029000224951F820C0BCF1000F05D0059801ADEE
:1002A000009095E80F00E047DFF874C0019801AEB8
:1002B000CCF800009DF80E208CF80420501E002879
:1002C0001ADD06F10A000CF1040112F0010F04D14D
:1002D0009DF80F2001F8012F401C9CF80420437862
:1002E000521E521008D000BF10F8025F4B704378C6
:1002F00001F8025F521EF7D19CF80400401E03D49F
:1003000031186044C97A41716068401C606006B071
:1003100070BD00000064004014000020C483002071
:10032000B483002010B5084C0121204600F05CF891
:10033000002808BF10BD0121204600F007F8BDE8E5
:10034000104000F023BE00000064004010B40823F9
:1003500004224FF0100CB1F5007F40D021DC2029A1
:1003600002BF036110BC704710DC012901BF1D49A9
:10037000816010BC7047042902BFC36010BC704785
:10038000082908BFC0F80CC010BC7047402902BF44
:10039000C0F810C010BC7047B1F5807F1FD010BCF2
:1003A00070470024B1F5004F08D00BDCB1F5806F29
:1003B00015D0B1F5006F1CBF10BC7047846142605E
:1003C00010BC7047B1F5803F02BF436010BC70475E
:1003D000B1F5003F08BFC0F804C010BC70474260D0
:1003E00010BC7047010101000246002053690B4216
:1003F00008BF7047B1F5807F64D01CDC082949D064
:100400000CDC012938D002293ED0042918BF7047DE
:10041000D168002011F0080F34D1704710293FD067
:10042000202943D0402918BF70471169002011F0DE
:10043000100F27D17047B1F5004F55D00FDCB1F543
:10044000007F45D0B1F5806F48D0B1F5006F18BF7F
:1004500070479169002011F0700F13D17047B1F50A
:10046000803F29D0B1F5003F18BF70475168002088
:1004700011F0100F06D1704791681E4A00201142FA
:1004800008BF704701207047D168002011F0030FAA
:10049000F8D17047D168002011F0100FF2D17047E9
:1004A0001169002011F0030FECD170471169002091
:1004B00011F0080FE6D170475168002011F0080FC5
:1004C000E0D170479169002011F0010FDAD1704737
:1004D0009169002011F0020FD4D17047916900207A
:1004E00011F0040FCED170475168002011F0040FB5
:1004F000C8D170470101010000EB0113D3F8B0C16E
:100500001CF0040C82F808C0D3F8B0C107BF4FEA52
:100510005C5CC2F800C04FEADC0CC2F804C0D3F83F
:10052000B0C10CF0020C82F809C0D3F8B4C10CF0D1
:100530000F0C82F80AC0D3F8B4C14FEA1C2C82F821
:1005400013C0D3F8B8C182F80BC0D3F8B8C14FEAD2
:100550001C2C82F80CC0D3F8B8C14FEA1C4C82F8AE
:100560000DC0D3F8B8C14FEA1C6C82F80EC0D3F8A6
:10057000BCC182F80FC0D3F8BCC14FEA1C2C82F872
:1005800010C0D3F8BCC14FEA1C4C82F811C0D3F89C
:10059000BC311B0E937421B1016941F0200101614E
:1005A0007047C16841F02001C160704710B4024635
:1005B0000020936813F0806F3FD000BF02EB001261
:1005C000D2F8803103F00103C2F880310B7A002B9E
:1005D00042D0D2F880C14C684CEA030391F809C0BC
:1005E0004CEAC40C43EA0C03C2F880318B7A03F066
:1005F0000F038B72D2F8843123F00F03C2F88431D9
:10060000D2F8843191F80AC043EA0C03C2F884316D
:10061000CB7AD1F80CC043EA0C23C2F88831CB7BEB
:10062000096943EA0121C2F88C11D2F8801141F026
:100630000101C2F8801110BC7047906810F0006F83
:1006400018BF0120BAD1906810F0805F14BF02205B
:100650000420B3D110BC7047D2F8803191F809C0A2
:1006600043EA0C03B1F800C043EA4C53BCE77047BF
:100670002DE9F001002201255FF00306D1F800C04A
:1006800005FA02F30CEA030C9C4533D107684FEAE4
:10069000420C06FA0CF4A74307600F79D0F80080EB
:1006A00007FA0CF747EA080707600F79012F18BF10
:1006B000022F14D18768A74387604F79D0F808804C
:1006C00007FA0CF747EA08078760476827EA030339
:1006D000436043688F799740BFB23B434360C36830
:1006E000A343C360CB7903FA0CF3D0F80CC043EA00
:1006F0000C03C360521C102AC0D3BDE8F001704740
:100700004B07DB0E9A40C90800EB8100016A4FF0ED
:100710000F0C0CFA03F399430162016A1143016261
:1007200070474183704701837047002A14BF0183DB
:1007300041837047FEE7FEE77047000010B4C278BF
:1007400001780F244FF0010C0AB3174A126801F127
:10075000E02102F4E062C2F5E062C2F30722C2F1D6
:100760000403D44042789A40837823401A4312010C
:1007700081F80024007800F01F010CFA01F1400913
:10078000800000F1E020C0F8001110BC704701F0BB
:100790001F000CFA00F04909890001F1E021C1F8BD
:1007A000800110BC704700000CED00E070470000B5
:1007B000044A0029116814BF084321EA00001060B0
:1007C0007047000030380240044A0029116814BF05
:1007D000084321EA000010607047000040380240E2
:1007E000044A0029116814BF084321EA0000106080
:1007F0007047000060380240044A0029116814BFA5
:10080000084321EA000010607047000044380240AD
:100810000029018814BF41F4005121F400510180E6
:1008200070470029018814BF41F0400121F04001C8
:10083000018070470246002012890A4218BF012039
:100840007047808970478181704710B402880B8897
:10085000B1F802C0CC8843EA0C03B1F804C002F43A
:1008600041524CEA040C43EA0C03B1F808C043EAD5
:100870000C03B1F80AC043EA0C03B1F80CC043EA18
:100880000C03B1F80EC043EA0C031A430280828BBA
:1008900022F400628283098A018210BC7047002919
:1008A000818814BF41F0040121F004018180704768
:1008B00070477047DFF86CC030B4DCF800001A4BAA
:1008C00010F00C01194806D05C10042908BF046020
:1008D00002D008290CD00360DCF80010144AC1F3E0
:1008E0000311515C026822FA01F1016030BC7047CB
:1008F00010490A68C2F380550A68002D02F03F02D1
:1009000014BFB4FBF2F2B3FBF2F20B680968C3F355
:1009100088135A43C1F30141491C4900B2FBF1F16C
:100920000160D9E7083802400024F40000000020EC
:100930000400002004380240384882B0016841F4C5
:10094000700101603648016841F0010101603549DC
:1009500000230B60026822F4102222F080720260F1
:1009600000F1040C304ACCF80020026822F4802206
:1009700002600A1D136001930093026842F4803202
:100980000260026802F400320092019A521C019245
:10099000009A1AB9019AB2F5A04FF2D1026812F486
:1009A000003F1ABF012200920093204A136843F0CF
:1009B000805313601E4A136843F4404313600A686F
:1009C0000A600A6842F400420A600A6842F4A052CF
:1009D0000A60009A012A0CBF164A174ACCF8002078
:1009E000026842F080720260026812F0007FFBD061
:1009F000124A40F205701060086820F00300086099
:100A0000086840F002000860086800F00C00082840
:100A1000FAD10B490006086002B0704788ED00E08B
:100A200000380240083802401030002440380240AC
:100A3000007000400854400710540007003C02407A
:100A400008ED00E010B50E4C0121204600F03FF803
:100A5000002808BF10BD0121204600F01EF80948FB
:100A6000418840F2E732914205D3002141808188DC
:100A7000491C818010BD4188491C418010BD000087
:100A8000000C0040AC0600200029018814BF41F092
:100A9000800121F0800101807047C94301827047C5
:100AA000C943018270470029018814BF41F0010148
:100AB00021F00101018070470029B0F8441014BFF3
:100AC00041F40041C1F30E01A0F844107047038ABD
:100AD000002280890B4200EA01001CBF002801228D
:100AE00010467047002A828914BF114322EA01018F
:100AF0008181704710B4028C22F001020284038CC1
:100B00008288B0F818C00C882CF0730C44EA0C0CE6
:100B10008C8923F0020323434C882343A0F18044B3
:100B2000B4F580341CBFA0F18044B4F582340DD1FB
:100B3000CC8923F0080323438C8823F00403234348
:100B40000C8A22F4407222434C8A22438280A0F80D
:100B500018C089684163038410BC7047028B22F07F
:100B600008021143018370474163704710B4028843
:100B70001C4BDFF874C0984218BF604511D0B0F12B
:100B8000804F1CBFA0F18044B4F5806409D0A0F16F
:100B90008044B4F500641CBFA0F18044B4F5406407
:100BA00003D14C8822F070022243A0F18044B4F5B6
:100BB00080541CBFA0F18044B4F5A05403D00C892C
:100BC00022F44072224302804A68C2620A88028587
:100BD000984212BF6045897A01860121818210BC4A
:100BE00070470000000001400004014010B50D4CAA
:100BF00040F22551204600F0AAF8002808BF10BD99
:100C00000948C07830B9204600F0C7F80749C0B29B
:100C1000C96888472046BDE8104040F2255100F0E1
:100C20008FB80000004C004059060020048C0020C2
:100C300010B50D4C40F22551204600F088F80028F0
:100C400008BF10BD0948007930B9204600F0A5F86A
:100C50000749C0B2096988472046BDE8104040F204
:100C6000255100F06DB800000050004059060020EA
:100C7000048C002010B50D4C40F22551204600F0A8
:100C800066F8002808BF10BD0948007830B9204632
:100C900000F083F80749C0B2096888472046BDE8DC
:100CA000104040F2255100F04BB800000010014008
:100CB00059060020048C002010B50D4C40F225513F
:100CC000204600F044F8002808BF10BD09484078CD
:100CD00030B9204600F061F80749C0B2496888473A
:100CE0002046BDE8104040F2255100F029B8000030
:100CF0000044004059060020048C002010B50D4C23
:100D000040F22551204600F022F8002808BF10BD0F
:100D10000948807830B9204600F03FF80749C0B252
:100D2000896888472046BDE8104040F2255100F010
:100D300007B800000048004059060020048C00203D
:100D4000090A012202FA01F1C9430180704710B477
:100D500001F01F0201240023C1F3421C04FA02F235
:100D6000BCF1010F04BFB0F80CC00CEA020208D0BD
:100D7000BCF1020F0CBFB0F810C0B0F814C00CEA00
:100D80000202090A008804FA01F10840002A1CBF87
:100D900000280123184610BC70478088C0F3080063
:100DA0007047FEE702E008C8121F08C1002AFAD106
:100DB00070477047002001E001C1121F002AFBD1DB
:100DC0007047000070B51C4D297879B1411E8DB275
:100DD00038BF70BD5FF00004FFF7E0F9601CC4B2DB
:100DE000642CF9D3691E8DB2F4D270BD01260024A3
:100DF0002E70002818BF4FF0E0211AD0B0F57A7F8E
:100E00008CBF4FF47A7C844642F228320CFB02F20B
:100E10004A618C610E610A6912F0010F02D012F46E
:100E2000803FF8D00C618C61A0EB0C000004000C3A
:100E3000E4D12C7070BD0000AC06002070B50B4DE5
:100E4000002400BF55F82400012100F007F9601CC0
:100E5000C4B2042CF6D30424022155F8240000F077
:100E6000FDF8601CC4B2082CF6D370BD2800002029
:100E700070B53F488CB0002404804EF6E661418096
:100E80003C4A42F66311B2FBF1F282800522801CDB
:100E900042F2107C4388521E03FB0CF3B3FBF1F3C8
:100EA0009BB220F8043F03FB0CF3B3FBF1F3438048
:100EB000EED101210220FFF77BFC02208DF81C00FF
:100EC00001028DF81D002C4D06918DF81E408DF805
:100ED0001F4006A92846FFF7CBFB0322092128461D
:100EE000FFF70EFC01218804FFF786FC2348ADF8CC
:100EF0002240ADF8284000682149224DB0FBF1F0B6
:100F0000401EADF8200068891F4E099008A93046A0
:100F1000FFF72CFE6020ADF800000120ADF80200C4
:100F2000ADF80C40ADF810400420ADF80E40ADF81F
:100F30001240ADF80400A878029069463046FFF7E9
:100F4000D9FD01213046FFF79FFD08213046FFF70C
:100F500005FE01213046FFF7AFFD01213046FFF7C6
:100F6000A2FD00213046FFF7FFFD0CB070BD000070
:100F7000188C002060F87324000402400000002058
:100F800040420F00880600200048014030B5304C38
:100F90008FB02188608881420ED02E4D00202A68B3
:100FA0002B68C2F38062C3F3C0631A442B68C3F397
:100FB00000731A44032A02D00FB0002030BDA2688B
:100FC00002EB011292E80E108DE80E109DF804104D
:100FD000009ACDE904208DF819008DF81800481EFC
:100FE0008DF81A10C0B224BF694604AA08D30B18A2
:100FF00002EB000C5B79401E8CF80B30C0B2F6D2CD
:101000000DF1100E9EE80F100DF1240E8EE80F105A
:1010100009A91148FFF7CAFA042807D02088A18837
:10102000401CB0FBF1F201FB120020802868296807
:10103000C0F38060C1F3C06108442968C1F3007146
:10104000C84218BFFFF7A2FF01200FB030BD00005B
:101050001C000020086400400064004000B583B01C
:1010600000228DF8042082888DF807100092006815
:101070006946FFF7FDFA03B000BD00B583B0012358
:101080008DF804308DF8053083888DF806100093B4
:101090008DF8072000686946FFF7EAFA03B000BD43
:1010A0000A4681880068FFF740BB000010B50022A7
:1010B00011460448FFF7E1FFBDE810400021014858
:1010C000FFF7EEBFC02B0008FFF736FCFFF7F2FB7F
:1010D00001F030FDFFF7EAFF1F234FF6FF720021FA
:1010E000022000F015F9FFF7C3FEFFF7A7FE7821F5
:1010F000552000F0C3F9FEE710B5012001F0BEFC59
:101100000A20FFF75FFE112001F0B8FC7820FFF7FE
:1011100059FEB12001F0B2FC012001F0DDFC2C20D1
:1011200001F0DAFC2D2001F0D7FCB22001F0A6FC82
:10113000012001F0D1FC2C2001F0CEFC2D2001F08B
:10114000CBFCB32001F09AFC012001F0C5FC2C205F
:1011500001F0C2FC2D2001F0BFFC012001F0BCFC1D
:101160002C2001F0B9FC2D2001F0B6FCB42001F0D8
:1011700085FC072001F0B0FCC02001F07FFCA2201C
:1011800001F0AAFC022001F0A7FC842001F0A4FCDD
:10119000C12001F073FCC52001F09EFCC22001F0CB
:1011A0006DFC0A2001F098FC002001F095FCC320A2
:1011B00001F064FC8A2001F08FFC2A2001F08CFCF5
:1011C000C42001F05BFC8A2001F086FCEE2001F0D7
:1011D00083FCC52001F052FC0E2001F07DFC36207E
:1011E00001F04CFCC82001F077FCE02001F046FC47
:1011F000022001F071FC1C2001F06EFC072001F0C0
:101200006BFC122001F068FC372001F065FC3220F5
:1012100001F062FC292001F05FFC2D2001F05CFC54
:10122000292001F059FC252001F056FC2B2001F06B
:1012300053FC392001F050FC002001F04DFC01204E
:1012400001F04AFC032001F047FC102001F044FCAF
:10125000E12001F013FC032001F03EFC1D2001F011
:101260003BFC072001F038FC062001F035FC2E2065
:1012700001F032FC2C2001F02FFC292001F02CFC85
:101280002D2001F029FC2E2001F026FC2E2001F05B
:1012900023FC372001F020FC3F2001F01DFC002042
:1012A00001F01AFC002001F017FC022001F014FCF0
:1012B000102001F011FC2A2001F0E0FB002001F0D9
:1012C0000BFC002001F008FC002001F005FC7F2051
:1012D00001F002FC2B2001F0D1FB002001F0FCFB0F
:1012E000002001F0F9FB002001F0F6FB9F2001F047
:1012F000F3FB3A2001F0C2FB052001F0EDFB2920B1
:1013000001F0BCFBBDE810400A20FFF75BBD000008
:101310002DE9F05FDFF854814FF000091E4688F890
:10132000049015460C46074688F8059001F01CFB12
:1013300088F80490DFF838914FF480414846FFF771
:10134000F0F96420FFF73EFD4FF480414846FFF777
:10135000EAF96420FFF736FDFFF7CEFE2C2001F0FE
:101360008DFBA8F80840A8F80A50A8F80C602A20BD
:1013700001F084FB002001F0AFFB002001F0ACFB8A
:10138000002001F0A9FB7F2001F0A6FB2B2001F03B
:1013900075FB002001F0A0FB002001F09DFB002068
:1013A00001F09AFB9F2001F097FB2C2001F066FBD7
:1013B00000264FEA1429484601F08EFBE0B201F006
:1013C0008BFB701C86B2B6F5A04FF4D388F8007082
:1013D00017F0010F4FF0A0014FF0800008D088F8FF
:1013E000021088F80300142088F80600082007E09F
:1013F00088F8031088F80200102088F806000A20F8
:10140000DFF870B0002788F807000BF5C87E2026AB
:1014100007EBC70000EB071017494FF0000C0BEB70
:10142000C00A0EEB001901EB001800BF0CEB8C009A
:101430000AEB400209EB800108EB80005FF00B0330
:1014400002F8016B21F8025B20F8024B5B1EF7D11A
:101450000CF1010000F0FF0CBCF1150FE6D3781C75
:10146000C7B2022FD4D3BDE8F09F0000480000208F
:101470000004024034840020E48800202DE9F04F6D
:10148000A5B00D4604460027002604EB0708A8195E
:10149000C1B208F0FF00002201F0B0F9701CC6B222
:1014A000272EF4D3781CC7B22F2FEDD30F266F1C35
:1014B000A019F9B2C0B2102201F0A0F9701CC6B296
:1014C0002D2EF5D30E26E81C05F10208CDF85000AC
:1014D000A71908F0FF01F8B2102201F08FF9149853
:1014E0001022C1B2F8B201F089F9701CC6B22C2EDC
:1014F000EED3281D1B90A81D0D260A90681D18907C
:101500001B98A719C1B2F8B2102201F077F9189808
:101510001022C1B2F8B201F071F90A981022C1B2DA
:10152000F8B201F06BF9701CC6B22B2EE8D3E81D9F
:101530000890401C0C260F90401C0B900898A7198F
:10154000C1B2F8B2102201F059F90F981022C1B2BD
:10155000F8B201F053F90B981022C1B2F8B201F0C1
:101560004DF9701CC6B22A2EE8D305F10B000B26EC
:101570000690401E0990C1B2A719F8B2102201F0DE
:101580003DF906981022C1B2F8B201F037F9701C8B
:10159000C6B2292E38BF0998EDD305F10F00461EBB
:1015A0000C90801E1790401E4FF00A080390C1B2A5
:1015B00004EB0807F8B2102201F020F91798102266
:1015C000C1B2F8B201F01AF9F1B2F8B2102201F08A
:1015D00015F90C981022C1B2F8B201F00FF908F118
:1015E000010000F0FF08B8F1280F38BF0398DED3E0
:1015F00005F110001190801C09270290401E1290E6
:10160000119804EB0708C1B208F0FF00102201F0A6
:10161000F5F812981022C1B208F0FF0001F0EEF8C0
:1016200002981022C1B208F0FF0001F0E7F8781C20
:10163000C7B2272FE4D305F11400082705F11309D9
:10164000CDF8580004EB070809F0FF0108F0FF008F
:10165000102201F0D3F816981022C1B208F0FF0052
:1016600001F0CCF8781CC7B2262FEBD305F1170791
:10167000781E1990401E4FF0070B05F118081590C1
:10168000C1B204EB0B0A0AF0FF00102201F0B6F819
:1016900019981022C1B20AF0FF0001F0AFF8F9B2B8
:1016A0000AF0FF00102201F0A9F808F0FF010AF08B
:1016B000FF00102201F0A2F80BF1010000F0FF0B77
:1016C000BBF1250F38BF1598DAD30A984AF6555260
:1016D000C1B204F110000D90C0B201F08FF84FF0CC
:1016E000110A0A984FF6FF72C1B204EB0A00C0B2A9
:1016F00001F084F80AF1010000F0FF0ABAF1240FAA
:10170000EFD34FF00F0A08984FF6FF72C1B204EB07
:101710000A00C0B201F072F80AF1010000F0FF0AFD
:10172000BAF1250FEFD30F9845F2AA22C1B204F106
:101730000E000E90C0B201F061F84FF00F0A0F9842
:101740004FF6FF72C1B204EB0A00C0B201F056F8C6
:101750000AF1010000F0FF0ABAF1250FEFD30F984C
:101760004AF65552C1B204F125001C90C0B201F0F6
:1017700045F84FF00E0A0B984FF6FF72C1B204EB1A
:101780000A00C0B201F03AF80AF1010000F0FF0AC5
:10179000BAF1260FEFD34FF00E0A09984FF6FF72F9
:1017A000C1B204EB0A00C0B201F028F80AF101004E
:1017B00000F0FF0ABAF1140FEFD309984AF6555218
:1017C000C1B204F114000B90C0B201F017F80998EF
:1017D00004F11C0BC1B20BF0FF004AF6555201F0A8
:1017E0000DF84FF01F0A09984FF6FF72C1B204EBD3
:1017F0000A00C0B201F002F80AF1010000F0FF0A8D
:10180000BAF1260FEFD34FF00E0A06984FF6FF728B
:10181000C1B204EB0A00C0B200F0F0FF0AF101000F
:1018200000F0FF0ABAF1140FEFD306984AF65552AA
:10183000C1B20BF0FF0000F0E1FF069845F2AA22CA
:10184000C1B204F11D001390C0B200F0D7FF4FF0F9
:10185000200A06984FF6FF72C1B204EB0A00C0B22C
:1018600000F0CCFF0AF1010000F0FF0ABAF1260FE8
:10187000EFD303984AF65552C1B204F10D000F9010
:10188000C0B200F0BBFF4FF00E0A03984FF6FF7294
:10189000C1B204EB0A00C0B200F0B0FF0AF10100CF
:1018A00000F0FF0ABAF1130FEFD3039845F2AA2212
:1018B000C1B204F113000690C0B200F09FFF03987C
:1018C0004FF6FF72C1B204F115000990C0B200F0EA
:1018D00095FF4FF01E0A03984FF6FF72C1B204EB5A
:1018E0000A00C0B200F08AFF0AF1010000F0FF0A0E
:1018F000BAF1260FEFD34FF00D0A17984FF6FF728B
:10190000C1B204EB0A00C0B200F078FF0AF1010096
:1019100000F0FF0ABAF1130FEFD317984AF65552A9
:10192000C1B20698C0B200F069FF17984FF6FF7277
:10193000C1B20BF0FF0000F061FF17984FF6FF7285
:10194000C1B21398C0B200F059FF4FF0200A1798A7
:101950004FF6FF72C1B204EB0A00C0B200F04EFFB6
:101960000AF1010000F0FF0ABAF1260FEFD34FF0A1
:101970000D0A04EB0A00F1B2C0B24FF6FF7200F09C
:101980003DFF0AF1010000F0FF0ABAF1130FF0D396
:101990000698F1B2C0B245F2AA2200F02FFF0B98D0
:1019A000F1B2C0B245F2AA2200F028FFF1B20BF06A
:1019B000FF004AF6555200F021FF04F11F0010907D
:1019C000F1B2C0B24AF6555200F018FF4FF0200AAB
:1019D00004EB0A00F1B2C0B24FF6FF7200F00EFF46
:1019E0000AF1010000F0FF0ABAF1260FF0D34FF020
:1019F0000C0A0C9804EB0A0BC1B20BF0FF004FF677
:101A0000FF7200F0FBFE11984FF6FF72C1B20BF0AF
:101A1000FF0000F0F3FE12984FF6FF72C1B20BF018
:101A2000FF0000F0EBFE0AF1010000F0FF0ABAF13E
:101A3000120FDED34FF00B0A029804EB0A0BC1B26F
:101A40000BF0FF004FF6FF7200F0D8FE09F0FF0127
:101A50000BF0FF004FF6FF7200F0D0FE16984FF625
:101A6000FF72C1B20BF0FF0000F0C8FE0AF10100E6
:101A700000F0FF0ABAF1110FDED34FF00A0A1598F1
:101A800004EB0A0BC1B20BF0FF004FF6FF7200F03F
:101A9000B5FE19984FF6FF72C1B20BF0FF0000F0CF
:101AA000ADFE0AF1010000F0FF0ABAF1100FE6D313
:101AB0004FF00A0A04EB0A00F9B2C0B24FF6FF7207
:101AC00000F09CFE0AF1010000F0FF0ABAF10F0FCE
:101AD000F0D34FF0090A00BF04EB0A0008F0FF0141
:101AE000C0B24FF6FF7200F089FE0AF1010000F06B
:101AF000FF0ABAF10F0FEFD305F119001F90401C38
:101B00004FF0090A00901F9804EB0A0BC1B20BF0CA
:101B1000FF004FF6FF7200F071FE00984FF6FF7263
:101B2000C1B20BF0FF0000F069FE0AF1010000F005
:101B3000FF0ABAF10E0FE6D34FF0150A0C984FF6D4
:101B4000FF72C1B204EB0A00C0B200F057FE0AF106
:101B5000010000F0FF0ABAF1260FEFD34FF0140A8C
:101B600011984FF6FF72C1B204EB0A00C0B200F048
:101B700045FE0AF1010000F0FF0ABAF1260FEFD38B
:101B80004FF0140A12984FF6FF72C1B204EB0A002C
:101B9000C0B200F033FE0AF1010000F0FF0ABAF112
:101BA000250FEFD34FF0150A02984FF6FF72C1B21E
:101BB00004EB0A00C0B200F021FE0AF1010000F0BF
:101BC000FF0ABAF1240FEFD34FF0150A04EB0A0015
:101BD00009F0FF01C0B24FF6FF7200F00FFE0AF1EC
:101BE000010000F0FF0ABAF11D0FEFD34FF0150A04
:101BF000169804EB0A0BC1B20BF0FF004FF6FF7210
:101C000000F0FCFD15984FF6FF72C1B20BF1010018
:101C1000C0B200F0F3FD19984FF6FF72C1B20BF19C
:101C20000200C0B200F0EAFD0BF10300F9B2C0B24D
:101C30004FF6FF7200F0E2FD0AF1010000F0FF0A2A
:101C4000BAF11E0FD4D34FF0190A00BF04EB0A00FB
:101C500008F0FF01C0B24FF6FF7200F0CFFD0AF1AD
:101C6000010000F0FF0ABAF1210FEFD34FF01A0A7A
:101C70001F984FF6FF72C1B204EB0A00C0B200F029
:101C8000BDFD0AF1010000F0FF0ABAF1230FEFD306
:101C90004FF01B0A00984FF6FF72C1B204EB0A0026
:101CA000C0B200F0ABFD0AF1010000F0FF0ABAF18A
:101CB000230FEFD3129845F2AA22C1B204F10B0010
:101CC0001190C0B200F09AFD12984AF65552C1B276
:101CD0000998C0B200F092FD029845F2AA22C1B262
:101CE00004F111001E90C0B200F088FD029804F1CA
:101CF000240BC1B20BF0FF004AF6555200F07EFDF6
:101D00004FF01D0A04EB0A0009F0FF01C0B24AF6C9
:101D1000555200F073FD0AF1010000F0FF0ABAF11C
:101D2000220FEFD304F12200219009F0FF01C0B28D
:101D300045F2AA2200F062FD16984AF65552C1B249
:101D400004F10A001390C0B200F058FD16984FF647
:101D5000FF72C1B204F112001290C0B200F04EFD49
:101D600015984AF65552C1B20D98C0B200F046FD22
:101D700015984FF6FF72C1B20B98C0B200F03EFD4D
:101D800019984FF6FF72C1B21298C0B200F036FD3A
:101D900019984AF65552C1B21298C0B200F02EFD01
:101DA00004F109001D90F9B2C0B245F2AA2200F078
:101DB00025FD04F12100229008F0FF01C0B24AF68F
:101DC000555200F01BFD1F9845F2AA22C1B20E9891
:101DD000C0B200F013FD00984AF65552C1B204F1AA
:101DE00008001590C0B200F009FD009804F1230A24
:101DF000C1B20AF0FF0045F2AA2200F0FFFC1498DD
:101E00001F22C1B204F10F001490C0B200F0F6FC22
:101E10001B981F22C1B21E98C0B200F0EFFC1898A8
:101E20001F22C1B20D98C0B200F0E8FC18981F2222
:101E3000C1B20AF0FF0000F0E1FC0A981F22C1B213
:101E400004F126001890C0B200F0D8FC0A981F22B6
:101E5000C1B204F13100C0B200F0D0FC089804F126
:101E6000270AC1B20AF0FF001F2200F0C7FC119838
:101E7000F1B2C0B21F2200F0C1FC17981F22C1B2FC
:101E80000B98C0B200F0BAFCF1B20AF0FF001F22BA
:101E900000F0B4FC0C981F22C1B20AF0FF0000F061
:101EA000ADFC02981F22C1B20B98C0B200F0A6FC94
:101EB00002981F22C1B21C98C0B200F09FFC189873
:101EC00009F0FF01C0B21F2200F098FC16981F22F3
:101ED000C1B22198C0B200F091FC16981F22C1B285
:101EE0000BF0FF0000F08AFC19981F22C1B2229863
:101EF000C0B200F083FC1598F9B2C0B21F2200F006
:101F00007DFC0B98F9B2C0B21F2200F077FC099853
:101F1000F9B2C0B21F2200F071FC2298F9B2C0B22F
:101F20001F2200F06BFC159808F0FF01C0B21F22C1
:101F300000F064FC1E9808F0FF01C0B21F2200F000
:101F40005DFC04F11600089008F0FF01C0B21F22EA
:101F500000F054FC08F0FF010BF0FF001F2200F01E
:101F60004DFC1F981F22C1B2E01D1690C0B200F0B8
:101F700045FC1F981F22C1B204F118000A90C0B29C
:101F800000F03CFC00981F22C1B21698C0B200F0CD
:101F900035FC00981F22C1B21498C0B200F02EFC8C
:101FA00000981F22C1B21298C0B200F027FC00981E
:101FB0001F22C1B20698C0B200F020FC00981F2278
:101FC000C1B20898C0B200F019FC00981F22C1B23B
:101FD00004F117001890C0B200F010FC00981F2206
:101FE000C1B20A98C0B200F009FCA01D05F11C0B9B
:101FF00017900BF0FF01C0B24FF6FF7200F0FEFB2E
:1020000013980BF0FF01C0B24FF6FF7200F0F6FB21
:1020100011980BF0FF01C0B24FF6FF7200F0EEFB1B
:102020000F980BF0FF01C0B24FF6FF7200F0E6FB15
:102030001E980BF0FF01C0B24FF6FF7200F0DEFBFE
:102040000B980BF0FF01C0B24FF6FF7200F0D6FB09
:1020500018980BF0FF01C0B24FF6FF7200F0CEFBF4
:102060000A980BF0FF01C0B24FF6FF7200F0C6FBFA
:102070005FF01B06A0190BF0FF01C0B24FF6FF7214
:1020800000F0BCFB701CC6B2242EF3D3601D05F11A
:102090001D071A90F9B2C0B24FF6FF7200F0AEFB06
:1020A0001798F9B2C0B24FF6FF7200F0A7FB1D9867
:1020B000F9B2C0B24FF6FF7200F0A0FB04F10C00C1
:1020C0001990F9B2C0B24FF6FF7200F097FB0F986B
:1020D000F9B2C0B24FF6FF7200F090FB0D98F9B262
:1020E000C0B24FF6FF7200F089FB1E98F9B2C0B281
:1020F0004FF6FF7200F082FB0698F9B2C0B24FF6BD
:10210000FF7200F07BFB0B98F9B2C0B24FF6FF7282
:1021100000F074FB0898F9B2C0B24FF6FF7200F0FD
:102120006DFB1898F9B2C0B24FF6FF7200F066FB73
:102130000A98F9B2C0B24FF6FF7200F05FFB1A26A0
:10214000A019F9B2C0B24FF6FF7200F057FB701C35
:10215000C6B21D2EF4D31D26A019F9B2C0B24FF697
:10216000FF7200F04BFB701CC6B2232EF4D305F1B6
:102170001E00C1B203901A984FF6FF72C0B200F071
:102180003DFB03984FF6FF72C1B21798C0B200F042
:1021900035FB03984FF6FF72C1B21598C0B200F03C
:1021A0002DFB03984FF6FF72C1B21D98C0B200F02C
:1021B00025FB03984FF6FF72C1B21998C0B200F028
:1021C0001DFB03984FF6FF72C1B20F98C0B200F02A
:1021D00015FB03984FF6FF72C1B21498C0B200F01D
:1021E0000DFB03984FF6FF72C1B20D98C0B200F01C
:1021F00005FB03984FF6FF72C1B20698C0B200F01B
:10220000FDFA03984FF6FF72C1B20B98C0B200F00E
:10221000F5FA03984FF6FF72C1B20898C0B200F009
:10222000EDFA03984FF6FF72C1B21898C0B200F0F1
:10223000E5FA03984FF6FF72C1B204F11A001C9040
:10224000C0B200F0DBFA03984FF6FF72C1B204F19E
:102250001B001E90C0B200F0D1FA039804F1200ACE
:10226000C1B20AF0FF004FF6FF7200F0C7FA052670
:1022700005F11F08A01908F0FF01C0B24FF6FF7268
:1022800000F0BCFA701CC6B20A2EF3D35FF00B0646
:10229000A01908F0FF01C0B24FF6FF7200F0AEFACD
:1022A000701CC6B2102EF3D3069808F0FF01C0B21E
:1022B0004FF6FF7200F0A2FA0B9808F0FF01C0B2CF
:1022C0004FF6FF7200F09AFA089808F0FF01C0B2CA
:1022D0004FF6FF7200F092FA189808F0FF01C0B2B2
:1022E0004FF6FF7200F08AFA04F119001B9008F013
:1022F000FF01C0B24FF6FF7200F080FA1C9808F0A0
:10230000FF01C0B24FF6FF7200F078FA1E9808F095
:10231000FF01C0B24FF6FF7200F070FA109808F09B
:10232000FF01C0B24FF6FF7200F068FA08F0FF013B
:102330000AF0FF004FF6FF7200F060FA042605F184
:10234000200900BFA01909F0FF01C0B24FF6FF72CB
:1023500000F054FA701CC6B20A2EF3D3119809F09B
:10236000FF01C0B24FF6FF7200F048FA199809F069
:10237000FF01C0B24FF6FF7200F040FA0E9809F06C
:10238000FF01C0B24FF6FF7200F038FA149809F05E
:10239000FF01C0B24FF6FF7200F030FA129809F058
:1023A000FF01C0B24FF6FF7200F028FA069809F05C
:1023B000FF01C0B24FF6FF7200F020FA099809F051
:1023C000FF01C0B24FF6FF7200F018FA089809F04A
:1023D000FF01C0B24FF6FF7200F010FA1C9809F02E
:1023E000FF01C0B24FF6FF7200F008FA1E9809F024
:1023F000FF01C0B24FF6FF7200F000FA109809F02A
:10240000FF01C0B24FF6FF7200F0F8F909F0FF01CA
:102410000AF0FF004FF6FF7200F0F0F9201D05F101
:10242000210A1D900AF0FF01C0B24FF6FF7200F0C2
:10243000E5F91A980AF0FF01C0B24FF6FF7200F0FA
:10244000DDF916980AF0FF01C0B24FF6FF7200F0F6
:10245000D5F915980AF0FF01C0B24FF6FF7200F0EF
:10246000CDF911980AF0FF01C0B24FF6FF7200F0EB
:10247000C5F919980AF0FF01C0B24FF6FF7200F0DB
:10248000BDF90E980AF0FF01C0B24FF6FF7200F0DE
:10249000B5F914980AF0FF01C0B24FF6FF7200F0D0
:1024A000ADF912980AF0FF01C0B24FF6FF7200F0CA
:1024B000A5F906980AF0FF01C0B24FF6FF7200F0CE
:1024C0009DF909980AF0FF01C0B24FF6FF7200F0C3
:1024D00095F908980AF0FF01C0B24FF6FF7200F0BC
:1024E0008DF91B980AF0FF01C0B24FF6FF7200F0A1
:1024F00085F91C980AF0FF01C0B24FF6FF7200F098
:102500007DF91E980AF0FF01C0B24FF6FF7200F08D
:1025100075F904F11E001E900AF0FF01C0B24FF6DB
:10252000FF7200F06BF910980AF0FF01C0B24FF68D
:10253000FF7200F063F9E01C05F122061F90F1B272
:10254000C0B24FF6FF7200F059F91D98F1B2C0B257
:102550004FF6FF7200F052F91A98F1B2C0B24FF67E
:10256000FF7200F04BF91698F1B2C0B24FF6FF724D
:1025700000F044F91598F1B2C0B24FF6FF7200F0C6
:102580003DF91398F1B2C0B24FF6FF7200F036F980
:102590001198F1B2C0B24FF6FF7200F02FF90E9809
:1025A000F1B2C0B24FF6FF7200F028F91498F1B200
:1025B000C0B24FF6FF7200F021F91298F1B2C0B22A
:1025C0004FF6FF7200F01AF90698F1B2C0B24FF65A
:1025D000FF7200F013F90B98F1B2C0B24FF6FF7220
:1025E00000F00CF90998F1B2C0B24FF6FF7200F09A
:1025F00005F90A98F1B2C0B24FF6FF7200F0FEF88A
:102600001B98F1B2C0B24FF6FF7200F0F7F81C98B9
:10261000F1B2C0B24FF6FF7200F0F0F81E98F1B2BE
:10262000C0B24FF6FF7200F0E9F81098F1B2C0B2F4
:102630004FF6FF7200F0E2F81F98741CE1B2C0B2CE
:102640004FF6FF7200F0DAF81D98E1B2C0B24FF613
:10265000FF7200F0D3F81698E1B2C0B24FF6FF72E5
:1026600000F0CCF80698E1B2C0B24FF6FF7200F06D
:10267000C5F80B98E1B2C0B24FF6FF7200F0BEF899
:102680000A98E1B2C0B24FF6FF7200F0B7F81A989C
:102690000BF0FF01C0B24AF6555200F0AFF819989E
:1026A0000BF0FF01C0B24AF6555200F0A7F80D98A2
:1026B0000BF0FF01C0B24AF6555200F09FF8159892
:1026C000F9B2C0B24AF6555200F098F803984AF6AB
:1026D0005552C1B21098C0B200F090F81D9808F0A1
:1026E000FF01C0B24AF6555200F088F8189809F078
:1026F000FF01C0B24AF6555200F080F81398E1B2DB
:10270000C0B24AF6555200F079F81198E1B2C0B261
:102710004AF6555200F072F80E98E1B2C0B24AF68D
:10272000555200F06BF81498E1B2C0B24AF6555217
:1027300000F064F81298E1B2C0B24AF6555200F0C7
:102740005DF81B98E1B2C0B24AF6555200F056F857
:102750001E98E1B2C0B24AF6555200F04FF81098F8
:10276000E1B2C0B24AF6555200F048F816980BF0A4
:10277000FF01C0B245F2AA2200F040F8039845F2EA
:10278000AA22C1B21B98C0B200F038F80F9809F025
:10279000FF01C0B245F2AA2200F030F81B9809F000
:1027A000FF01C0B245F2AA2200F028F80A980AF008
:1027B000FF01C0B245F2AA2200F020F81798E1B25A
:1027C000C0B245F2AA2200F019F81998F1B2C0B2CD
:1027D00045F2AA2200F012F80D98F1B2C0B245F20B
:1027E000AA2200F00BF80D9825B0E1B2BDE8F04F39
:1027F000C0B245F2AA2200F001B800002DE9F04174
:102800001446584A461C4D1C127832B1012A28D071
:10281000022A4DD0032A76D09BE0074688462A201C
:1028200000F02CF9002000F057F9384600F054F978
:10283000002000F051F9F0B200F04EF92B2000F02A
:102840001DF9002000F048F9404600F045F900204D
:1028500000F042F9E8B200F03FF92C2000F00EF948
:1028600077E0C1F17F010746CDB22A2000F006F9DA
:10287000002000F031F9284600F02EF9002000F089
:102880002BF9681CC0B200F027F92B2000F0F6F8F5
:10289000002000F021F9384600F01EF9002000F079
:1028A0001BF9F0B200F018F92C2000F0E7F850E026
:1028B000C0F17F00C5B2C1F19F00C6B22A2000F06E
:1028C000DDF8002000F008F9284600F005F90020A6
:1028D00000F002F9681CC0B200F0FEF82B2000F0F6
:1028E000CDF8002000F0F8F8304600F0F5F80020B0
:1028F00000F0F2F8701CC0B200F0EEF82C2000F0EE
:10290000BDF826E0FFE7C0F19F00C7B20E462A20BF
:1029100000F0B4F8002000F0DFF8304600F0DCF8FA
:10292000002000F0D9F8E8B200F0D6F82B2000F033
:10293000A5F8002000F0D0F8384600F0CDF80020CF
:1029400000F0CAF8781CC0B200F0C6F82C2000F0E5
:1029500095F8200A00F0C0F8E0B2BDE8F04100F0C0
:10296000BBB80000480000202DE9F04188B00121EB
:102970000220FDF71DFF01210420FDF719FF0121B1
:102980008803FDF721FF01218803FDF729FFDFF808
:10299000E08005220D214046FDF7B2FE05220F2101
:1029A0004046FDF7ADFE00248DF8064001254FF4AA
:1029B00080408DF8045000908DF807408DF8055048
:1029C00069464046FDF754FE8DF806408DF80450E8
:1029D0006F028DF8074000978DF80550694625482D
:1029E000FDF746FE8DF8064002264FF420408DF894
:1029F000046000908DF807408DF8056069464046F8
:102A0000FDF736FE8DF8064028038DF8045000903F
:102A10008DF807408DF8056069464046FDF728FEB1
:102A2000ADF808404FF48270ADF80A000820ADF808
:102A30001400ADF80C40ADF816400F4CADF8105036
:102A4000ADF80E60ADF8127002A92046FDF7FDFE4C
:102A500001212046FDF7E5FE00212046FDF7D8FEC6
:102A600000212046FDF71BFF08B0BDE8F081000003
:102A700000040240000802400038004070B5134DC9
:102A800006464FF480512846FDF74BFE6915104865
:102A9000FDF747FE0F4C02212046FDF7CBFE002834
:102AA000F9D031462046FDF7CEFE01212046FDF744
:102AB000C1FE0028F9D02046FDF7C3FE2846BDE838
:102AC00070404FF48051FDF72EBE0000000402401C
:102AD000000802400038004070B5134D06464FF420
:102AE00080512846FDF71DFE69151048FDF71BFEB5
:102AF0000F4C02212046FDF79DFE0028F9D03146FB
:102B00002046FDF7A0FE01212046FDF793FE002898
:102B1000F9D02046FDF795FE2846BDE870404FF4F9
:102B20008051FDF700BE0000000402400008024092
:102B30000038004010B584B001210820FDF744FEA4
:102B40004FF47A7002905320134CADF8040001A9A1
:102B50002046FEF70BF801212046FDF7A1FF0122D8
:102B600011462046FDF7BEFF01212046FDF79BFFE1
:102B700000248DF801408DF8024001208DF80300FB
:102B800032208DF800006846FDF7D8FD03488480A8
:102B9000448004B010BD0000000C0040AC060020D2
:102BA0000000024010000000000002402000000071
:102BB00000000240400000000000024080000000D1
:102BC000000802401000000000080240000400005D
:102BD0000008024000080000000802400010000049
:102BE000000C024004000000082C00080000002037
:102BF000B4060000F4010008142F0008B4060020F9
:102C00009C8D0000B40D000811847A030AC00901EC
:102C10000203040607080923D00713B4061420C8CA
:102C20002B1B08D0041AD8041AE0041AA0041AA80E
:102C3000041AB0041AB80411021E011008183C3C12
:102C40003C181818190341E5666666243D6C6CFE55
:102C50006C04392E580B187CC6C2C07C0686C67C14
:102C600031216009C2C60C183060C686500B386C22
:102C70006C3876DCCCCCCC76D530303060192C3941
:102C80000163180C19093901931830AE663CFF3CFA
:102C900066A37B187E6D89149931110A11FED879CB
:102CA000322B0206A063C080580B7CC6C6CED6D697
:102CB000E6C6C67C281B38784C19016A7E20492F4D
:102CC0005AC65419106E063C060606301F0C1C3CF2
:102CD0006CCCFEB15A1E7B8EC0C0C0FC0E201B38CF
:102CE00060101AC60159101AFE4049F479802AC6AC
:102CF000046920290C1A7E60BB0C78BA99F159102E
:102D000069EF399FA530180C0619AB59AE31391C43
:102D1000292479601A0CDE895119115EDEDEDEDCB1
:102D2000C0802F10386CC6C6FE91611EFC666666B8
:102D30007C046366FC1C3C66C2E265C0C2663C2B38
:102D4000F86C1D5D66666CF87C5809666268786888
:102D50006062668259109C6060F04066DEC6C6669E
:102D60003A296A396F59701A3C9D390159602B1EF6
:102D70000C0165CCCCCC781FE6666C6C78787562FB
:102D8000E61AF05B190179709EC6EEFEFED6508FF2
:102D9000C6E6F6FEDECE1029DF29019B6C38E0295D
:102DA0004259A04A7C1F7ED6DE7C0C0E2029E459B5
:102DB000701920600860380C06C6C67CBC7E7E5A3E
:102DC000B0493F19015920590E9C6C3810106ED62D
:102DD000D6FE6C6C101E6C6C38386C9661196A9B50
:102DE000663C50580AFEC6860C183060C2C6E05BCE
:102DF0003C3001592011580A80C0E070381C0E0682
:102E000002205A0C0139201A10EF011922FF041276
:102E10003030186008780C7CCCCCCC762EE060602A
:102E2000786C9592DC6E7CC6C0C0C0E01A1C6A1A31
:102E30006C2F693039208AFE201F386C6460F06086
:102E40000192F02A762F4ECC7C0CCC78602B6C76DD
:102E50006062E61318181A38FE5B1818E0130606AD
:102E60003B0E06012B66661319301C666C7893596D
:102E700030492D8930312CECFED601912ADC5F9B44
:102E80006666A0290159A079207A7CA369A05B0C11
:102E90001E20BB7662C06E7CC660380C401E1030AF
:102EA00030FC300193361C393F93CC76395F933C2C
:102EB00018197D8DD6D6FE6C10AF6C3838386CC6BC
:102EC000201901657E060CF86008FECC183060C63B
:102ED000FE1A0EEB2A70F0620E290B390559602993
:102EE0001C29245B1870CDC2DCCAFF014172011499
:102EF000100140124412401A48041A4C041A50049B
:102F0000114A02042A04088172646939A1320C133F
:042F1000328C82205D
:040000050800018965
:00000001FF
